:020000040800F2
:10000000E0090020450100083D1F00083F1F0008CF
:10001000431F0008471F00084B1F00080000000096
:100020000000000000000000000000004F1F00085A
:10003000511F000800000000531F0008551F000852
:100040005F0100085F0100085F0100085F01000810
:100050005F0100085F0100085F0100085F01000800
:100060005F010008092000085F0100085F01000827
:100070005F0100085F0100085F0100085F010008E0
:100080005F0100085F0100085F0100085F010008D0
:100090005F0100085F0100085F0100085F010008C0
:1000A0005F0100085F0100085F0100085F010008B0
:1000B0005F0100085F0100085F0100085F010008A0
:1000C0005F0100085F0100085F0100085F01000890
:1000D0005F0100085F0100085F010008831F00083E
:1000E0005F0100085F0100085F0100085F01000870
:1000F0005F0100085F0100085F0100085F01000860
:100100005F0100085F0100085F0100085F0100084F
:100110005F0100085F0100085F0100085F0100083F
:100120005F0100085F0100085F0100085F0100082F
:10013000DFF80CD004F0EEFC00480047511C00082A
:10014000E00900200648804706480047FEE7FEE732
:10015000FEE7FEE7FEE7FEE7FEE7FEE7FEE7FEE777
:1001600047020008310100080CB500200190009002
:100170006C48006840F480306A49086000BF6948F4
:10018000006800F4003000900198401C0190009835
:1001900018B90198B0F5A06FF1D16248006800F479
:1001A000003010B10120009001E000200090009884
:1001B000012843D15C48006840F010005A490860AB
:1001C0000846006820F0030008600846006840F018
:1001D0000200086053484068524948600846406839
:1001E00048600846406840F48060486008464068BF
:1001F00020F47C1048600846406840F4E8104860ED
:100200000846006840F08070086000BF45480068FC
:1002100000F000700028F9D04248406820F0030048
:10022000404948600846406840F00200486000BF0E
:100230003C48406800F00C000828F9D10CBD10B50E
:10024000FFF792FF10BD10B53648006840F001007E
:1002500034490860084640683449084031494860DC
:1002600008460068324908402E4908600846006880
:1002700020F4802008600846406820F4FE004860B2
:100280004FF41F008860FFF7DAFF4FF00060294944
:10029000086010BD10B5002100200022214B5B68D2
:1002A00003F00C0121B1042906D0082928D107E068
:1002B000214B224C236027E01F4B204C236023E07E
:1002C000184B5B6803F47010164B5B6803F48032C4
:1002D000022303EB904022B9194B4343174C236090
:1002E0000DE0104B5B6803F4003323B1144B434320
:1002F000124C236003E0104B4343104C236003E097
:100300000D4B0E4C236000BF00BF064B5B68C3F370
:1003100003130C4CE15C094B1B68CB40074C23607A
:1003200010BD000000100240002002400000FFF855
:10033000FFFFF6FE08ED00E000127A00000000204A
:1003400000093D000400002031490143314A116099
:10035000704770B5002100230F22C47804B32D4CE0
:10036000246804F4E064C4F5E064210AC1F10403E4
:10037000CA40447804FA03F1847814402143090107
:10038000254C0678A155047804F01F050124AC40E3
:1003900005786D11AD0005F1E025C5F8004109E0D3
:1003A000047804F01F050124AC401C4D067876113A
:1003B00045F8264070BD1A4A0A400243154B1B1FE0
:1003C0001A60704739B1134A121D12680243114B6B
:1003D0001B1D1A6006E00F4A121D126882430D4B66
:1003E0001B1D1A607047042808D14FF0E0210969ED
:1003F00041F004014FF0E022116107E04FF0E021ED
:10040000096921F004014FF0E022116170470000FA
:100410000000FA050CED00E000E400E080E100E0FF
:1004200080FFFF1F002044490860091D0860091D66
:100430000860091D086041483F4914310860704751
:1004400000213D498279002A3AD00A4612680368A1
:100450009A430B461A600A1D126803689A430B1DE3
:100460001A60027911440A6803681A430A60324A22
:100470000832126803689A432F4B08331A601A1D1A
:10048000126803689A432C4B0C331A604279102A85
:100490000ED11A1F126803681A43274B08331A60DB
:1004A0001A1D126803681A43234B0C331A600DE0BF
:1004B0002149427911440A6803681A430A6005E039
:1004C000027911440A6803689A430A607047002160
:1004D000016001710C214171002181717047164941
:1004E000103109680143144A103211607047014607
:1004F0000020114A143212680A400AB1012000E0BB
:10050000002070470C4914310860704701460020F4
:100510000022094B1B6803EA0102074B14331B68D6
:100520000B4013B10AB1012000E0002070470249DE
:10053000143108607047000000040140FFFF0F0005
:1005400030B943F2DB028100A1F1C0410A6005E04D
:1005500043F2D2028100A1F1C0410A606FF0704203
:10056000411C8900A1F1C0410A608100A1F1C04194
:10057000C1F80421704710280AD118214FF02042F9
:100580001166402151664FF0FC319166D16610E052
:100590001821F74A116040214FF02042C2F8841020
:1005A0004FF0FC31F24A083211604FF02042C2F89D
:1005B0008C1070471820EE49203108600020090691
:1005C000C1F8A4004FF0FC30E94928310860091D4A
:1005D0000860091D08607047D0E901121143C26824
:1005E0001143026911434269114382691143C2698F
:1005F0001143026A1143426A1143826A1143C26A7B
:100600001143026B114302689200A2F1C0421160D3
:10061000816808290BD101688900A1F1C0410968EE
:1006200041F0400201688900A1F1C0410A60416BBC
:100630000968426B526841EA0211426B926841EAD2
:100640000221426B928941EA0241426B128A41EADD
:100650000251426B127D41EA0261426B9269114381
:100660000268521C9200A2F1C0421160C16AB1F549
:10067000804F1BD1816B0968826B526841EA02117D
:10068000826B926841EA0221826B128A41EA02512E
:10069000826B127D41EA0261826B926911430268AA
:1006A0009200A2F1C042C2F8041107E06FF070425C
:1006B00001688900A1F1C041C1F80421704730B53B
:1006C000002100220023446844F0080485682C437C
:1006D000C5682C4305692C43456944EA452485696E
:1006E00044EA4531C4692468C5696D6844EA052453
:1006F000C5692D8944EA0544C5692D7B44EA056234
:10070000046A2468056A6D6844EA0524056A2D892F
:1007100044EA0544056A2D7B44EA05630468102C0D
:1007200005D14FF020442166A266E36608E0904CB4
:1007300021604FF02044C4F888208D4C0C34236095
:1007400030BD016841F01001426841EA42218268EF
:1007500041EA4231864A20321160C1680968C268A4
:10076000526841EA0221C268128941EA0241C26824
:10077000127B41EA02617E4A2832116001690968F0
:100780000269526841EA02210269128941EA024182
:100790000269127B41EA0261754A2C32116041699B
:1007A00009684269526841EA02214269128941EAB4
:1007B00002414269127B41EA02614FF02042C2F8D5
:1007C000B01070470021016002214160002181606A
:1007D000C160016141618161C16101624FF4805179
:1007E0004162490081620021C16201630F21426BB5
:1007F0001160426B5160FF21426B91600F21426B8F
:10080000D160426B1161426B51610021426B916179
:100810000F21826B1160826B5160FF21826B9160AE
:100820000F21826BD160826B1161826B516100215B
:10083000826B9161704710210160002141608160ED
:10084000C160016141618161FC21C2691160C269BD
:100850005160C2699160C269D160026A1160026A26
:100860005160026A9160026AD160704700210160A4
:1008700041608160FC21C2681160C2685160C26839
:100880009160C268D16002691160026951600269B9
:1008900091600269D16042691160426951604269A8
:1008A00091604269D160704751B18200A2F1C042AB
:1008B000126842F001038200A2F1C042136009E015
:1008C0008200A2F1C04212682A4B1A408300A3F1B1
:1008D000C0431A60704799B1102808D14FF02042E8
:1008E000126E42F004024FF020431A661DE0204AC7
:1008F000126842F004024FF02043C3F8802014E055
:10090000102809D14FF02042126E1A4BDB1E1A40FC
:100910004FF020431A6608E0154A1268154BDB1E9B
:100920001A404FF02043C3F88020704748B1104967
:100930002031096841F004014FF02042C2F8A010B4
:1009400009E00B49203109680A4AD21E11404FF0D4
:100950002042C2F8A0107047B9B110280CD14FF056
:100960002042126E42F040024FF020431A661FE010
:10097000800000A0FEFF0F00724A126842F04002A1
:100980004FF02043C3F8802012E0102808D14FF028
:100990002042126E6C4B1A404FF020431A6607E05B
:1009A000684A1268684B1A404FF02043C3F8802011
:1009B000704701460020102903D14FF02042506FAC
:1009C00002E0604A14321068704710B5F2B1102886
:1009D00007D14FF020435B6E0B434FF0204463661A
:1009E00032E0B0F5807F08D1564B1B1D1B680B43CE
:1009F0004FF02044C4F8843026E0524B24331B6867
:100A00000B434FF02044C4F8A4301DE0102807D158
:100A10004FF020435B6E8B434FF02044636613E03E
:100A2000B0F5807F08D1474B1B1D1B688B434FF0EF
:100A30002044C4F8843007E0424B24331B688B43C6
:100A40004FF02044C4F8A43010BD10B50246002079
:100A50000023102A03D14FF02044636E09E0B2F561
:100A6000807F03D1374C241D236802E0354C2434A9
:100A7000236803EA01040CB1012000E0002010BD4E
:100A8000102807D14FF02042526E8A434FF0204386
:100A90005A6613E0B0F5807F08D12A4A121D126809
:100AA0008A434FF02043C3F8842007E0254A2432CC
:100AB00012688A434FF02043C3F8A420704770B5F2
:100AC00002460020002300240025102A03D14FF005
:100AD0002046736E09E0B2F5807F03D1194E361DB2
:100AE000336802E0174E2436336803EA010403EA50
:100AF000D10514B10DB1012000E0002070BD102817
:100B000008D14FF02042526E22EAD1024FF020432A
:100B10005A6615E0B0F5807F09D10A4A121D1268A5
:100B200022EAD1024FF02043C3F8842008E0054AAE
:100B30002432126822EAD1024FF02043C3F8A420E5
:100B400070470000800000A0BFFF0F0010B50446F2
:100B5000CC48844208D10121042000F02DFB002163
:100B6000042000F029FB46E0C748844208D1012157
:100B7000082000F021FB0021082000F01DFB3AE0D6
:100B8000C248844208D10121102000F015FB002149
:100B9000102000F011FB2EE0BD48844208D1012155
:100BA000202000F009FB0021202000F005FB22E0BE
:100BB000B848844208D10121402000F0FDFA00210C
:100BC000402000F0F9FA16E0B348844208D1012130
:100BD000802000F0F1FA0021802000F0EDFA0AE018
:100BE000AE48844207D10121801500F0E5FA0021CA
:100BF000A01500F0E1FA10BD10B50121084600F083
:100C0000DBFA0021012000F0D7FA10BD2DE9F041F8
:100C1000024600250026002000230024002791F82A
:100C200003C00CF00F0591F803C00CF0100CBCF1E0
:100C3000000F03D091F802C04CEA050591F800C0FE
:100C4000BCF1000F31D0146800202BE04FF0010CF4
:100C50000CFA00F3B1F800C00CEA03069E4220D162
:100C600083004FF00F0C0CFA03F7BC4305FA03FCAA
:100C70004CEA040491F803C0BCF1280F06D14FF0F0
:100C8000010C0CFA00FCC2F814C00AE091F803C091
:100C9000BCF1480F05D14FF0010C0CFA00FCC2F872
:100CA00010C0401C0828D1D31460B1F800C0BCF1BA
:100CB000FF0F34DD546800202EE000F1080C4FF0E7
:100CC000010808FA0CF3B1F800C00CEA03069E42D2
:100CD00021D183004FF00F0C0CFA03F7BC4305FA47
:100CE00003FC4CEA040491F803C0BCF1280F05D1C1
:100CF00000F1080C08FA0CF8C2F8148091F803C04F
:100D0000BCF1480F07D100F1080C4FF0010808FAB8
:100D10000CF8C2F81080401C0828CED35460BDE8FF
:100D2000F0814FF6FF710180022181700421C170B2
:100D300070470246002093680B400BB1012000E091
:100D4000002070470146886880B270470246002044
:100D5000D3680B400BB1012000E000207047014632
:100D6000C86880B2704701617047416170470AB13D
:100D7000016100E041617047C16070474FF480320B
:100D80000A43826181618261826982697047024699
:100D90000020434B18684FF68073184040EA021059
:100DA00008433F4B186070473E49C8617047F0B533
:100DB0000A46002300240021002500F00046B6F179
:100DC000004F02D1364EF16901E0354E7168C0F333
:100DD000034583B200F44016B6F5401F08D121F058
:100DE00070612F4E766826F070662D4F7E6012E09F
:100DF00000F48016B6F5801F06D1032606FA05F426
:100E0000A14341F0706106E0460D360103FA06F693
:100E1000B14341F0706122B1460D360103FA06F686
:100E2000314300F00046B6F1004F02D11C4EF16193
:100E300001E01B4E7160F0BD30B500228B071C0F26
:100E40000F2303FA04F2164B08338C1053F82430A6
:100E50009343134C08348D1044F8253023468C10EE
:100E600053F824308C07240F00FA04F423430C4C6D
:100E700008348D1044F8253030BD0A49DC31086053
:100E80007047000000080140000C014000100140C4
:100E90000014014000180140001C014000200140E6
:100EA0000000014000002042DF48006840F00100DF
:100EB000DD49086008464068DC490840DA49486076
:100EC00008460068DA490840D749086008460068C3
:100ED00020F4802008600846406820F4FE00486046
:100EE0004FF41F0088607047CF49096821F48031B2
:100EF000CD4A11601146096821F480211160B0F5D6
:100F0000803F03D0B0F5802F0ED106E0C6490968B6
:100F100041F48031C44A116007E0C349096841F4D3
:100F2000A021C14A116000E000BF00BF704710B5AA
:100F300001460022002300204A11012A02D1BA4CA6
:100F4000236806E0022A02D1B74C236A01E0B64CBE
:100F5000636A01F01F02012494401C400CB101207F
:100F600000E0002010BD38B50020009000240025CE
:100F700000BF3120FFF7DBFF05460098401C0090C2
:100F80000098B0F5A06F01D0002DF2D03120FFF70E
:100F9000CEFF08B1012400E00024204638BD014600
:100FA0000020A14A106820F0F80040EAC10010605B
:100FB0007047A04908607047024600209A4B586865
:100FC00020F47C1042EA01031843974B58607047A5
:100FD00098490866704701460020934A506820F0FF
:100FE00003000843506070478F48406800F00C00D1
:100FF0007047014600208C4A506820F0F0000843FA
:101000005060704701460020874A506820F4E06035
:1010100008435060704701460020834A506820F41E
:10102000605040EAC1005060704729B17E4A527A50
:1010300002437D4B5A7204E07B4A527A82437A4BD8
:101040005A7270477B49D8310860704701460020CA
:10105000754A506820F440400843506070470021B2
:10106000714A20321170704A82F82010012802D093
:1010700004280AD104E001216B4A2032117005E0F6
:101080000521694A2032117000E000BF00BF70479F
:101090006949086070476449096A0143624A1162FC
:1010A0007047654944390860704730B50021002217
:1010B000002400235C4D6D6805F00C0121B104296A
:1010C00005D0082923D105E05C4D056022E05B4D89
:1010D00005601FE0544D6D6805F47012524D6D6847
:1010E00005F48034022505EB92421CB9544D55435A
:1010F00005600BE04C4D6D6805F400351DB1504D99
:101100005543056002E04D4D5543056002E04B4DEF
:10111000056000BF00BF444D6D6805F0F00109098E
:10112000484D6B5C0568DD4045603F4D6D6805F4DA
:10113000E061090A434D6B5C4568DD4085603A4DCE
:101140006D6805F46051C90A3E4D6B5C4568DD4031
:10115000C560354D6D6805F44041890B3A4D6B5CB7
:10116000C568B5FBF3F5056130BD29B12E4A52695A
:1011700002432D4B5A6104E02B4A526982432A4BA9
:101180005A61704729B1284A92690243264B9A61F5
:1011900004E0254A92698243234B9A61704729B142
:1011A000214AD2690243204BDA6104E01E4AD26927
:1011B00082431D4BDA61704729B11B4AD268024352
:1011C000194BDA6004E0184AD2688243164BDA60A1
:1011D000704729B1144A12690243134B1A6104E0A3
:1011E000114A12698243104B1A6170471249403903
:1011F000086070470F49C86470470B49C871704751
:101200000948406A40F080700749486270470146CB
:101210000020054A92680A400AB1012000E000203F
:101220007047014988727047001002400000FFF8C3
:10123000FFFFF6FE000042428004424200127A00A4
:1012400000093D00140000202400002010B50446D1
:10125000BE48844208D101218014FFF7ADFF002170
:10126000A014FFF7A9FF16E0B948844208D1012174
:101270000014FFF7AEFF00212014FFF7AAFF0AE0D9
:10128000B448844207D10121C013FFF7A2FF002117
:10129000E013FFF79EFF10BD10B50022028802F494
:1012A00041520B884C8823438C882343CC882343AA
:1012B0000C8923434C8923438C892343CC892343C2
:1012C0001A430280838B4FF2FF74234083830B8A7F
:1012D000038210BD2DE9F04F85B005460C464FF056
:1012E000000902274FF000084FF0010B0026B2461C
:1012F000A88B4FF240010840A88302202884B5F84B
:101300001C90A068022801D100BF38E0A08810B965
:101310004FF0010B01E04FF0020B8D48854200D1E8
:1013200000E000BF6846FFF7C0FEDDF800A0E088DF
:10133000B0F5007F0AD14FEA1A2000EB8000400090
:10134000A168B0FBF1F0401D86B20BE04FEA4B10F4
:10135000BAFBF0F000EB80004000A168B0FBF1F0B8
:10136000401D86B20A20B6FBF0F606F00108A6EB97
:101370000800C0F34F074FF6FF7000EA0828022F5D
:1013800001DBFF2F02DD02274FF00008E08840EA72
:10139000080038432884A088A1890843618808434D
:1013A0002188084340F4006040EA0909A5F81C9030
:1013B00005B0BDE8F08F0021018041808180C180AF
:1013C000018141818181C181072101827047002112
:1013D000018041808180C180022181600021818162
:1013E000704721B1028842F04002028004E0028886
:1013F0004FF6BF731A400280704721B1828B42F4CE
:101400008062828304E0828B4FF6FF331A4082832E
:10141000704730B5002400230C110125A540ABB264
:101420001AB185881D43858002E085889D438580AB
:1014300030BD1AB183880B43838002E083888B43DD
:1014400083807047818170470146888970474FF6D5
:10145000FF62914204D0028842F48072028004E06C
:1014600002884FF6FF631A400280704721B18288DC
:1014700042F00402828004E082884FF6FB731A4037
:101480008280704702884FF2FF731A400280028800
:101490000A4302807047018841F4805101807047FF
:1014A00021B1028842F40052028004E002884DF625
:1014B000FF731A400280704702460020012901D0C4
:1014C000108B00E0908A70470146088A7047B1F59A
:1014D000804F04D1028842F48042028004E00288F6
:1014E0004BF6FF731A4002807047024600201389B2
:1014F0000B400BB1012000E000207047CA4302817D
:101500007047F0B50246002000240023002501F0BA
:101510000F070126BE40B4B20B1101269E40B3B2A4
:10152000968806EA03051689264016B10DB10120FA
:1015300000E00020F0BD10B5002201F00F040123EF
:10154000A3409AB2D343038110BD00000030014094
:1015500000380040003C004010B50446FB4884427F
:1015600009D101218803FFF727FE00214FF48040B5
:10157000FFF722FE32E0F648844209D101214804F7
:10158000FFF727FE00214FF40030FFF722FE25E091
:10159000F048844209D101218804FFF71AFE002196
:1015A0004FF48020FFF715FE18E0EB48844209D184
:1015B0000121C804FFF70DFE00214FF40020FFF7C2
:1015C00008FE0BE0E548844208D101210805FFF739
:1015D00000FE00214FF48010FFF7FBFD10BD2DE948
:1015E000F04786B005460E460024A24600BFA1463D
:1015F0000027B08900B100BF2F462C8A4CF6FF703F
:101600000440F08804432C82AC894EF6F310044069
:10161000B08831890843718908430443AC81AC8A9E
:101620004FF6FF400440B0890443AC8201A8FFF7A5
:101630003CFDC648874202D1DDF810A001E0DDF88C
:101640000CA0A88900F4004040B10AEBCA0000EBEE
:101650000A1031684900B0FBF1F807E00AEBCA0054
:1016600000EB0A1031688900B0FBF1F86420B8FB88
:10167000F0F004012009642101FB1089A88900F41D
:10168000004040B1322000EBC900B0FBF1F000F0A7
:101690000700044308E0322000EB09106421B0FB8E
:1016A000F1F000F00F0004432C8106B0BDE8F08794
:1016B0004FF41651016000218180C18001810C210D
:1016C000418100218181704710B502460020108AB7
:1016D0004FF2FF0318400B884C8823438C88234328
:1016E000CC8823431843108210BD00210180418023
:1016F0008180C180704721B1828942F40052828189
:1017000004E082894DF6FF731A4082817047F0B57C
:101710000346002400260025002040F66A17B9423F
:1017200000D100BF1846C1F3421401F01F06012783
:1017300007FA06F5012C01D10C3004E0022C01D18E
:10174000103000E014301AB107682F43076002E040
:101750000768AF430760F0BD1AB1838A0B438382E9
:1017600002E0838A8B4383827047028A4FF6F073CC
:101770001A400282028A0A430282704782894FF22B
:10178000FF731A40828182890A438281704721B1A6
:10179000828942F00202828104E082894FF6FD7361
:1017A0001A4082817047028A4FF6DF731A40028224
:1017B000028A0A430282704721B1028A42F48042BF
:1017C000028204E0028A4BF6FF731A4002827047DD
:1017D000C1F308028280704701468888C0F3080080
:1017E0007047818941F0010181817047028BD2B23B
:1017F0000283028B42EA012202837047028B02F4C9
:101800007F420283028B0A430283704721B1828A9E
:1018100042F02002828204E0828A4FF6DF731A408F
:101820008282704721B1828A42F01002828204E0F3
:10183000828A4FF6EF731A408282704721B1828A02
:1018400042F00802828204E0828A4FF6F7731A405F
:101850008282704721B1828942F40042828103E092
:101860008289C2F30E028281704721B1828A42F4DA
:101870000062828204E0828A4FF2FF731A40828201
:101880007047828A4FF6FB731A408282828A0A432B
:101890008282704721B1828A42F00202828204E091
:1018A000828A4FF6FD731A408282704702460020FA
:1018B000B1F5007F00D100BF13880B400BB10120B0
:1018C00000E00020704701F40072B2F5007F00D103
:1018D00000BFCA430280704770B50246002400234F
:1018E0000025002040F66A16B14200D100BFC1F3C6
:1018F000421501F01F03012606FA03F3012D02D160
:101900009689334006E0022D02D1168A334001E069
:10191000968A33400C12012606FA04F416883440E5
:1019200013B10CB1012000E0002070BD10B5002201
:10193000002340F66A14A14200D100BF0A1201241C
:101940009440A3B2DC43048010BD00000038014085
:101950000044004000480040004C0040005000405F
:1019600010B50446012C04D10103FE48FFF7FBF932
:1019700004E04FF48051FB48FFF7F7F910BD10B5B4
:101980000446012C04D12021F748FFF7ECF903E0CD
:101990002021F548FFF7E9F910BD10B50446012CE8
:1019A00004D14103EF48FFF7DEF904E04FF40051A2
:1019B000EC48FFF7DAF910BD10B5EC48B0F80004B8
:1019C0000121B1EBD03F6FD12020E949086001200F
:1019D00008600220091F08600020E449B1F80014E3
:1019E000C1F30E01E14A50541046B0F800046FF301
:1019F0000E001146A1F800040846B0F8000420F4D7
:101A00000040A1F80004DBA1104603F03FF818B134
:101A10000120FFF7C2FF47E0D8A1D44803F036F811
:101A200018B10120FFF7ABFF3EE0D6A1CF4803F08D
:101A30002DF818B10020FFF7B0FF35E0D3A1CB4857
:101A400003F024F818B10020FFF799FF2CE0D1A192
:101A5000C64803F01BF850B10120FFF781FF4FF497
:101A6000967000F051FB0020FFF77AFF1CE0CBA13D
:101A7000BE4803F00BF8B8B10120FFF771FF4FF437
:101A8000967000F041FB0020FFF76AFF4FF496705C
:101A900000F03AFB0120FFF763FF4FF4967000F06F
:101AA00033FB0020FFF75CFF10BD70B5044601F06A
:101AB0002CFDC5882B46A0220021104601F0C4FA57
:101AC00001F023FD002522462946AA2001F0BEFC94
:101AD00070BD70B5044601F018FDC5882B46A022E4
:101AE0000021084601F0B0FA01F00FFD0025224662
:101AF00029460A2001F0AAFC70BD10B5A94802F0E1
:101B000010FF012800D110BD0020FCE710B500F047
:101B100038FE00BF00F0E9FC0446002CFAD0042C8B
:101B20000FD100BFA0A1A3A000F037FC0028F9D07E
:101B300000BF0523A3A2A5A1002000F06BFC002894
:101B4000F7D000BF00F008FE0028FBD010BD10B594
:101B500000BF95A197A000F020FC0028F9D000203C
:101B600000F043FC00BF052396A298A1002000F0DE
:101B700051FC0028F7D000BF00F0EEFD0028FBD09C
:101B800010BD10B54FF4807179481438FFF7EBF8A9
:101B900000F0C4FB002000F0DEFB10BD10B502F029
:101BA00000FC8E49087008460078012803D18CA0FB
:101BB000FFF78FFF04E08EA0FFF78BFF00BFFEE76B
:101BC00002F098FB10BD08B501214020FFF7DAFABA
:101BD0002020ADF8000010208DF8030003208DF8C0
:101BE000020069466048FFF711F820215E48FFF7C0
:101BF000BCF801211020FFF7C5FA4FF40050ADF8F2
:101C0000000010208DF8030003208DF802006946C3
:101C10005448FEF7FBFF4FF400515248FFF7A5F878
:101C200001211020FFF7AEFA4FF48050ADF800000C
:101C300010208DF8030003208DF802006946494802
:101C4000FEF7E4FF4FF480514648FFF78EF808BDD9
:101C500090B0002402F022FAFFF7B5FF02F011FE67
:101C600001F075FC66A0FFF734FF00F00BFA02F0FC
:101C70002EF800206649087066A0FFF72AFF00F0E2
:101C8000DFFA68A0FFF725FF02F041FAFFF786FFB1
:101C900069A0FFF71EFFFFF774FF6BA0FFF719FFA6
:101CA000FFF755FF6CA0FFF714FF2AE16E4800789C
:101CB00058B120202E49091F086001200860022029
:101CC000091D0860FFF722FF1BE120202849091F9A
:101CD00008600120091D08600220091F08604C48A7
:101CE0000078022823D1641C00BF04205F490860EB
:101CF00020201F490860091F086004205B49091F54
:101D0000086020201A490860091F086000BF58A019
:101D1000FFF7DFFE5A4D2B89EA88A989688901F00F
:101D200057FF00203A49087056A0FFF7D2FE5948E5
:101D3000006820B900244FF47A7056490860FFF714
:101D4000DCFE10210748FEF7F4FF002808D15248B6
:101D500002F077FB214908700846007840289DE092
:101D6000CDE000000010014000180140CA01002031
:101D7000140C01402A2A5454232300002A2A4848DC
:101D8000232300002A2A3030232300002A2A31315D
:101D9000232300002A2A4344232300002A2A5753DE
:101DA000232300002800002079616E6768616F2E90
:101DB00030000000485541574549205033302050ED
:101DC000726F000032323232320000003139322E6E
:101DD0003136382E34332E31000000002D00002023
:101DE0004E52462062696E64204D4355000000004B
:101DF0004E524620756E62696E64204D4355000058
:101E00006C636420696E6974206F6B2100000000B0
:101E1000070100206F763737323520696E697420EC
:101E20006F6B21004553503832363620696E697425
:101E3000206F6B21000000006E726620696E69746D
:101E4000206F6B21000000007769666920696E6968
:101E500074206F6B21000000636F6E6E20696E69E5
:101E600074206F6B21000000400000201408014026
:101E7000737461727420706C617920706963000002
:101E8000CC050020656E6420706C617920706963F8
:101E90000000000014010020840100202BD119A5AE
:101EA00014221DA10BA802F0CDFD2048FFF711FE62
:101EB0001E4A1F4840781E490978CDE90102009169
:101EC0001B48C378827829461A4802F055FE184804
:101ED000407817490978CDE900101548C378827811
:101EE0000BA904A802F048FE04A8FFF7DEFD114884
:101EF00001F065FE00BF20210F48FEF734FFFFF719
:101F00005BFDD3E62A23232A256423256423256445
:101F10002325642325730000543A25642E2564206C
:101F2000483A25642E256425250000008401002000
:101F3000280000202001002000100140704700BF51
:101F4000FEE700BFFEE700BFFEE700BFFEE7704709
:101F50007047704710B500F0E1F800F0CFF80024AA
:101F60000CE03E4850F8240030B13C4850F82400C2
:101F7000401E3A4941F82400601CC4B2032CF0DB37
:101F800010BD10B540F225513548FFF7A5FCD8B17A
:101F90003348FFF721FCC4B23248B0F80004C0F364
:101FA0000E0040F2FF3188420EDA2E49B1F80014DB
:101FB000C1F30E00411C2B4AB2F8002461F30E025B
:101FC0002849A1F800240C5440F224412448FFF78A
:101FD00083FC012817D12348B0F8000420F4004006
:101FE00000F500401F49A1F800041D48FFF7F4FB6D
:101FF000C4B21DA11B4802F049FD08B1012000E058
:1020000000201C49087010BD10B50820FEF77EFAAC
:1020100010B31948007888B94FF480501749086008
:102020000820174908600120134908700820144946
:10203000086040021149091F08600AE00E48007854
:10204000012806D108200E49091D086002200A490E
:1020500008700820FEF76BFA10BD00001401002084
:1020600000480040CA010020434C4F5345440D0A2C
:10207000000000004000002007010020140801407B
:102080001014014030B52A4800684FF47A72B0FB52
:10209000F2F1B1F1807F01D301201DE021F07F40FA
:1020A000401E4FF0E022506150170F22002807DA3F
:1020B00013071D0E1F4B00F00F04241F1D5503E0D6
:1020C00013071C0E1C4B1C5400BF00204FF0E022D5
:1020D000906107201061002008B100BFFEE730BD0D
:1020E0001649086000BF154909680029FBD17047EF
:1020F00001461348006808600020704710480068D7
:10210000401C0F490860704701B50C4900980860F1
:1021100000BF0A4800680028FBD108BD07480068D6
:1021200020B106480068401E04490860704700005E
:102130000000002018ED00E000E400E0380000207E
:102140003C00002008B54FF4A060FEF7FDF8272002
:102150008DF8000000208DF801008DF802000120AC
:102160008DF803006846FEF7F4F808BD00B585B0A9
:1021700001218804FFF713F801210820FFF702F876
:102180004FF48060ADF8100018208DF81300032084
:102190008DF8120004A9F948FEF738FD4FF40060ED
:1021A000ADF8100004208DF8130004A9F348FEF7E1
:1021B0002DFD4FF4E13000900020ADF80400ADF8A3
:1021C0000600ADF80800ADF80C000C20ADF80A00D0
:1021D0006946EB48FFF703FA012240F22551E8482F
:1021E000FFF795FA012240F22441E548FFF78FFA04
:1021F000FFF7A8FF0121E248FFF77DFA05B000BD17
:1022000008B501210820FEF7BDFF4FF48070ADF83E
:10221000000010208DF8030003208DF802006946AD
:10222000D648FEF7F3FC01210820FEF7ABFF4FF480
:102230000070ADF800006946D048FEF7E7FC08BD25
:1022400010B5FFF7DDFFFFF791FF4FF40071CB48AA
:10225000FEF789FD4FF48071C848FEF786FD10BD7A
:1022600010B54FF40071C548FEF77FFD4FF4FA70CA
:10227000FFF74AFF4FF40071C048FEF774FD10BD30
:102280002DE9F04106460C4615461F46BD48B0F8FC
:1022900000046FF30E00BB49A1F800043246BAA156
:1022A000B74800F05AFB1CB915B90120BDE8F08110
:1022B0003846FFF729FF0020B249B1F80014C1F3F6
:1022C0000E01B04A5054B4B1ADB12146104602F0EF
:1022D000DDFB08B1012000E0002040B92946A948F3
:1022E00002F0D4FB08B1012000E0002008B1012079
:1022F000DCE70020DAE744B12146A24802F0C6FB41
:1023000008B10120D2E70020D0E729469D4802F01D
:10231000BDFB08B10120C9E70020C7E710B50024C4
:102320004FF400719548FEF71EFD4FF47A70FFF7E9
:10233000EBFE0CE04FF4FA73002295A195A0FFF795
:102340009FFF00B110BDFFF78BFF601CC4B20A2CC9
:10235000F0DB00BFF6E710B5044624B1012C0AD02B
:10236000022C18D10FE040F6C4138BA288A18DA0D7
:10237000FFF786FF10BD40F6C41387A284A18CA08E
:10238000FFF77EFFF6E740F6C41383A280A18BA07F
:10239000FFF776FFEEE70020ECE730B59FB004468C
:1023A0000D462B46224688A101A802F0E5FB41F22A
:1023B0008833002276A101A8FFF762FF1FB030BD6D
:1023C00070B5A0B004460D4616462B46224683A1A2
:1023D00002A8009602F0D0FB4FF47A7300226CA1A1
:1023E00002A8FFF74DFF20B070BD10B586B00446BF
:1023F0000CB1012000E0002002467EA101A802F0FD
:10240000BBFB4FF4FA73002261A101A8FFF738FF6C
:1024100006B010BDF0B5B9B006460F4614461D46CD
:10242000642120A802F027FB16B1012E10D107E08D
:102430003B4674A274A120A8009402F09DFB08E022
:102440003B4675A270A120A8009402F095FB00E025
:1024500000BF00BF052D06DA20AB2A466FA102A8F7
:1024600002F08AFB04E020AA71A102A802F084FB1A
:102470004FF47A6372A246A102A8FFF701FF39B0B8
:10248000F0BD70B5BCB004460D461646FCB12B46F7
:1024900001226FA11EA802F06FFB324671A16846AF
:1024A00002F06AFB4FF4FA73002239A11EA8FFF76D
:1024B000E7FE50B14FF4FA73002235A16846FFF7EA
:1024C000DFFE10B101203CB070BD0020FBE72B46C1
:1024D00000225FA11EA802F04FFB4FF4FA73002206
:1024E0002BA11EA8FFF7CCFEEDE710B54FF4FA7351
:1024F000002227A15FA0FFF7C3FEA0B161A1214880
:1025000002F0C4FA08B1022010BD61A11D4802F01A
:10251000BDFA08B10320F7E760A11A4802F0B6FA45
:1025200008B10420F0E70020EEE710B500244FF4D6
:10253000FA73002216A14FA0FFF7A2FE00281CD0BC
:1025400059A1104802F0A2FA10B144F0010401E0D0
:1025500024F0010458A10B4802F098FA10B144F09D
:10256000020401E024F0020457A1064802F08EFAAA
:1025700010B144F00404B1E0AEE0C3E0000C01404F
:1025800000480040CA01002025730D0A0000000029
:102590004F4B0000415400006E6F206368616E670E
:1025A0006500000041542B43574D4F44453D3100D9
:1025B00041542B43574D4F44453D320041542B432A
:1025C000574D4F44453D330041542B43574A4150EA
:1025D0003D222573222C22257322000041542B43D7
:1025E000575341503D222573222C222573222C3132
:1025F0002C25640041542B4349504D55583D2564CA
:102600000000000054435000222573222C22257321
:10261000222C2573000000005544500041542B43E8
:10262000495053544152543D25642C2573000000F9
:1026300041542B43495053544152543D257300009B
:10264000414C5245415920434F4E4E4543540000A2
:1026500041542B4349505345525645523D25642C15
:102660002573000041542B43495053544F3D25736B
:102670000000000041542B434950535441545553DA
:10268000000000005354415455533A320D0A0000E3
:102690005354415455533A330D0A00005354415496
:1026A00055533A340D0A00002B43495053544154BA
:1026B00055533A302C0000002B4349505354415499
:1026C00055533A312C0000002B4349505354415488
:1026D00055533A322C00000024F0040460A16448F1
:1026E00002F0D4F910B144F0080401E024F0080429
:1026F00060A15F4802F0CAF910B144F0100401E093
:1027000024F01004204610BD2DE9F04105460F4687
:102710004FF4FA730022AFF288115AA0FFF7B0FD10
:102720005BA1534802F0B2F906460EB1B61D02E0B5
:102730000020BDE8F081002409E0305D2855285DC7
:10274000222802D10020285503E0601CC4B2BC42FC
:10275000F3DB00BF0120ECE710B54FF4FA73002261
:10276000AFF2D4114CA0FFF78BFD08B9002010BDCB
:102770004FF4FA734CA2AFF2E8114CA0FFF780FDC2
:10278000F5E710B54FF47A70FFF7BEFC4AA14B484D
:1027900000F0E3F84FF4FA70FFF7B6FC10BD2DE936
:1027A000F04186B007460C4615461E464FF000081D
:1027B00047B12246AFF27C11404800F0CEF84FF00E
:1027C00001081CE0052E06DAAB1C32463CA101A82C
:1027D00002F0D2F904E0AA1C3EA101A802F0CCF953
:1027E0004FF47A7300223FA101A8FFF749FD4FF48F
:1027F0007A7300223CA12046FFF742FD8046404606
:1028000006B0BDE8F08170B5044600251848B0F860
:1028100000046FF30E001649A1F800040846B0F852
:10282000000420F40040A1F8000400BF1048B0F8F4
:102830000004C00B0028F9D000200D49B1F80014A5
:10284000C1F30E010A4A50540CB1154605E028A107
:10285000074802F01BF900B1054D284670BD000085
:102860002B4349505354415455533A332C000000E4
:10287000CA0100202B4349505354415455533A3414
:102880002C00000041542B434946535200000000E5
:10289000415049502C22000041542B4349504D4F88
:1028A00044453D31000000003E00000041542B43F0
:1028B000495053454E4400002B2B2B00004800404C
:1028C00041542B43495053454E443D25642C2564C7
:1028D0000000000041542B43495053454E443D25D0
:1028E000640000003E20000053454E44204F4B0042
:1028F0002B49504400000000F0B503460D46164633
:10290000002729460A2E03D0002008702846F0BD73
:1029100033B9302001F8010B002008702846F6E793
:10292000002B03DA2D2001F8010B5B4242F21072FA
:102930000DE093FBF2F404B937B104F1300001F873
:10294000010B04FB123301270A2092FBF0F2002A4C
:10295000EFDC002008702846D9E70FB470B586B0C8
:1029600006460CA8019073E00B9800785C281CD1F7
:102970000B98401C0B9000786E2809D072280FD15C
:102980000D213046FEF724FF0B98401C0B900BE006
:102990000A213046FEF71CFF0B98401C0B9003E009
:1029A0000B98401C0B9000BF4BE00B98007825283B
:1029B00040D10B98401C0B900078642818D07328E5
:1029C00033D1019810C801900BE021783046FEF712
:1029D000FFFE00BF80213046FEF768FF0028F9D0D7
:1029E000641C20780028F0D10B98401C0B9020E04C
:1029F000019820C801900A2202A92846FFF77CFF0F
:102A000002AC0BE021783046FEF7E2FE00BF8021E9
:102A10003046FEF74BFF0028F9D0641C20780028D0
:102A2000F0D10B98401C0B9003E00B98401C0B90CE
:102A300000BF06E00B9810F8011B0B903046FEF724
:102A4000C7FE00BF80213046FEF730FF0028F9D0D6
:102A50000B980078002887D106B070BC5DF814FB95
:102A60004FF0C04108807047FE4908807047FD481C
:102A70000088704701B502E00098401E0090009861
:102A80000028F9D108BD08B501216020FEF77AFBC6
:102A900003208DF8020018208DF803004FF48040C9
:102AA000ADF800006946F048FEF7B0F84FF400407A
:102AB000ADF800006946EC48FEF7A8F80120ADF833
:102AC00000006946E848FEF7A1F80220ADF80000D2
:102AD0006946E548FEF79AF88020ADF8000069469F
:102AE000E248FEF793F84FF48070ADF800006946B5
:102AF000DE48FEF78BF84FF40070ADF80000694631
:102B0000DA48FEF783F84FF48060ADF800006946BC
:102B1000D648FEF77BF84FF40060ADF80000694638
:102B2000D248FEF773F84FF48050ADF800006946C4
:102B3000CE48FEF76BF84FF40050ADF80000694640
:102B4000CA48FEF763F84FF48040ADF800006946CC
:102B5000C648FEF75BF84FF40040ADF80000694648
:102B6000C248FEF753F84FF48070ADF80000694694
:102B7000BD48FEF74BF84FF40070ADF80000694611
:102B8000B948FEF743F84FF48060ADF8000069469D
:102B9000B548FEF73BF803208DF8020018208DF8A9
:102BA00003001020ADF800006946AF48FEF72EF88C
:102BB0002020ADF800006946AB48FEF727F88020DA
:102BC000ADF800006946A848FEF720F84FF4006011
:102BD000ADF800006946A448FEF718F810208DF8FB
:102BE000030003208DF802000220ADF800006946C2
:102BF0009E48FEF70BF810208DF8030003208DF897
:102C000002004FF48050ADF8000069469648FDF789
:102C1000FDFF08BD00B597B001210802FEF7A5FA37
:102C2000012001900420039080060790002002906C
:102C30000490059006900890099008200A901020B2
:102C40000B9000200C900E900F9010904FF480503D
:102C50001190002012901390149001A815901690D6
:102C600008A8FDF7B9FC01210020FDF71DFE17B0F3
:102C700000BD10B5CF20FFF7F3FE0020FFF7F4FEF4
:102C80008120FFF7F1FE3020FFF7EEFEED20FFF789
:102C9000E7FE6420FFF7E8FE0320FFF7E5FE1220C1
:102CA000FFF7E2FE8120FFF7DFFEE820FFF7D8FE06
:102CB0008520FFF7D9FE1020FFF7D6FE7820FFF71A
:102CC000D3FECB20FFF7CCFE3920FFF7CDFE2C2022
:102CD000FFF7CAFE0020FFF7C7FE3420FFF7C4FE4F
:102CE0000220FFF7C1FEF720FFF7BAFE2020FFF712
:102CF000BBFEEA20FFF7B4FE0020FFF7B5FE002080
:102D0000FFF7B2FEB120FFF7ABFE0020FFF7ACFEED
:102D10001B20FFF7A9FEB620FFF7A2FE0A20FFF74F
:102D2000A3FEA220FFF7A0FEC020FFF799FE3520EA
:102D3000FFF79AFEC120FFF793FE1120FFF794FEE4
:102D4000C520FFF78DFE4520FFF78EFE4520FFF7DB
:102D50008BFEC720FFF784FEA220FFF785FEF2203E
:102D6000FFF77EFE0020FFF77FFE2620FFF778FEAC
:102D70000120FFF779FEE020FFF772FE0F20FFF73A
:102D800073FE2620FFF770FE2420FFF76DFE0B2058
:102D9000FFF76AFE0E20FFF767FE0920FFF764FECB
:102DA0005420FFF761FEA820FFF75EFE4620FFF7E4
:102DB0005BFE0C20FFF758FE1720FFF755FE092099
:102DC000FFF752FE0F20FFF74FFE0720FFF74CFEE4
:102DD0000020FFF749FEE120FFF742FE0020FFF749
:102DE00043FE1920FFF740FE1B20FFF73DFE0420A5
:102DF000FFF73AFE1020FFF737FE0720FFF734FEFB
:102E00002A20FFF731FE4720FFF72EFE3920FFF77B
:102E10002BFE0320FFF728FE0620FFF725FE0620E5
:102E2000FFF722FE3020FFF71FFE3820FFF71CFEC1
:102E30000F20FFF719FE3620FFF712FEC820FFF71C
:102E400013FE2A20FFF70CFE0020FFF70DFE0020E6
:102E5000FFF70AFE0020FFF707FEEF20FFF704FE52
:102E60002B2005E000000260001401400018014022
:102E7000FFF7F6FD0020FFF7F7FD0020FFF7F4FD58
:102E80000120FFF7F1FD3F20FFF7EEFD3A20FFF7AD
:102E9000E7FD5520FFF7E8FD1120FFF7E1FDFE48B3
:102EA000FFF7E8FD2920FFF7DBFD10BD00B5024666
:102EB000072A00DD00BDF9480270104602EBD07110
:102EC0004910A2EB410139B9F020F54908804FF4CF
:102ED000A070F449088006E04FF4A070F049088023
:102EE000F020F04908803620FFF7BAFD082141EABA
:102EF0004210FFF7B9FD2A20FFF7B2FD0020FFF7CF
:102F0000B3FD0020FFF7B0FDE5490988491EC1F374
:102F10000720FFF7A9FDE2490978491EC8B2FFF76B
:102F2000A3FD2B20FFF79CFD0020FFF79DFD002057
:102F3000FFF79AFDDB490988491EC1F30720FFF717
:102F400093FDD8490978491EC8B2FFF78DFD2C20A2
:102F5000FFF786FD00BFADE710B50221D248FDF7AF
:102F600004FF40F6FF20FFF785FD0221CE48FDF764
:102F7000FAFE40F6FF20FFF77DFD10BD10B50446B8
:102F80002CB14FF48051C948FDF7EFFE04E04FF437
:102F90008051C648FDF7E7FE10BD10B5FFF773FD81
:102FA000FFF738FE0120FFF7E9FFFFF7D5FFFFF736
:102FB00060FEBA480078FFF779FF10BD30B50446CF
:102FC0000D462A20FFF74CFD2012FFF74DFDE0B221
:102FD000FFF74AFDA118491EC1F30F20FFF744FD7A
:102FE000A118491EC8B2FFF73FFD2B20FFF738FD9F
:102FF0002812FFF739FDE8B2FFF736FDE918491E40
:10300000C1F30F20FFF730FDE918491EC8B2FFF7E2
:103010002BFD30BD30B504460D4601231A46294626
:103020002046FFF7CBFF30BD10B502460B4600240B
:103030002C20FFF715FD00BF03E01846FFF714FD35
:10304000641C9442F9D310BD2DE9F04106460F46A9
:1030500014461D462B46224639463046FFF7AEFF42
:1030600004FB05F092490988FFF7DEFFBDE8F08117
:1030700070B505460C468A48008885420CDA8948B6
:103080000088844208DA21462846FFF7C3FF8948B2
:1030900001880120FFF7C8FF70BD10B50022002392
:1030A00000242E20FFF7DCFCFFF7E1FC0246FFF7CF
:1030B000DEFC0246FFF7DBFC0446FFF7D8FC0346C4
:1030C000D012C002991240EA411040EAE42010BD3B
:1030D00070B504460D4629462046FFF79BFFFFF7D3
:1030E000DCFF0646304670BD2DE9FF4F83B08146B8
:1030F0004FF0000AD3460598A0EB090504990698FD
:10310000461ACDF8049004980090002D01DD0127A7
:1031100005E00DB9002702E04FF0FF376D42002EA9
:1031200002DD4FF0010806E016B94FF0000802E09A
:103130004FF0FF387642B54201DD2C4600E03446C0
:103140000020029019E0DDE90010FFF791FFAA448A
:10315000B344A24505DDAAEB040A0198384480B2C5
:103160000190A34505DDABEB040B0098404480B211
:1031700000900298401C80B20290611C0298884224
:10318000E1DD07B0BDE8F08F2DE9F04104460D46C2
:1031900016461F46DDF81880B8F1000F0CD03B46EC
:1031A000324629462046FFF709FF06FB07F0414952
:1031B0000988FFF739FF27E0A019401E82B22B468D
:1031C00029462046FFF790FFE819401E83B2A01958
:1031D000401E82B2E819401E81B22046FFF784FFEC
:1031E000E819401E83B2224629462046FFF77CFF9D
:1031F000E919491E8BB2A119491E8AB2A119491EAB
:1032000088B22946FFF770FFBDE8F0812DE9F05F35
:1032100005460E4691469B4600240FFA89F7032087
:10322000A0EB49000FFA80FA98E0BBF1000F51D0F3
:10323000A0464CE006EB080291B22A1990B2FFF7C3
:1032400017FF06EB080291B22A1B90B2FFF710FF9E
:10325000321991B2A5EB080290B2FFF709FF321BB9
:1032600091B2A5EB080290B2FFF702FFA6EB0802AD
:1032700091B22A1B90B2FFF7FBFEA6EB080291B2B7
:103280002A1990B2FFF7F4FE321B91B205EB080247
:1032900090B2FFF7EDFE0FE0FCBF020048000020F7
:1032A00044000020460000200018014000140140A6
:1032B0005200002050000020321991B205EB0802A4
:1032C00090B2FFF7D5FE08F101000FFA80F8B8457B
:1032D000B0DD2FE0F21991B22A1990B2FFF7C8FEC3
:1032E000F21991B22A1B90B2FFF7C2FE321991B2C5
:1032F000EA1B90B2FFF7BCFE321B91B2EA1B90B200
:10330000FFF7B6FEF21B91B22A1B90B2FFF7B0FE98
:10331000F21B91B22A1990B2FFF7AAFE321B91B2AA
:10332000EA1990B2FFF7A4FE321991B2EA1990B2ED
:10333000FFF79EFE601C04B2BAF1000F05DAA00090
:10334000801D50440FFA80FA07E0E01B80000A302D
:1033500050440FFA80FA781E07B200BFBC427FF7D4
:1033600064AFBDE8F09F2DE9F04F804689461646D0
:10337000A6F120001FFA80FA8049096889887F4AEF
:103380001268D28801FB02F0C11700EB5171C1F342
:10339000C7077A48006800680AFB070B774800688F
:1033A000C38876480068828849464046FFF706FE93
:1033B0002C20FFF755FB002416E0002510E01BF839
:1033C000040080212941084020B16D480088FFF7A2
:1033D0004BFB03E06B480088FFF746FB681CC5B257
:1033E000082DECDB601CC4B2BC42E6DBBDE8F08F0C
:1033F00070B504460D46002624E030465F49096852
:103400008988084460490988884205DD00265B48B0
:103410000068C088204484B2204658490968C98899
:1034200008445A490988884201DD002600242A7888
:1034300021463046FFF797FF6D1C50480068808892
:10344000304486B228780028D7D170BD70B50546C3
:103450000E46144624E028464849096889880844ED
:1034600049490988884205DD002544480068C0882C
:10347000304486B2304641490968C9880844434906
:103480000988884201DD0025002622783146284639
:10349000FFF769FF641C394800688088284485B2BA
:1034A00020780028D7D170BD70B505460E46144669
:1034B00024E0304631490968C988084433490988FD
:1034C000884205DD00262D4800688088284485B2A2
:1034D00028462A490968898808442B49098888426E
:1034E00001DD00250026227831462846FFF73BFF04
:1034F000641C22480068C088304486B220780028C6
:10350000D7D170BD1D49086070471C4800687047DE
:103510001B4A10801B4A11807047194A128802808A
:10352000184A12880A807047154908807047154963
:103530000880704770B50446FFF7E7FFC5882B4643
:103540001148028821460020FFF77EFD70BD10B5AE
:10355000FFF723FD0320FFF7A9FC0D48FFF7D2FF7B
:1035600000214FF47840FFF7D3FF0848038806484E
:10357000028800210846FFF767FD10BD4C000020BF
:10358000500000205200002044000020460000208F
:103590005400002010B50020FB4908704880888046
:1035A0004FF4A070C880FFF7B0FFC088C0F1F000F2
:1035B000F549088100204881FFF7A7FFC088F2493C
:1035C0008881032088730020C87308744874887445
:1035D000C87410BD08B501212C20FDF7D3FD1020C3
:1035E0008DF8030003208DF802000820ADF80000DC
:1035F0006946E648FDF70AFB4FF48050ADF800003D
:103600006946E248FDF702FB0420ADF80000694678
:10361000DE48FDF7FBFA2020ADF800006946DC48E3
:10362000FDF7F4FA0820ADF800006946D948FDF727
:10363000EDFA4FF47040ADF8000004208DF803005F
:1036400003208DF802006946D148FDF7DFFA4FF4F8
:103650007060ADF8000004208DF8030003208DF8A1
:1036600002006946CC48FDF7D1FA0820C749143159
:103670000860C8491031086008BD1FB5012141200C
:10368000FDF780FD0820ADF80C0004208DF80F0038
:1036900003208DF80E0003A9BF48FDF7B7FA0321F8
:1036A0000220FDF7C9FB0820019000208DF80800DA
:1036B0000C208DF8090001208DF80A0001A8FCF704
:1036C000BFFE0820FCF70BFF4FF4C060FCF73CFE88
:1036D00009208DF8000000208DF8010003208DF8EE
:1036E000020001208DF803006846FCF732FE1FBD82
:1036F00010B500F04DFBFFF76DFFFFF7BEFF10BDEB
:1037000038B50024002000908021122000F065FCD4
:1037100008B9002038BD0B220121684600F07DFC6D
:1037200008B90020F6E79DF80000212814D10024F4
:103730000DE09A4A02EB44025178984A12F81400BC
:1037400000F04BFC08B90020E4E7601C84B2944808
:1037500000788442EDDB01E00020DBE70120D9E7BF
:1037600010B50446062C79D2DFE804F003142D4688
:103770005F79FF21132000F030FC65210E2000F05E
:103780002CFC00212D2000F028FC00212E2000F030
:1037900024FC6EE0FD21132000F01FFC5A210120C3
:1037A00000F01BFC5C21022000F017FC65210E20BC
:1037B00000F013FC00212D2000F00FFC00212E2032
:1037C00000F00BFC55E0FD21132000F006FC582111
:1037D000012000F002FC6021022000F0FEFB6521C8
:1037E0000E2000F0FAFB00212D2000F0F6FB002156
:1037F0002E2000F0F2FB3CE0FD21132000F0EDFB59
:103800008421012000F0E9FB4C21022000F0E5FBBF
:1038100065210E2000F0E1FB00212D2000F0DDFBF2
:1038200000212E2000F0D9FB23E0FD21132000F021
:10383000D4FB9621012000F0D0FB4021022000F0B3
:10384000CCFB65210E2000F0C8FB00212D2000F0EC
:10385000C4FB00212E2000F0C0FB0AE008E0FF219D
:10386000132000F0BAFBE5210E2000F0B6FB00E0CB
:1038700000BF00BF10BD10B5044614F1040F0DDBEE
:10388000042C0BDC201D0007010EA72000F0A5FB77
:10389000201D0007010EA82000F09FFB10BD70B591
:1038A0000646301D092821D2DFE800F01D1A171442
:1038B000110E0B0805004824062518E038240625BB
:1038C00015E02824062512E0182406250FE0082418
:1038D00006250CE008240E2509E018240E2506E034
:1038E00028240E2503E038240E2500E000BF00BF89
:1038F00021469B2000F071FB2946AB2000F06DFBB8
:1039000070BD10B5044614F1040F0ADB042C08DC6A
:10391000C4F104003022A2EB8000C1B29C2000F070
:103920005CFB10BD10B50446072C67D2DFE804F03D
:1039300004111E3A475461000621A62000F04DFBF9
:103940008021602000F049FB8021612000F045FBD0
:1039500055E02621A62000F040FB8021602000F0E9
:103960003CFB8021612000F038FB48E01E21A620AE
:1039700000F033FBA021602000F02FFB40216120EC
:1039800000F02BFB3BE00000CC05002000080140CC
:10399000000C014000140140001001406C000020A8
:1039A000060100201E21A62000F017FB4021602008
:1039B00000F013FBA021612000F00FFB1FE01E218F
:1039C000A62000F00AFB8021602000F006FBC02149
:1039D000612000F002FB12E01E21A62000F0FDFA9B
:1039E0006021084600F0F9FA6021612000F0F5FA44
:1039F00005E04621A62000F0F0FA00E000BF00BF7D
:103A000010BD2DE9F84306460F4614461D46DDF865
:103A10002080B8F1000F04D14621122000F0DDFA19
:103A200003E00621122000F0D8FA1722012168468F
:103A300000F0F3FA9DF8000000EBA60000F0FF098B
:103A40004946172000F0C9FAC4F38701182000F096
:103A5000C4FA19220121684600F0DFFA9DF800003F
:103A600000EB670000F0FF094946192000F0B5FAA5
:103A7000C5F347011A2000F0B0FA3222012168464E
:103A800000F0CBFA04F003009DF80010084305F0A5
:103A9000010140EA810006F0030140EA011007F04D
:103AA000010140EA81194946322000F096FAC4F338
:103AB0008701292000F091FAC5F347012C2000F07E
:103AC0008CFA2A220121684600F0A7FA04F00300CC
:103AD0009DF80010084305F0010140EA81094946BC
:103AE0002A2000F07AFABDE8F8832DE9F84306466B
:103AF0000F4614461D460621122000F06EFA1722CA
:103B00000121684600F089FA9DF8000000EBA6004C
:103B100000F0FF084146172000F05FFAC4F3870168
:103B2000182000F05AFA19220121684600F075FAAF
:103B30009DF8000000EB670000F0FF0841461920E7
:103B400000F04BFAC5F347011A2000F046FA322282
:103B50000121684600F061FA04F003009DF80010AE
:103B6000084305F0010140EA810006F0030140EA44
:103B7000011007F0010140EA81184146192000F0C8
:103B80002CFAC4F38701292000F027FAC5F3470176
:103B90002C2000F022FA2A220121684600F03DFA8A
:103BA00004F003009DF80010084305F0010140EA0D
:103BB000810841462A2000F010FABDE8F88310B5CC
:103BC00004460523002221460120FEF7E8FD10BD32
:103BD0002DE9F047F6B081468A4616461F4600207A
:103BE0008DF8D4013B46324651464846FFF7E6F988
:103BF0002C20FEF735FF3B46324657A1684600F0C1
:103C0000BBFF6846FFF7DBFF4FF0000857E00024DA
:103C10004CE000BF002520205249086051480C3874
:103C2000006800F470405049896801F4706140EA0E
:103C3000010520204B49091F0860091D08604948FB
:103C40000C380068F02101EA102047498968C1F367
:103C500003210843054320204249091F086000BF93
:103C60002846FEF701FF05A901F81450280A012192
:103C700001EB440105AA505405A8005D20B905A830
:103C8000005D401C05A90855012000EB440005A972
:103C9000085C48B9012000EB4400085C401C01218D
:103CA00001EB440105AA5054601C84B2BC42B0DB55
:103CB00005A8FFF784FF08F101001FFA80F8B0455E
:103CC000A5DB2AA0FFF77BFF76B0BDE8F08738B50B
:103CD0000024FFF75FFCFFF70BFD0EE0601CC4B291
:103CE000052C0ADDFFF711FCC0884004050C20A15B
:103CF0002846FFF77DFB00BFFEE7FFF701FD012827
:103D0000ECD12249C87CFFF70DFE2049C87BFFF7A4
:103D100027FD1E4991F91000FFF7ADFD1B4991F9F0
:103D20001100FFF7BCFD194991F91200FFF7E9FDF9
:103D30001649C87CFFF7F6FD14480078134D009033
:103D40002B89EA88A9886888FFF75BFE2946887B6B
:103D5000FFF7ACF838BD00002A232A232564232569
:103D600064230000140C01400010014023230000D4
:103D70004E6F204F5637373235206D6F64756C6546
:103D8000206465746563746564210000CC050020BF
:103D900008B501210420FDF7F5F94FF40060ADF8F6
:103DA000000003208DF8020014208DF803006946FE
:103DB000B848FCF72BFF01211020FDF7E3F9802024
:103DC000ADF800006946B448FCF720FF08BD4FF489
:103DD000C87001E0411E88B20028FBD1704710B5C1
:103DE0008021AD48FCF7BFFF4FF40061A948FCF704
:103DF000BAFFFFF7ECFF8021A748FCF79AFF08B94C
:103E0000002010BD8021A448FCF7AFFFFFF7DFFFC3
:103E10008021A148FCF78DFF08B10020F1E7802147
:103E20009D48FCF7A2FFFFF7D2FF0120E9E710B59C
:103E30004FF400619748FCF798FFFFF7C8FF802117
:103E40009548FCF792FFFFF7C2FF4FF400619148DD
:103E5000FCF789FFFFF7BBFF80218F48FCF783FF4A
:103E6000FFF7B5FF10BD10B54FF400618948FCF7AE
:103E70007CFFFFF7ACFF80218748FCF776FFFFF758
:103E8000A6FF4FF400618348FCF76DFFFFF79FFF2B
:103E90004FF400617F48FCF768FFFFF798FF10BD03
:103EA00010B54FF400617B48FCF75FFFFFF78FFF11
:103EB00080217948FCF757FFFFF789FF4FF4006135
:103EC0007448FCF750FFFFF782FF4FF40061714820
:103ED000FCF74BFFFFF77BFF10BD10B54FF40061FF
:103EE0006C48FCF742FFFFF772FF80216A48FCF73D
:103EF0003AFFFFF76CFF4FF400616648FCF733FFB1
:103F0000FFF765FF80216448FCF713FF30B14FF4E1
:103F100000616048FCF729FF002010BD4FF40061EC
:103F20005C48FCF722FF0120F7E770B5044608253E
:103F30001DE04FF400615748FCF717FFFFF747FFFC
:103F400004F0800020B180215348FCF70CFF03E00F
:103F500080215148FCF709FF6006040EFFF737FF88
:103F60004FF400614B48FCF7FEFEFFF730FF2800DE
:103F7000A5F10101CDB2DCD14FF400614548FCF759
:103F8000F4FE70BD70B50825002480214248FCF77E
:103F9000EAFE16E06006040E4FF400613D48FCF7AF
:103FA000E4FEFFF714FF4FF400613A48FCF7DBFE34
:103FB000FFF70DFF80213848FCF7BBFE08B144F045
:103FC00001042800A5F10101CDB2E3D14FF4006155
:103FD0003048FCF7CAFE204670BD70B504460D4659
:103FE000FFF7FDFE08B9002070BD4220FFF79DFFDE
:103FF000FFF773FF18B9FFF71AFF0020F4E7E0B2EC
:10400000FFF793FFFFF769FF2846FFF78EFFFFF7E3
:1040100064FFFFF70CFF0120E6E770B505460C468C
:104020001646FFF7DCFE08B9002070BD4220FFF7FE
:104030007CFFFFF752FF18B9FFF7F9FE0020F4E705
:104040003046FFF772FFFFF748FFFFF7F0FEFFF77C
:10405000C6FE08B90020E8E74320FFF766FFFFF738
:104060003CFF18B9FFF7E3FE0020DEE70CE0FFF7A6
:1040700089FF2870012C02D1FFF712FF01E0FFF742
:10408000F2FE6D1C601E84B2002CF0D1FFF7CFFE53
:104090000120CAE7000801400010014008B50121D5
:1040A0000820FDF76FF82020ADF8000010208DF8F3
:1040B000030003208DF8020069460F48FCF7A6FDB7
:1040C0000120ADF8000069460B48FCF79FFD022077
:1040D000ADF8000069460848FCF798FD2021064825
:1040E000FCF741FE01210448FCF73DFE0221024895
:1040F000FCF739FE08BD0000000C014001B502E0EC
:104100000098401E009000980028F9D108BD00B525
:1041100087B001211420FDF735F801210803FDF7D0
:1041200031F8E020ADF8040001208DF806001820D9
:104130008DF8070001A9FE48FCF768FD4020ADF8A6
:10414000040001208DF8060010208DF8070001A959
:10415000F848FCF75BFD2020ADF8040001208DF845
:10416000060010208DF8070001A9F248FCF74EFD6B
:104170001020ADF8040001208DF8060048208DF8CD
:10418000070001A9EB48FCF741FD4021E948FCF795
:10419000EAFD0020ADF808004FF48270ADF80A0087
:1041A0000020ADF80C00ADF80E00ADF810004FF493
:1041B0000070ADF812001020ADF814000020ADF82A
:1041C00016000720ADF8180002A9DB48FDF764F8D7
:1041D0000121D948FDF705F907B000BD10B5044627
:1041E00000BF0221D448FDF780F90028F9D021460C
:1041F000D148FDF727F900BF0121CF48FDF775F938
:104200000028F9D0CC48FDF71FF9C0B210BD70B539
:1042100005460C462021C748FCF7A7FD4021C548AC
:10422000FCF7A3FD2846FFF7D9FF06462046FFF717
:10423000D5FF4021BF48FCF796FD304670BD70B5F4
:1042400004462021BB48FCF790FD4021B948FCF70B
:104250008CFD2046FFF7C2FFFF20FFF7BFFF05469A
:104260004021B448FCF77FFD284670BD2DE9F041A0
:1042700007460D4616462021AE48FCF776FD402144
:10428000AC48FCF772FD3846FFF7A8FF80460024D3
:1042900005E0FF20FFF7A2FF2855601CC4B2B4421E
:1042A000F7DB4021A348FCF75EFD4046BDE8F08106
:1042B0002DE9F04107460C46154620219D48FCF7A4
:1042C00054FD40219B48FCF750FD3846FFF786FF20
:1042D0008046002605E014F8010BFFF77FFF701CF5
:1042E000C6B2AE42F7DB40219248FCF73CFD4046A7
:1042F000BDE8F08110B520218E48FCF736FD05227F
:104300008E492A20FFF7D4FF01212120FFF77FFFEC
:1043100001212220FFF77BFF88212520FFF777FF6F
:1043200020213120FFF773FF0F212620FFF76FFFB9
:104330000F212020FFF76BFF20217E48FCF713FDA3
:1043400010BD10B520217B48FCF70FFD05227C49EC
:104350003020FFF7ADFF052278492A20FFF7A8FF9C
:1043600001212120FFF753FF01212220FFF74FFFFA
:104370001A212420FFF74BFF28212520FFF747FFB4
:104380000F212620FFF743FF0E212020FFF73FFFDC
:1043900020216848FCF7E7FC4FF6FF70FFF7AEFE00
:1043A00010BD1FB567A103C9CDE90201052202A90D
:1043B0003020FFF77DFF052269461020FFF756FFEA
:1043C000002406E01DF80400C22800D003E0601CB1
:1043D000C4B2052CF6DB00BF052C02D1012004B0CD
:1043E00010BD0020FBE770B5054620215148FCF7C1
:1043F000BCFC20222946A020FFF75AFF20214D486F
:10440000FCF7B1FC00BF10214A48FCF792FC0028E1
:10441000F9D10720FFF713FF044621462720FFF7B5
:10442000F6FEFF21E120FFF7F2FE04F0100008B1D4
:10443000102070BD04F0200008B12020F9E7002012
:10444000F7E770B5044620213A48FCF78EFC0720B8
:10445000FFF7F5FE054629462720FFF7D8FE05F0B1
:10446000400050B1202221466120FFF7FFFEFF21CE
:10447000E220FFF7CCFE402070BD0020FCE700B535
:1044800087B001211820FCF77DFE01218803FCF78D
:1044900086FE4FF46040ADF8040001208DF8060060
:1044A00018208DF8070001A92848FCF7AFFB4FF44E
:1044B0008070ADF8040001208DF8060010208DF802
:1044C000070001A92148FCF7A1FB8020ADF80400FA
:1044D00001208DF8060010208DF8070001A915486D
:1044E000FCF794FB0820ADF8040001208DF80600CD
:1044F00048208DF8070001A91448FCF787FB4FF40A
:1045000080711248FCF72FFC0020ADF808004FF432
:104510008270ADF80A000020ADF80C00ADF80E0076
:10452000ADF810004FF40070ADF8120010200FE04D
:104530000008014000100140003001400D01002042
:1045400008010020C2C2C2C2C2000000000C01402B
:10455000ADF814000020ADF816000720ADF81800E3
:1045600002A9B948FCF798FE0121B748FCF739FFCA
:1045700007B000BD10B5044600BF0221B248FCF7E9
:10458000B4FF0028F9D02146AF48FCF75BFF00BF1D
:104590000121AD48FCF7A9FF0028F9D0AA48FCF793
:1045A00053FFC0B210BD70B505460C468021A74828
:1045B000FCF7DBFB4FF48071A548FCF7D6FB2846DF
:1045C000FFF7D8FF06462046FFF7D4FF4FF480716F
:1045D0009F48FCF7C8FB304670BD70B5044680218B
:1045E0009A48FCF7C2FB4FF480719948FCF7BDFB79
:1045F0002046FFF7BFFFFF20FFF7BCFF05464FF443
:1046000080719348FCF7AFFB284670BD2DE9F0415F
:1046100007460D46164680218C48FCF7A6FB4FF452
:1046200080718B48FCF7A1FB3846FFF7A3FF80465B
:10463000002405E0FF20FFF79DFF2855601CC4B251
:10464000B442F7DB4FF480718148FCF78CFB4046A5
:10465000BDE8F0812DE9F04107460C461546802162
:104660007A48FCF782FB4FF480717948FCF77DFBB8
:104670003846FFF77FFF8046002605E014F8010B5F
:10468000FFF778FF701CC6B2AE42F7DB4FF48071C3
:104690006F48FCF768FB4046BDE8F08110B580210B
:1046A0006A48FCF762FB05226A492A20FFF7D2FF1D
:1046B00001212120FFF777FF01212220FFF773FF5F
:1046C00028212520FFF76FFF20213120FFF76BFF06
:1046D0000F212620FFF767FF0F212020FFF763FF40
:1046E00080215A48FCF73FFB10BD10B58021574888
:1046F000FCF73BFB052258493020FFF7ABFF0522B2
:1047000054492A20FFF7A6FF01212120FFF74BFF84
:1047100001212220FFF747FF1A212420FFF743FF42
:1047200028212520FFF73FFF0F212620FFF73BFF21
:104730000E212020FFF737FF80214448FCF713FBB0
:104740004FF6FF70FFF7DAFC10BD1FB5AFF20C217A
:1047500003C9CDE90201052202A93020FFF77AFF43
:10476000052269461020FFF751FF002406E01DF8DE
:104770000400C22800D003E0601CC4B2052CF6DBA4
:1047800000BF052C02D1012004B010BD0020FBE7C2
:1047900070B5054680212D48FCF7E7FA202229460E
:1047A000A020FFF757FF80212848FCF7DCFA00BF64
:1047B0004FF480512648FCF7BCFA0028F8D10720B6
:1047C000FFF70BFF044621462720FFF7ECFEFF21F1
:1047D000E120FFF7E8FE04F0100008B1102070BDE2
:1047E00004F0200008B12020F9E70020F7E770B5B9
:1047F000054680211548FCF7B6FA1BE080211348D6
:10480000FCF7B3FA0720FFF7E8FE0446214627200D
:10481000FFF7C9FE04F0400050B120222946612074
:10482000FFF7F4FEFF21E220FFF7BDFE402070BD40
:104830000020FCE74FF480510548FCF77AFA002885
:10484000DCD00020F3E700000038004000100140F9
:10485000000C01400D0100200801002008B50121D5
:104860004020FCF78FFC4020ADF8000010208DF8B0
:10487000030003208DF8020069465148FCF7C6F991
:1048800008BD10B5FFF7EAFF40214D48FCF76BFA71
:1048900010BD08B54020ADF8000048208DF8030099
:1048A00069464748FCF7B2F908BD08B54020ADF8A5
:1048B000000010208DF8030003208DF802006946E7
:1048C0003F48FCF7A3F908BD70B50025002424E09B
:1048D00000BF40213A48FCF72CFA0028F9D02820E4
:1048E00000F082F840213648FCF723FA01280DD168
:1048F00000BF40213248FCF71CFA0128F9D0C4F16E
:10490000070101208840C0B2054304E0C4F107015B
:10491000012088408543601CC4B2082CD8DB28469F
:1049200070BD10B50446FFF7C0FF40212448FCF7D6
:104930001CFA44F2506000F057F840212048FCF780
:1049400012FA1E2000F050F8FFF7A3FF40211C4888
:10495000FCF7EFF980BB00BF40211948FCF7E9F9EB
:104960000028F9D000BF40211548FCF7E2F90128E2
:10497000F9D0FFF7A9FF2070FFF7A6FF6070FFF7DF
:10498000A3FFA070FFF7A0FFE070FFF79DFF20716D
:10499000FFF78BFF40210A48FCF7E5F920786178A2
:1049A0000844A1780844E17808442179884201D17B
:1049B000012010BD0020FCE7FFE70020F9E7000020
:1049C000001801401B48006840F0807019490860D9
:1049D0000020194948600846006840F0010008605E
:1049E000704715484068704731B50024FFF7EAFF6B
:1049F000124800681249B0FBF1F0009900FB01F584
:104A000000BFFFF7EEFF034611E0FFF7EAFF0246A3
:104A10009A420CD09A4202D9D01A044403E0C3F15E
:104A2000FF30104404441346AC4200D300E0ECE7EE
:104A300000BF38BDFCED00E0001000E000000020E9
:104A400040420F0040EA01039B0703D009E008C978
:104A5000121F08C0042AFAD203E011F8013B00F843
:104A6000013B521EF9D27047D2B201E000F8012B8F
:104A7000491EFBD270470022F6E710B513460A46DE
:104A800004461946FFF7F0FF204610BD30B5054635
:104A90002A460B4612F8010B13F8014B08B1A0424D
:104AA000F8D01CB1002802D06D1CF1E7284630BDBB
:104AB0002DE9F05F0546002092469B468846064653
:104AC000814640241BE0284641464746224600F0E6
:104AD00042F853465A46C01A914110D3114618461F
:104AE000224600F029F82D1A67EB01084F462246AE
:104AF0000120002100F020F817EB00094E41201E94
:104B0000A4F10104DFDC484631462A464346BDE8AD
:104B1000F09F0000064C074D06E0E06840F00103FE
:104B200094E8070098471034AC42F6D3FBF704FB37
:104B30008C8B0008AC8B0008202A04DB203A00FA9A
:104B400002F1002070479140C2F1200320FA03F3E4
:104B5000194390407047202A04DB203A21FA02F0E2
:104B60000021704721FA02F3D040C2F120029140A7
:104B700008431946704700000FB4084B10B504A94C
:104B800002AA039800F01CF8044602A9002000F0D5
:104B900048FA204610BC5DF814FB000023500008C2
:104BA00002E008C8121F08C1002AFAD170477047F6
:104BB000002001E001C1121F002AFBD17047000054
:104BC0002DE9FF4F8DB00F460546002606E025284B
:104BD0000BD0DDE90F1290476D1C761C2878002859
:104BE000F5D111B03046BDE8F08F0024A246A146B1
:104BF0000122EC4900E0044315F8013F203B02FA92
:104C000003F00842F7D128782A2810D06FF02F023D
:104C10002878A0F13001092914D80AEB8A0102EBA7
:104C2000410144F0020400EB010A6D1CF0E701CFE2
:104C30005FEA000A03D544F40054CAF1000A44F0C4
:104C400002046D1C28782E2817D115F8010F44F0A6
:104C500004042A280ED06FF02F022878A0F130012A
:104C600009290AD809EB890102EB410100EB01098E
:104C70006D1CF2E757F8049B6D1C28786C280FD048
:104C800006DC4C2817D068280DD06A2814D104E01F
:104C9000742810D07A280FD10DE044F400140AE0F3
:104CA00044F4801401E044F440146978814202D154
:104CB00004F580146D1C6D1C2A786E2A1FD00CDC44
:104CC000632A31D004DC002A8BD0582A11D1A3E00A
:104CD000642A68D0692A0CD165E0732A2ED004DCDE
:104CE0006F2A73D0702A04D19BE0752A6FD0782A7E
:104CF0006ED01046DDE90F129047761C50E1C4F3E8
:104D00000250022806D0032809D0042801CF09D078
:104D1000066045E101CFF117C0E9006140E101CF34
:104D200006803DE106703BE117F8040B8DF80000AA
:104D300000208DF80100EB46012003E057F804BB8A
:104D40004FF0FF3061074FF0000102D40DE008F191
:104D50000101884649450FDA8045F8DB1BF8081049
:104D60000029F4D108E008F1010188468142FADB0C
:104D70001BF808100029F6D1DDE90F23AAEB080083
:104D80008146214600F036F9304400EB080604E085
:104D9000DDE90F121BF8010B9047B8F10108F7D2BB
:104DA00021464846F7E00A21C4F302534FF0000BB6
:104DB0000891022B04D001CFC117032B09D00AE0C0
:104DC000FF1D27F00707F7E8020108E032E01FE0C7
:104DD00020E000B2C117042B01D140B2C117031E5D
:104DE00071F1000307DA4FF0000CD0EB0C006CEB14
:104DF00001012D2302E0230504D52B238DF8243057
:104E0000012303E0E30701D02023F7E7984658E0A9
:104E10000A2110E010210EE010204FF0000B089046
:104E20000CE010214FF0000B44F004044FF008098F
:104E3000089103E008214FF0000B0891C4F30253DE
:104E4000022B04D001CF0021032B06D006E0FF1D6A
:104E500027F00707F7E8020103E080B2042B00D136
:104E6000C0B24FF0000823072BD5702A07D0DDF819
:104E700020C08CF0100C5CEA0B0C05D00EE0402337
:104E80008DF82430012308E050EA010306D03023D6
:104E90008DF824308DF8252002239846DDF820C0B7
:104EA0008CF0080C5CEA0B0C0BD150EA010301D129
:104EB000630706D530238DF824304FF00108A9F19F
:104EC0000109582A04D038A20B9208AA0A920BE0D2
:104ED0003AA2F9E75B46089AFFF7EAFD0B9B9B5C59
:104EE0000A9A521E0A92137050EA0102F2D10A98ED
:104EF000ADEB000000F1200B600702D524F48034F4
:104F000001E04FF00109D94502DDA9EB0B0000E0FB
:104F1000002000EB0B0141440890AAEB010AE003DA
:104F200006D4DDE90F232146504600F063F806441D
:104F30004FF0000908E009A911F80900DDE90F1296
:104F4000904709F10109761CC145F4DBE0030CD55B
:104F5000DDE90F232146504600F04CF8064404E0FA
:104F6000DDE90F1230209047761C0899481E089002
:104F70000029F5DC08E00A980A990078491C0A9192
:104F8000DDE90F129047761CBBF10001ABF1010B7C
:104F9000F1DC21465046DDE90F2300F019F8064404
:104FA0006D1C1BE6092801003031323334353637A9
:104FB0003839616263646566000000003031323365
:104FC0003435363738394142434445460000000005
:104FD0002DE9F041044600251E461746880404D4F6
:104FE00005E039462020B0476D1C641EF9D52846DF
:104FF000BDE8F0812DE9F041044600251E469046AB
:10500000C80301D5302700E02027880404D505E037
:1050100041463846B0476D1C641EF9D52846BDE8A8
:10502000F0810A68531C0B6010707047000000008C
:105030000000000000000000000000000000001858
:10504000181818181808000818000000000000348C
:1050500024242400000000000000000000000000E4
:1050600016247F2424247E2424000000000000084D
:105070003E6848681C1612127C1010000000006187
:10508000D296740810162949C600000000000000DE
:105090003C646438724ACE467F000000000000186D
:1050A00018181800000000000000000000000004B4
:1050B000081810303030301010180C040000002098
:1050C0001008080C0404040C081810200000000844
:1050D0000A341C6A08000000000000000000000004
:1050E00000001818187F18181800000000000000B1
:1050F0000000000000000018180830000000000048
:1051000000000000003C0000000000000000000063
:10511000000000000000001818000000000000025D
:1051200006040C08081010202040000000000000B9
:105130003C6642475B7342663C0000000000000092
:1051400018784808080808087E00000000000000E1
:105150003C460606040810207E0000000000000007
:105160007C0606043C0202067C00000000000000F1
:105170000C1C14246444FF04040000000000000020
:105180007E6060607E0202067C000000000000007D
:105190001E306048764242623C0000000000000081
:1051A0007E0206040C081810300000000000000009
:1051B0003C6242361C6642423C0000000000000097
:1051C0003C664242661A02047800000000000000BB
:1051D000000018180000001818000000000000006F
:1051E0000000181800000018180830000000000027
:1051F000000004183060100C0600000000000000E1
:10520000000000007E007E000000000000000000A2
:105210000000301804060C102000000000000030D0
:105220001C06060618100010100000000000001CEC
:10523000224141DDB5A5A5AF94C0403C000000006F
:10524000181C342426627E43C100000000000000C8
:105250007C4642467C4242427C0000000000000046
:105260001E204040404040603E0000000000000022
:105270007C46424343434246780000000000000061
:105280007E6060607E6060607E0000000000000064
:105290007E6060607E606060600000000000000072
:1052A0001E604040CE4242623E000000000000000E
:1052B000424242427E424242420000000000000060
:1052C0007E181818181818187E000000000000003A
:1052D0007C0404040404044478000000000000007E
:1052E0004244485070584C44420000000000000006
:1052F00020202020202020203E0000000000000070
:105300006266675F5B5BC1C1C10000000000000016
:10531000626272525A4A4E46460000000000000087
:105320003C6243C3C3C343623C0000000000000072
:105330007C464242467840404000000000000000A9
:105340003C6243C3C3C343623C180F00000000002B
:105350007C6662667C6C646662000000000000008F
:105360003E6040601C0602027C000000000000005D
:105370007F181818181818181800000000000000EE
:1053800042424242424242623C00000000000000B1
:10539000C14342622624341C1800000000000000B3
:1053A000C1C141495B5B76666600000000000000F9
:1053B00043663418181C2466C30000000000000077
:1053C000C14266341C1818181800000000000000C4
:1053D0007E02040C181020607E0000000000001CFB
:1053E00010101010101010101010101C00000040B1
:1053F0002020101008080C04060200000000003CE9
:105400000C0C0C0C0C0C0C0C0C0C0C3C00000000DC
:10541000181C2462000000000000000000000000D2
:105420000000000000000000000000FF000000205D
:10543000100000000000000000000000000000005C
:1054400000003C06023E42467A0000000000004098
:1054500040405C62424242427C000000000000008A
:1054600000001E20604060203E000000000000029E
:1054700002023E62424242663A0000000000000022
:1054800000003C62427E40603E0000000000000FD1
:105490001810107E10101010100000000000000006
:1054A00000003F66426658403E43423C00000040D8
:1054B00040405C624242424242000000000000184C
:1054C00018007808080808087E00000000000004A2
:1054D0000C007C040404040404040C780000006044
:1054E0006060626C787068646200000000000078A0
:1054F00008080808080808087E00000000000000EE
:105500000000764B4B4B4B4B4B0000000000000063
:1055100000005C6242424242420000000000000083
:1055200000003C62424342623C0000000000000078
:1055300000005C62424242427C4040400000000069
:1055400000003E62424242663A020202000000004F
:1055500000006E7263606060600000000000000088
:1055600000003E20203C06027C00000000000000FD
:105570001010FE10101010101E000000000000009F
:1055800000004242424242663A0000000000000031
:105590000000434266243418180000000000000098
:1055A0000000C1C15B5A5E6666000000000000009A
:1055B000000062261C181C2662000000000000008B
:1055C000000043426624341C181830E0000000003C
:1055D00000007E060C1810207E0000000000000E67
:1055E00018101010307010101010180E000008085D
:1055F000080808080808080808080808000000301B
:10560000180808080C0E08080808183000000000E8
:1056100000000000714B06000000000000000000C8
:10562000000000000000000000000000000000007A
:10563000000000000000000000000000000000006A
:10564000000000000000000000000000000000005A
:1056500000000000000003800180018001800180C3
:10566000018001800180018001800000000003C0F2
:1056700003C0000000000000000000000000000067
:105680000000000000000E700E700E700C30000064
:10569000000000000000000000000000000000000A
:1056A00000000000000000000000000000000000FA
:1056B00000000000000000000618063806307FFEDB
:1056C0000C300C300C300C307FFE0C601C6018600D
:1056D0001860000000000000000000000000000052
:1056E0000000000000C000C00FF83CC831C031808D
:1056F0003D801F8003F001F8031C030C031C3FF8DE
:105700003FE007000600000000000000000000006D
:10571000000000001C007E0E630C631863307E6086
:1057200000C001800300077C0EE61CC618C630C608
:10573000607C00000000000000000000000000008D
:105740000000000000000FE01CF0387038701C6092
:105750001FC00F003F8C71CC60EC607C70383CFC4B
:105760001FCE00000000000000000000000000004C
:1057700000000000000003C00180018001800000E3
:105780000000000000000000000000000000000019
:105790000000000000000000000000000000000009
:1057A00000000000003000E001C00180030007009D
:1057B000060006000E000E000E000E000600070098
:1057C0000300038001C000E0003000000000000082
:1057D000000000000C0006000380018001C000E012
:1057E000006000600070007000700060006000E009
:1057F00000C00180038006000C00000000000000D3
:10580000000000000000018011881DB803C007E0FF
:105810003DBC018801800000000000000000000085
:105820000000000000000000000000000000000078
:105830000000000000000000000000000180018066
:105840000180018001807FFE018001800180018054
:105850000000000000000000000000000000000048
:105860000000000000000000000000000000000038
:1058700000000000000000000000000003C003C0A2
:1058800001C001C003801F000000000000000000F4
:105890000000000000000000000000000000000008
:1058A0000000000000000FF00000000000000000F9
:1058B00000000000000000000000000000000000E8
:1058C00000000000000000000000000000000000D8
:1058D00000000000000000000000000003C003C042
:1058E00003C00000000000000000000000000000F5
:1058F000000000000000001800380030006000E0E8
:1059000000C001C001800300030006000E000C006F
:105910001C00180030000000000000000000000023
:1059200000000000000001800FF01C38381C301C03
:10593000707E70EE738E7E0E7C0C300C381C1E78E0
:105940000FE0000000000000000000000000000068
:10595000000000000000000007C01FC039C001C0E7
:1059600001C001C001C001C001C001C001C03FFCB5
:105970003FFC0000000000000000000000000000EC
:1059800000000000000003801FF0183800380018E5
:1059900000380038007001E0038007001C003FFC65
:1059A0003FFC0000000000000000000000000000BC
:1059B00000000000000007801FF0003800380038A9
:1059C000003007E007F00038001C001C001820F829
:1059D0003FE00000000000000000000000000000A8
:1059E000000000000000000000F001B003300730AC
:1059F0000E301C30383070307FFE7FFE00300030BB
:105A00000030000000000000000000000000000066
:105A100000000000000000001FF818001800180027
:105A200018001FE000F8001C001C001C003800F0EB
:105A30001FC0000000000000000000000000000087
:105A4000000000000000000003F80F001C00180018
:105A5000300037F83C3C300C300C380C381C1E3809
:105A60000FF0000000000000000000000000000037
:105A700000000000000000003FFC001C001800387F
:105A80000070006000E001C0018003800700060094
:105A90000E000000000000000000000000000000F8
:105AA00000000000000003C01FF8381C381C381C20
:105AB0001C380FF007F01C78381C300C381C3C38B0
:105AC0000FF00000000000000000000000000000D7
:105AD00000000000000003801FF03838301C701CEC
