:020000040800F2
:10000000B0040020450100081D1500081F15000858
:1000100023150008271500082B1500080000000014
:100020000000000000000000000000002F15000884
:1000300031150008000000003315000835150008D0
:100040005F0100085F0100085F0100085F01000810
:100050005F0100085F0100085F0100085F01000800
:100060005F0100085F0100085F0100085F010008F0
:100070005F0100085F0100085F0100085F010008E0
:100080005F0100085F0100085F0100085F010008D0
:100090005F0100085F0100085F0100085F010008C0
:1000A0005F0100085F0100085F0100085F010008B0
:1000B0005F0100085F0100085F0100085F010008A0
:1000C0005F0100085F0100085F0100085F01000890
:1000D0005F0100085F0100085F0100085F01000880
:1000E0005F0100085F0100085F0100085F01000870
:1000F0005F0100085F0100085F0100085F01000860
:100100005F0100085F0100085F0100085F0100084F
:100110005F0100085F0100085F0100085F0100083F
:100120005F0100085F0100085F0100085F0100082F
:10013000DFF80CD002F040FB004800473B140008F9
:10014000B00400200648804706480047FEE7FEE767
:10015000FEE7FEE7FEE7FEE7FEE7FEE7FEE7FEE777
:1001600047020008310100080CB500200190009002
:100170006C48006840F480306A49086000BF6948F4
:10018000006800F4003000900198401C0190009835
:1001900018B90198B0F5A06FF1D16248006800F479
:1001A000003010B10120009001E000200090009884
:1001B000012843D15C48006840F010005A490860AB
:1001C0000846006820F0030008600846006840F018
:1001D0000200086053484068524948600846406839
:1001E00048600846406840F48060486008464068BF
:1001F00020F47C1048600846406840F4E8104860ED
:100200000846006840F08070086000BF45480068FC
:1002100000F000700028F9D04248406820F0030048
:10022000404948600846406840F00200486000BF0E
:100230003C48406800F00C000828F9D10CBD10B50E
:10024000FFF792FF10BD10B53648006840F001007E
:1002500034490860084640683449084031494860DC
:1002600008460068324908402E4908600846006880
:1002700020F4802008600846406820F4FE004860B2
:100280004FF41F008860FFF7DAFF4FF00060294944
:10029000086010BD10B5002100200022214B5B68D2
:1002A00003F00C0121B1042906D0082928D107E068
:1002B000214B224C236027E01F4B204C236023E07E
:1002C000184B5B6803F47010164B5B6803F48032C4
:1002D000022303EB904022B9194B4343174C236090
:1002E0000DE0104B5B6803F4003323B1144B434320
:1002F000124C236003E0104B4343104C236003E097
:100300000D4B0E4C236000BF00BF064B5B68C3F370
:1003100003130C4CE15C094B1B68CB40074C23607A
:1003200010BD000000100240002002400000FFF855
:10033000FFFFF6FE08ED00E000127A00000000204A
:1003400000093D000400002030B943F2DB028100C7
:10035000A1F1C0410A6005E043F2D2028100A1F19F
:10036000C0410A606FF07042411C8900A1F1C04198
:100370000A608100A1F1C041C1F804217047102832
:100380000AD118214FF020421166402151664FF0EA
:10039000FC319166D16610E01821F74A11604021C6
:1003A0004FF02042C2F884104FF0FC31F24A08327C
:1003B00011604FF02042C2F88C1070471820EE49AF
:1003C0002031086000200906C1F8A4004FF0FC307D
:1003D000E94928310860091D0860091D0860704757
:1003E000D0E901121143C268114302691143426905
:1003F000114382691143C2691143026A1143426A7F
:100400001143826A1143C26A1143026B11430268AD
:100410009200A2F1C0421160816808290BD10168E5
:100420008900A1F1C041096841F0400201688900DA
:10043000A1F1C0410A60416B0968426B526841EA10
:100440000211426B926841EA0221426B928941EAB1
:100450000241426B128A41EA0251426B127D41EA2B
:100460000261426B926911430268521C9200A2F130
:10047000C0421160C16AB1F5804F1BD1816B096820
:10048000826B526841EA0211826B926841EA022152
:10049000826B128A41EA0251826B127D41EA02614B
:1004A000826B9269114302689200A2F1C042C2F8C5
:1004B000041107E06FF0704201688900A1F1C041AA
:1004C000C1F80421704730B50021002200234468A0
:1004D00044F0080485682C43C5682C4305692C4307
:1004E000456944EA4524856944EA4531C46924687C
:1004F000C5696D6844EA0524C5692D8944EA054447
:10050000C5692D7B44EA0562046A2468056A6D6842
:1005100044EA0524056A2D8944EA0544056A2D7BD1
:1005200044EA05630468102C05D14FF0204421668D
:10053000A266E36608E0904C21604FF02044C4F8C6
:1005400088208D4C0C34236030BD016841F01001CF
:10055000426841EA4221826841EA4231864A2032B9
:100560001160C1680968C268526841EA0221C26824
:10057000128941EA0241C268127B41EA02617E4A65
:1005800028321160016909680269526841EA022152
:100590000269128941EA02410269127B41EA026161
:1005A000754A2C321160416909684269526841EA12
:1005B00002214269128941EA02414269127B41EA01
:1005C00002614FF02042C2F8B01070470021016074
:1005D0000221416000218160C1600161416181614E
:1005E000C16101624FF48051416249008162002182
:1005F000C16201630F21426B1160426B5160FF21A8
:10060000426B91600F21426BD160426B1161426B72
:1006100051610021426B91610F21826B1160826BED
:100620005160FF21826B91600F21826BD160826BE0
:100630001161826B51610021826B916170471021C1
:100640000160002141608160C1600161416181619F
:10065000FC21C2691160C2695160C2699160C269BE
:10066000D160026A1160026A5160026A9160026A96
:10067000D16070470021016041608160FC21C26847
:100680001160C2685160C2689160C268D16002693D
:10069000116002695160026991600269D16042692A
:1006A000116042695160426991604269D16070474E
:1006B00051B18200A2F1C042126842F001038200EF
:1006C000A2F1C042136009E08200A2F1C0421268A8
:1006D0002A4B1A408300A3F1C0431A60704799B1B6
:1006E000102808D14FF02042126E42F004024FF061
:1006F00020431A661DE0204A126842F004024FF0BF
:100700002043C3F8802014E0102809D14FF0204284
:10071000126E1A4BDB1E1A404FF020431A6608E097
:10072000154A1268154BDB1E1A404FF02043C3F8E0
:100730008020704748B110492031096841F0040118
:100740004FF02042C2F8A01009E00B49203109689F
:100750000A4AD21E11404FF02042C2F8A010704742
:10076000B9B110280CD14FF02042126E42F0400275
:100770004FF020431A661FE0800000A0FEFF0F002C
:10078000724A126842F040024FF02043C3F88020C2
:1007900012E0102808D14FF02042126E6C4B1A4024
:1007A0004FF020431A6607E0684A1268684B1A4007
:1007B0004FF02043C3F880207047014600201029E5
:1007C00003D14FF02042506F02E0604A14321068AB
:1007D000704710B5F2B1102807D14FF020435B6E7F
:1007E0000B434FF02044636632E0B0F5807F08D1C0
:1007F000564B1B1D1B680B434FF02044C4F884303C
:1008000026E0524B24331B680B434FF02044C4F8BE
:10081000A4301DE0102807D14FF020435B6E8B43BE
:100820004FF02044636613E0B0F5807F08D1474B5A
:100830001B1D1B688B434FF02044C4F8843007E035
:10084000424B24331B688B434FF02044C4F8A43040
:1008500010BD10B5024600200023102A03D14FF02E
:100860002044636E09E0B2F5807F03D1374C241D2C
:10087000236802E0354C2434236803EA01040CB1F8
:10088000012000E0002010BD102807D14FF02042C9
:10089000526E8A434FF020435A6613E0B0F5807FD2
:1008A00008D12A4A121D12688A434FF02043C3F828
:1008B000842007E0254A243212688A434FF02043FF
:1008C000C3F8A420704770B502460020002300241E
:1008D0000025102A03D14FF02046736E09E0B2F5CF
:1008E000807F03D1194E361D336802E0174E24363F
:1008F000336803EA010403EAD10514B10DB1012004
:1009000000E0002070BD102808D14FF02042526E48
:1009100022EAD1024FF020435A6615E0B0F5807FFD
:1009200009D10A4A121D126822EAD1024FF020436F
:10093000C3F8842008E0054A2432126822EAD10272
:100940004FF02043C3F8A42070470000800000A0AF
:10095000BFFF0F0010B50446CC48844208D10121E6
:10096000042000F02DFB0021042000F029FB46E0CC
:10097000C748844208D10121082000F021FB002152
:10098000082000F01DFB3AE0C248844208D1012152
:10099000102000F015FB0021102000F011FB2EE0CC
:1009A000BD48844208D10121202000F009FB00212C
:1009B000202000F005FB22E0B848844208D1012144
:1009C000402000F0FDFA0021402000F0F9FA16E086
:1009D000B348844208D10121802000F0F1FA0021BF
:1009E000802000F0EDFA0AE0AE48844207D10121F0
:1009F000801500F0E5FA0021A01500F0E1FA10BD25
:100A000010B50121084600F0DBFA0021012000F0BA
:100A1000D7FA10BD2DE9F04102460025002600203E
:100A200000230024002791F803C00CF00F0591F873
:100A300003C00CF0100CBCF1000F03D091F802C001
:100A40004CEA050591F800C0BCF1000F31D01468E4
:100A500000202BE04FF0010C0CFA00F3B1F800C0BD
:100A60000CEA03069E4220D183004FF00F0C0CFAD3
:100A700003F7BC4305FA03FC4CEA040491F803C0F5
:100A8000BCF1280F06D14FF0010C0CFA00FCC2F8A3
:100A900014C00AE091F803C0BCF1480F05D14FF033
:100AA000010C0CFA00FCC2F810C0401C0828D1D37D
:100AB0001460B1F800C0BCF1FF0F34DD54680020B1
:100AC0002EE000F1080C4FF0010808FA0CF3B1F821
:100AD00000C00CEA03069E4221D183004FF00F0CA8
:100AE0000CFA03F7BC4305FA03FC4CEA040491F842
:100AF00003C0BCF1280F05D100F1080C08FA0CF86E
:100B0000C2F8148091F803C0BCF1480F07D100F17E
:100B1000080C4FF0010808FA0CF8C2F81080401CCD
:100B20000828CED35460BDE8F0814FF6FF710180F4
:100B3000022181700421C170704702460020936831
:100B40000B400BB1012000E000207047014688688F
:100B500080B2704702460020D3680B400BB10120E1
:100B600000E0002070470146C86880B2704701610C
:100B70007047416170470AB1016100E0416170470F
:100B8000C16070474FF480320A43826181618261A3
:100B900082698269704702460020434B18684FF60D
:100BA0008073184040EA021008433F4B18607047BA
:100BB0003E49C8617047F0B50A4600230024002171
:100BC000002500F00046B6F1004F02D1364EF16923
:100BD00001E0354E7168C0F3034583B200F440165E
:100BE000B6F5401F08D121F070612F4E766826F0CF
:100BF00070662D4F7E6012E000F48016B6F5801FFF
:100C000006D1032606FA05F4A14341F0706106E01F
:100C1000460D360103FA06F6B14341F0706122B188
:100C2000460D360103FA06F6314300F00046B6F1F0
:100C3000004F02D11C4EF16101E01B4E7160F0BD0E
:100C400030B500228B071C0F0F2303FA04F2164B5A
:100C500008338C1053F824309343134C08348D1010
:100C600044F8253023468C1053F824308C07240F89
:100C700000FA04F423430C4C08348D1044F825305A
:100C800030BD0A49DC3108607047000000080140AF
:100C9000000C014000100140001401400018014008
:100CA000001C0140002001400000014000002042E3
:100CB000DF48006840F00100DD49086008464068F0
:100CC000DC490840DA49486008460068DA490840CB
:100CD000D74908600846006820F48020086008466C
:100CE000406820F4FE0048604FF41F0088607047A1
:100CF000CF49096821F48031CD4A11601146096855
:100D000021F480211160B0F5803F03D0B0F5802F31
:100D10000ED106E0C649096841F48031C44A116029
:100D200007E0C349096841F4A021C14A116000E00D
:100D300000BF00BF704710B501460022002300200D
:100D40004A11012A02D1BA4C236806E0022A02D1D4
:100D5000B74C236A01E0B64C636A01F01F0201241C
:100D600094401C400CB1012000E0002010BD38B5BB
:100D7000002000900024002500BF3120FFF7DBFF9A
:100D800005460098401C00900098B0F5A06F01D077
:100D9000002DF2D03120FFF7CEFF08B1012400E092
:100DA0000024204638BD01460020A14A106820F0EA
:100DB000F80040EAC10010607047A0490860704721
:100DC000024600209A4B586820F47C1042EA010346
:100DD0001843974B5860704798490866704701461A
:100DE0000020934A506820F0030008435060704789
:100DF0008F48406800F00C007047014600208C4A84
:100E0000506820F0F0000843506070470146002011
:100E1000874A506820F4E0600843506070470146FC
:100E20000020834A506820F4605040EAC1005060BE
:100E3000704729B17E4A527A02437D4B5A7204E0D0
:100E40007B4A527A82437A4B5A7270477B49D83137
:100E50000860704701460020754A506820F4404001
:100E60000843506070470021714A20321170704A67
:100E700082F82010012802D004280AD104E00121C0
:100E80006B4A2032117005E00521694A2032117049
:100E900000E000BF00BF70476949086070476449BF
:100EA000096A0143624A1162704765494439086022
:100EB000704730B500210022002400235C4D6D688E
:100EC00005F00C0121B1042905D0082923D105E042
:100ED0005C4D056022E05B4D05601FE0544D6D6880
:100EE00005F47012524D6D6805F48034022505EB4F
:100EF00092421CB9544D554305600BE04C4D6D6852
:100F000005F400351DB1504D5543056002E04D4DCF
:100F10005543056002E04B4D056000BF00BF444DE6
:100F20006D6805F0F0010909484D6B5C0568DD400E
:100F300045603F4D6D6805F4E061090A434D6B5C07
:100F40004568DD4085603A4D6D6805F46051C90A19
:100F50003E4D6B5C4568DD40C560354D6D6805F400
:100F60004041890B3A4D6B5CC568B5FBF3F50561F3
:100F700030BD29B12E4A526902432D4B5A6104E01B
:100F80002B4A526982432A4B5A61704729B1284A39
:100F900092690243264B9A6104E0254A9269824392
:100FA000234B9A61704729B1214AD2690243204BF1
:100FB000DA6104E01E4AD26982431D4BDA61704750
:100FC00029B11B4AD2680243194BDA6004E0184A7F
:100FD000D2688243164BDA60704729B1144A12690D
:100FE0000243134B1A6104E0114A12698243104B09
:100FF0001A61704712494039086070470F49C86448
:1010000070470B49C87170470948406A40F08070CA
:1010100007494862704701460020054A92680A4025
:101020000AB1012000E00020704701498872704732
:10103000001002400000FFF8FFFFF6FE00004242F1
:101040008004424200127A0000093D001400002092
:101050002400002010B50446BE48844208D1012176
:101060008014FFF7ADFF0021A014FFF7A9FF16E0E1
:10107000B948844208D101210014FFF7AEFF0021D6
:101080002014FFF7AAFF0AE0B448844207D10121E7
:10109000C013FFF7A2FF0021E013FFF79EFF10BD72
:1010A00010B50022028802F441520B884C88234379
:1010B0008C882343CC8823430C8923434C892343C6
:1010C0008C892343CC8923431A430280838B4FF2BC
:1010D000FF74234083830B8A038210BD2DE9F04FF8
:1010E00085B005460C464FF0000902274FF0000876
:1010F0004FF0010B0026B246A88B4FF2400108408A
:10110000A88302202884B5F81C90A068022801D189
:1011100000BF38E0A08810B94FF0010B01E04FF09C
:10112000020B8D48854200D100E000BF6846FFF702
:10113000C0FEDDF800A0E088B0F5007F0AD14FEADC
:101140001A2000EB80004000A168B0FBF1F0401DC8
:1011500086B20BE04FEA4B10BAFBF0F000EB8000D8
:101160004000A168B0FBF1F0401D86B20A20B6FB3A
:10117000F0F606F00108A6EB0800C0F34F074FF6A3
:10118000FF7000EA0828022F01DBFF2F02DD022793
:101190004FF00008E08840EA080038432884A0881F
:1011A000A1890843618808432188084340F400600E
:1011B00040EA0909A5F81C9005B0BDE8F08F0021B0
:1011C000018041808180C180018141818181C18113
:1011D0000721018270470021018041808180C18008
:1011E0000221816000218181704721B1028842F093
:1011F0004002028004E002884FF6BF731A4002806A
:10120000704721B1828B42F48062828304E0828B3A
:101210004FF6FF331A408283704730B50024002315
:101220000C110125A540ABB21AB185881D438580FC
:1012300002E085889D43858030BD1AB183880B43C9
:10124000838002E083888B4383807047818170476D
:101250000146888970474FF6FF62914204D00288A8
:1012600042F48072028004E002884FF6FF631A4065
:101270000280704721B1828842F00402828004E03B
:1012800082884FF6FB731A408280704702884FF2C3
:10129000FF731A40028002880A4302807047018867
:1012A00041F480510180704721B1028842F400521C
:1012B000028004E002884DF6FF731A4002807047F6
:1012C00002460020012901D0108B00E0908A70476F
:1012D0000146088A7047B1F5804F04D1028842F474
:1012E0008042028004E002884BF6FF731A400280BD
:1012F00070470246002013890B400BB1012000E02B
:1013000000207047CA4302817047F0B502460020B2
:1013100000240023002501F00F070126BE40B4B2CF
:101320000B1101269E40B3B2968806EA0305168982
:10133000264016B10DB1012000E00020F0BD10B52F
:10134000002201F00F040123A3409AB2D34303818A
:1013500010BD00000030014000380040003C00405B
:101360000EB500F03CFA4B49087008460078012899
:1013700007D101F0DFF9C48847A1204601F04DF9FB
:1013800008E001F0D7F9C4884BA1204601F045F9E7
:1013900000BFFEE700F0CCF94EE010214D48FFF70A
:1013A000CCFB002848D14C4800F069FA3949087054
:1013B0000846007840283BD100204849086033E0C7
:1013C00046480068032101EB80004349085C43491B
:1013D0000968022202EB81013F4A515C3F4A1268D0
:1013E000012303EB82023C4B9A5CCDE90021029081
:1013F0003A480068194611F82030384838A1026888
:101400003E4801F0FBF901F095F9C088334909889D
:10141000891C484384B23949204601F0FEF82F4820
:101420000068401C2D4908602C4800680828C7DB6C
:1014300020212848FFF79BFBAFE700F0C0FE062005
:1014400000F046FE2E4801F072F900214FF478407A
:1014500001F073F92B4803882B48028800210846C5
:1014600000F008FF00F071F801F064F9002427A1F2
:10147000204601F0D2F8FFF773FF002107E00022B9
:1014800001E0531CDAB26E2AFBDB4B1CD9B281425D
:10149000F5DB7047280000204E524620414E442084
:1014A0004D435520434F4E4E4543542053554343DF
:1014B00045535320000000004E524620414E442028
:1014C0004D435520434F4E4E454354204552524FB5
:1014D0005220000000100140680000203000002071
:1014E0006C696E6520256420646174612025642C1C
:1014F00025642C25642C2564000000008800002051
:10150000400000205A000020580000204E52463271
:10151000344C30312054455354200000704700BFF4
:10152000FEE700BFFEE700BFFEE700BFFEE7704733
:10153000704770477047000001B502E00098401EF8
:10154000009000980028F9D108BD00B587B00121AE
:101550001420FFF71BFD01210803FFF717FDE02012
:10156000ADF8040001208DF8060018208DF8070062
:1015700001A9FE48FFF74EFA4020ADF80400012013
:101580008DF8060010208DF8070001A9F848FFF734
:1015900041FA2020ADF8040001208DF8060010204B
:1015A0008DF8070001A9F248FFF734FA1020ADF8D2
:1015B000040001208DF8060048208DF8070001A9DD
:1015C000EB48FFF727FA4021E948FFF7D0FA00205F
:1015D000ADF808004FF48270ADF80A000020ADF8B5
:1015E0000C00ADF80E00ADF810004FF40070ADF82F
:1015F00012001020ADF814000020ADF816000720EE
:10160000ADF8180002A9DB48FFF74AFD0121D948CF
:10161000FFF7EBFD07B000BD10B5044600BF022187
:10162000D448FFF766FE0028F9D02146D148FFF7DD
:101630000DFE00BF0121CF48FFF75BFE0028F9D067
:10164000CC48FFF705FEC0B210BD70B505460C468C
:101650002021C748FFF78DFA4021C548FFF789FAD6
:101660002846FFF7D9FF06462046FFF7D5FF402161
:10167000BF48FFF77CFA304670BD70B504462021A4
:10168000BB48FFF776FA4021B948FFF772FA2046C7
:10169000FFF7C2FFFF20FFF7BFFF05464021B44818
:1016A000FFF765FA284670BD2DE9F04107460D4663
:1016B00016462021AE48FFF75CFA4021AC48FFF700
:1016C00058FA3846FFF7A8FF8046002405E0FF20BF
:1016D000FFF7A2FF2855601CC4B2B442F7DB4021DB
:1016E000A348FFF744FA4046BDE8F0812DE9F041F8
:1016F00007460C46154620219D48FFF73AFA40213F
:101700009B48FFF736FA3846FFF786FF80460026EB
:1017100005E014F8010BFFF77FFF701CC6B2AE4264
:10172000F7DB40219248FFF722FA4046BDE8F081FE
:1017300010B520218E48FFF71CFA05228E492A2079
:10174000FFF7D4FF01212120FFF77FFF0121222095
:10175000FFF77BFF88212520FFF777FF202131202D
:10176000FFF773FF0F212620FFF76FFF0F212020C7
:10177000FFF76BFF20217E48FFF7F9F910BD10B588
:1017800020217B48FFF7F5F905227C493020FFF73F
:10179000ADFF052278492A20FFF7A8FF012121206B
:1017A000FFF753FF01212220FFF74FFF1A212420CA
:1017B000FFF74BFF28212520FFF747FF0F212620A9
:1017C000FFF743FF0E212020FFF73FFF202168484D
:1017D000FFF7CDF94FF6FF70FFF7AEFE10BD1FB556
:1017E00067A103C9CDE90201052202A93020FFF754
:1017F0007DFF052269461020FFF756FF002406E012
:101800001DF80400C22800D003E0601CC4B2052CFF
:10181000F6DB00BF052C02D1012004B010BD002072
:10182000FBE770B5054620215148FFF7A2F92022B9
:101830002946A020FFF75AFF20214D48FFF797F9CE
:1018400000BF10214A48FFF778F90028F9D1072096
:10185000FFF713FF044621462720FFF7F6FEFF217E
:10186000E120FFF7F2FE04F0100008B1102070BD77
:1018700004F0200008B12020F9E70020F7E770B558
:10188000044620213A48FFF774F90720FFF7F5FED8
:10189000054629462720FFF7D8FE05F0400050B145
:1018A000202221466120FFF7FFFEFF21E220FFF703
:1018B000CCFE402070BD0020FCE700B587B00121C0
:1018C0001820FFF763FB01218803FFF76CFB4FF43F
:1018D0006040ADF8040001208DF8060018208DF856
:1018E000070001A92848FFF795F84FF48070ADF87C
:1018F000040001208DF8060010208DF8070001A9D2
:101900002148FFF787F88020ADF8040001208DF80A
:10191000060010208DF8070001A91548FFF77AF896
:101920000820ADF8040001208DF8060048208DF84D
:10193000070001A91448FFF76DF84FF480711248B1
:10194000FFF715F90020ADF808004FF48270ADF8EC
:101950000A000020ADF80C00ADF80E00ADF8100044
:101960004FF40070ADF8120010200FE000080140A5
:1019700000100140003001403900002034000020F8
:10198000C2C2C2C2C2000000000C0140ADF8140087
:101990000020ADF816000720ADF8180002A9B948DC
:1019A000FFF77EFB0121B748FFF71FFC07B000BD22
:1019B00010B5044600BF0221B248FFF79AFC002888
:1019C000F9D02146AF48FFF741FC00BF0121AD48E7
:1019D000FFF78FFC0028F9D0AA48FFF739FCC0B206
:1019E00010BD70B505460C468021A748FFF7C1F829
:1019F0004FF48071A548FFF7BCF82846FFF7D8FFE1
:101A000006462046FFF7D4FF4FF480719F48FFF74A
:101A1000AEF8304670BD70B5044680219A48FFF795
:101A2000A8F84FF480719948FFF7A3F82046FFF714
:101A3000BFFFFF20FFF7BCFF05464FF480719348BE
:101A4000FFF795F8284670BD2DE9F04107460D4691
:101A5000164680218C48FFF78CF84FF480718B4834
:101A6000FFF787F83846FFF7A3FF8046002405E01C
:101A7000FF20FFF79DFF2855601CC4B2B442F7DB7E
:101A80004FF480718148FFF772F84046BDE8F0815D
:101A90002DE9F04107460C46154680217A48FFF7AC
:101AA00068F84FF480717948FFF763F83846FFF71C
:101AB0007FFF8046002605E014F8010BFFF778FF52
:101AC000701CC6B2AE42F7DB4FF480716F48FFF76F
:101AD0004EF84046BDE8F08110B580216A48FFF716
:101AE00048F805226A492A20FFF7D2FF0121212068
:101AF000FFF777FF01212220FFF773FF2821252020
:101B0000FFF76FFF20213120FFF76BFF0F21262009
:101B1000FFF767FF0F212020FFF763FF80215A485E
:101B2000FFF725F810BD10B580215748FFF721F8C1
:101B3000052258493020FFF7ABFF052254492A20DF
:101B4000FFF7A6FF01212120FFF74BFF01212220F3
:101B5000FFF747FF1A212420FFF743FF2821252004
:101B6000FFF73FFF0F212620FFF73BFF0E2120202C
:101B7000FFF737FF80214448FEF7F9FF4FF6FF706B
:101B8000FFF7DAFC10BD1FB5AFF20C2103C9CDE998
:101B90000201052202A93020FFF77AFF05226946DB
:101BA0001020FFF751FF002406E01DF80400C228B2
:101BB00000D003E0601CC4B2052CF6DB00BF052C8E
:101BC00002D1012004B010BD0020FBE770B505462E
:101BD00080212D48FEF7CDFF20222946A020FFF7C7
:101BE00057FF80212848FEF7C2FF00BF4FF4805105
:101BF0002648FEF7A2FF0028F8D10720FFF70BFFC9
:101C0000044621462720FFF7ECFEFF21E120FFF7E5
:101C1000E8FE04F0100008B1102070BD04F02000B0
:101C200008B12020F9E70020F7E770B505468021CC
:101C30001548FEF79CFF1BE080211348FEF799FF33
:101C40000720FFF7E8FE044621462720FFF7C9FEDC
:101C500004F0400050B1202229466120FFF7F4FE35
:101C6000FF21E220FFF7BDFE402070BD0020FCE711
:101C70004FF480510548FEF760FF0028DCD00020BB
:101C8000F3E700000038004000100140000C014064
:101C9000390000203400002001B502E00098401E09
:101CA000009000980028F9D108BD08B501216020F6
:101CB000FFF76CF903208DF8020018208DF803005F
:101CC0004FF48040ADF800006946FE48FEF7A2FEE2
:101CD0004FF40040ADF800006946FA48FEF79AFE5E
:101CE0000120ADF800006946F648FEF793FE022099
:101CF000ADF800006946F348FEF78CFE8020ADF891
:101D000000006946F048FEF785FE4FF48070ADF89C
:101D100000006946EC48FEF77DFE4FF40070ADF818
:101D200000006946E848FEF775FE4FF48060ADF8A4
:101D300000006946E448FEF76DFE4FF40060ADF820
:101D400000006946E048FEF765FE4FF48050ADF8AC
:101D500000006946DC48FEF75DFE4FF40050ADF828
:101D600000006946D848FEF755FE4FF48040ADF8B4
:101D700000006946D448FEF74DFE4FF40040ADF830
:101D800000006946D048FEF745FE4FF48070ADF87C
:101D900000006946CB48FEF73DFE4FF40070ADF8F9
:101DA00000006946C748FEF735FE4FF48060ADF885
:101DB00000006946C348FEF72DFE03208DF802009F
:101DC00018208DF803001020ADF800006946BD48CA
:101DD000FEF720FE2020ADF800006946B948FEF766
:101DE00019FE8020ADF800006946B648FEF712FEE5
:101DF0004FF40060ADF800006946B248FEF70AFEF5
:101E000010208DF8030003208DF802000220ADF8A9
:101E100000006946AC48FEF7FDFD10208DF8030078
:101E200003208DF802004FF48050ADF800006946A1
:101E3000A448FEF7EFFD08BD00B597B001210802E8
:101E4000FFF797F801200190042003908006079087
:101E500000200290049005900690089009900820B8
:101E60000A9010200B9000200C900E900F90109074
:101E70004FF480501190002012901390149001A8FC
:101E80001590169008A8FEF7ABFA01210020FEF786
:101E90000FFC17B000BD10B5CF2000F0A5FC00204E
:101EA00000F0A6FC812000F0A3FC302000F0A0FC94
:101EB000ED2000F099FC642000F09AFC032000F073
:101EC00097FC122000F094FC812000F091FCE820A7
:101ED00000F08AFC852000F08BFC102000F088FCCC
:101EE000782000F085FCCB2000F07EFC392000F04B
:101EF0007FFC2C2000F07CFC002000F079FC3420DA
:101F000000F076FC022000F073FCF72000F06CFC7F
:101F1000202000F06DFCEA2000F066FC002000F0BC
:101F200067FC002000F064FCB12000F05DFC0020A4
:101F300000F05EFC1B2000F05BFCB62000F054FCBF
:101F40000A2000F055FCA22000F052FCC02000F056
:101F50004BFC352000F04CFCC12000F045FC11206A
:101F600000F046FCC52000F03FFC452000F040FC9E
:101F7000452000F03DFCC72000F036FCA22000F018
:101F800037FCF22000F030FC002000F031FC26206D
:101F900000F02AFC012000F02BFCE02000F024FCE3
:101FA0000F2000F025FC262000F022FC242000F069
:101FB0001FFC0B2000F01CFC0E2000F019FC092077
:101FC00000F016FC542000F013FCA82000F010FCD8
:101FD000462000F00DFC0C2000F00AFC172000F059
:101FE00007FC092000F004FC0F2000F001FC072092
:101FF00000F0FEFB002000F0FBFBE12000F0F4FB12
:10200000002000F0F5FB192000F0F2FB1B2000F08F
:10201000EFFB042000F0ECFB102000F0E9FB0720B0
:1020200000F0E6FB2A2000F0E3FB472000F0E0FB95
:10203000392000F0DDFB032000F0DAFB062000F081
:10204000D7FB062000F0D4FB302000F0D1FB382075
:1020500000F0CEFB0F2000F0CBFB362000F0C4FBDD
:10206000C82000F0C5FB2A2000F0BEFB002000F0D5
:10207000BFFB002000F0BCFB002000F0B9FBEF200C
:1020800000F0B6FB2B2000F0AFFB002000F0B0FB0F
:10209000002000F0ADFB012000F0AAFB3F2000F083
:1020A000A7FB3A2000F0A0FB552000F0A1FB112077
:1020B00000F09AFB0548FFF7EFFD292000F094FBA4
:1020C00010BD00000014014000180140FCBF0200D8
:1020D00010B50446072C00DD10BDFE4804702046F4
:1020E00004EBD0714910A4EB410139B9F020FA4951
:1020F00008804FF4A070F949088006E04FF4A07002
:10210000F5490880F020F5490880362000F06CFB86
:10211000082141EA441000F06BFB2A2000F064FB28
:10212000002000F065FB002000F062FBEA4909880E
:10213000491EC1F3072000F05BFBE7490978491EFF
:10214000C8B200F055FB2B2000F04EFB002000F041
:102150004FFB002000F04CFBE0490988491EC1F309
:10216000072000F045FBDD490978491EC8B200F0A0
:102170003FFB2C2000F038FB00BFADE710B502217B
:10218000D748FEF7F6FC40F6FF20FFF785FD022159
:10219000D348FEF7ECFC40F6FF20FFF77DFD10BDB5
:1021A00010B504462CB14FF48051CE48FEF7E1FC47
:1021B00004E04FF48051CB48FEF7D9FC10BD10B5B8
:1021C000FFF773FDFFF738FE0120FFF7E9FFFFF788
:1021D000D5FFFFF760FEBF480078FFF779FF10BD1D
:1021E0002DE9F04104460D4616461F462A2000F010
:1021F000FBFA201200F0FCFAE0B200F0F9FAA119A3
:10220000491EC1F30F2000F0F3FAA119491EC8B20C
:1022100000F0EEFA2B2000F0E7FA281200F0E8FABE
:10222000E8B200F0E5FAE919491EC1F30F2000F009
:10223000DFFAE919491EC8B200F0DAFABDE8F08108
:1022400070B504460D4601231A4629462046FFF77D
:10225000C7FF70BD70B504460D4600262C2000F067
:10226000C3FA00BF03E0284600F0C2FA761CA6427B
:10227000F9D370BD2DE9F04106460F4614461D46C0
:102280002B46224639463046FFF7AAFF04FB05F0ED
:1022900095490988FFF7DEFFBDE8F08170B5054676
:1022A0000C468D48008885420CDA8C4800888442B0
:1022B00008DA21462846FFF7C3FF8C480188012031
:1022C000FFF7C8FF70BD70B50024002500262E2042
:1022D00000F08AFA00F082FA044600F07FFA044621
:1022E00000F07CFA064600F079FA0546E012C002DA
:1022F000A91240EA411040EAE62070BD70B50446DC
:102300000D4629462046FFF79BFFFFF7DCFF0646F8
:10231000304670BD2DE9FF4F83B081464FF0000A73
:10232000D3460598A0EB090504990698461ACDF8FE
:10233000049004980090002D01DD012705E00DB9FF
:10234000002702E04FF0FF376D42002E02DD4FF014
:10235000010806E016B94FF0000802E04FF0FF3820
:102360007642B54201DD2C4600E034460020029062
:1023700019E0DDE90010FFF791FFAA44B344A2453C
:1023800005DDAAEB040A0198384480B20190A34508
:1023900005DDABEB040B0098404480B2009002983E
:1023A000401C80B20290611C02988842E1DD07B0B7
:1023B000BDE8F08F2DE9F04104460D4616461F4654
:1023C000DDF81880B8F1000F0CD03B4632462946A4
:1023D0002046FFF705FF06FB07F044490988FFF791
:1023E00039FF27E0A019401E82B22B46294620461D
:1023F000FFF790FFE819401E83B2A019401E82B279
:10240000E819401E81B22046FFF784FFE819401EFC
:1024100083B2224629462046FFF77CFFE919491E70
:102420008BB2A119491E8AB2A119491E88B2294648
:10243000FFF770FFBDE8F0812DE9F05F05460E461D
:1024400091469B4600240FFA89F70320A0EB490030
:102450000FFA80FA97E0BBF1000F50D0A0464BE096
:1024600006EB080291B22A1990B2FFF717FF06EBAC
:10247000080291B22A1B90B2FFF710FF321991B2F5
:10248000A5EB080290B2FFF709FF321B91B2A5EB52
:10249000080290B2FFF702FFA6EB080291B22A1BD6
:1024A00090B2FFF7FBFEA6EB080291B22A1990B298
:1024B000FFF7F4FE321B91B205EB080290B2FFF772
:1024C000EDFE321991B205EB080290B2FFF7E6FE7D
:1024D0000EE000005C000020580000205A000020A0
:1024E0000018014000140140660000206400002034
:1024F00008F101000FFA80F8B845B1DD2FE0F219BC
:1025000091B22A1990B2FFF7C9FEF21991B22A1BB3
:1025100090B2FFF7C3FE321991B2EA1B90B2FFF7F7
:10252000BDFE321B91B2EA1B90B2FFF7B7FEF21B61
:1025300091B22A1B90B2FFF7B1FEF21B91B22A1999
:1025400090B2FFF7ABFE321B91B2EA1990B2FFF7DF
:10255000A5FE321991B2EA1990B2FFF79FFE601CF6
:1025600004B2BAF1000F05DAA000801D50440FFA42
:1025700080FA07E0E01B80000A3050440FFA80FA2E
:10258000781E07B200BFBC427FF765AFBDE8F09F81
:102590002DE9F05F804689461646A6F120001FFA15
:1025A00080FA754909688988734A1268D28801FBE4
:1025B00002F0C11700EB5171C1F3C7076E48006804
:1025C00000680AFB070B6C480068C3886A4800680B
:1025D000828849464046FFF703FE2C2000F004F9AC
:1025E000002416E0002510E01BF80400802129419A
:1025F000084020B16148008800F0FAF803E0604824
:10260000008800F0F5F8681CC5B2082DECDB601CF2
:10261000C4B2BC42E6DBBDE8F09F70B504460D468F
:10262000002624E030465449096889880844554901
:102630000988884205DD00264F480068C08820448C
:1026400084B220464C490968C98808444E49098823
:10265000884201DD002600242A7821463046FFF713
:1026600097FF6D1C444800688088304486B2287803
:102670000028D7D170BD70B505460E46144624E03B
:1026800028463D490968898808443E4909888842A6
:1026900005DD002538480068C088304486B23046E1
:1026A00035490968C988084437490988884201DDE5
:1026B00000250026227831462846FFF769FF641C72
:1026C0002D4800688088284485B220780028D7D11A
:1026D00070BD70B505460E46144624E030462649C6
:1026E0000968C988084428490988884205DD002608
:1026F000214800688088284485B228461E49096818
:10270000898808441F490988884201DD0025002680
:10271000227831462846FFF73BFF641C16480068C4
:10272000C088304486B220780028D7D170BD1249C5
:1027300008607047104800687047104A1080104ABF
:10274000118070470D4A128802800D4A12880A8053
:1027500070470A490880704709490880704770B57A
:102760000446FFF7E7FFC5882B4606480288214646
:102770000020FFF77FFD70BD600000206400002096
:1027800066000020580000205A00002030B50B469B
:10279000014600202022012409E021FA02F59D4291
:1027A00005D303FA02F5491B04FA02F52844151E65
:1027B000A2F10102F1DC30BD064C074D06E0E068F5
:1027C00040F0010394E8070098471034AC42F6D378
:1027D000FDF7B2FC04650008246500080148008884
:1027E00070470000000002604FF0C0410880704751
:1027F0000149088070470000000002600FB4084BD8
:1028000010B504A902AA039800F01CF8044602A916
:10281000002000F0C1F8204610BC5DF814FB000059
:102820009929000802E008C8121F08C1002AFAD13D
:1028300070477047002001E001C1121F002AFBD140
:10284000704700002DE9FF4F89B09B4604460025E4
:1028500006E025280BD05A460B999047641C6D1C46
:1028600020780028F5D10DB02846BDE8F08F00276C
:10287000B8460122474900E0074314F8013F203BD6
:1028800002FA03F00842F7D120782E2819D114F863
:10289000010F47F004072A280ED06FF02F0220788E
:1028A000A0F1300109290CD808EB880102EB4101A5
:1028B00000EB0108641CF2E70A98641C50F8048BD2
:1028C0000A9020780028CED0642808D0692806D045
:1028D00075281ED05A460B9990476D1C58E00A99EE
:1028E0004FF00A0901C90A91002802DA40422D215D
:1028F00002E0390504D52B218DF82010012103E0D9
:10290000F90704D02021F7E78A4608AE0DE0002140
:10291000FAE70A994FF00A0901C90A91F7E749460F
:10292000FFF734FF303106F8011D0028F7D1ADEB79
:10293000060000F12009780701D44FF00108C845CE
:1029400002DDA8EB090000E000208046002706E039
:1029500008A85A46C05D0B9990476D1C7F1C5745CF
:10296000F6DB04E030205A460B9990476D1CB8F115
:102970000001A8F10108F5DC05E016F8010B5A4644
:102980000B9990476D1CB9F10001A9F10109F4DC24
:10299000641C65E7092801000A68531C0B6010706D
:1029A0007047000000000000000000000000000070
:1029B000000000000018181818181808000818005F
:1029C0000000000000342424240000000000000067
:1029D00000000000000016247F2424247E2424000C
:1029E0000000000000083E6848681C1612127C10A7
:1029F000100000000061D296740810162949C60024
:102A00000000000000003C646438724ACE467F003B
:102A10000000000000181818180000000000000056
:102A2000000000000004081810303030301010187A
:102A30000C04000000201008080C0404040C081802
:102A40001020000000080A341C6A08000000000082
:102A500000000000000000001818187F1818180067
:102A6000000000000000000000000000001818082E
:102A700030000000000000000000003C00000000EA
:102A80000000000000000000000000000018180016
:102A900000000000000206040C080810102020406E
:102AA0000000000000003C6642475B7342663C0049
:102AB00000000000000018784808080808087E0098
:102AC0000000000000003C460606040810207E00BE
:102AD0000000000000007C0606043C0202067C00A8
:102AE0000000000000000C1C14246444FF040400D7
:102AF0000000000000007E6060607E0202067C0034
:102B00000000000000001E306048764242623C0037
:102B10000000000000007E0206040C0818103000BF
:102B20000000000000003C6242361C6642423C004D
:102B30000000000000003C664242661A0204780071
:102B40000000000000000000181800000018180025
:102B5000000000000000000018180000001818080D
:102B6000300000000000000004183060100C060067
:102B7000000000000000000000007E007E00000059
:102B80000000000000000000301804060C102000B7
:102B90000000000000301C0606061810001010008F
:102BA00000000000001C224141DDB5A5A5AF94C086
:102BB000403C00000000181C342426627E43C10003
:102BC0000000000000007C4642467C4242427C00FD
:102BD0000000000000001E204040404040603E00D9
:102BE0000000000000007C46424343434246780018
:102BF0000000000000007E6060607E6060607E001B
:102C00000000000000007E6060607E606060600028
:102C10000000000000001E604040CE4242623E00C4
:102C2000000000000000424242427E424242420016
:102C30000000000000007E181818181818187E00F0
:102C40000000000000007C04040404040444780034
:102C50000000000000004244485070584C444200BC
:102C600000000000000020202020202020203E0026
:102C70000000000000006266675F5B5BC1C1C100CD
:102C8000000000000000626272525A4A4E4646003E
:102C90000000000000003C6243C3C3C343623C0029
:102CA0000000000000007C46424246784040400060
:102CB0000000000000003C6243C3C3C343623C18F1
:102CC0000F00000000007C6662667C6C6466620037
:102CD0000000000000003E6040601C0602027C0014
:102CE0000000000000007F181818181818181800A5
:102CF00000000000000042424242424242623C0068
:102D0000000000000000C14342622624341C180069
:102D1000000000000000C1C141495B5B76666600AF
:102D200000000000000043663418181C2466C3002D
:102D3000000000000000C14266341C18181818007A
:102D40000000000000007E02040C181020607E00CD
:102D500000000000001C10101010101010101010B7
:102D6000101C000000402020101008080C0406026F
:102D700000000000003C0C0C0C0C0C0C0C0C0C0C9F
:102D80000C3C00000000181C246200000000000041
:102D90000000000000000000000000000000000033
:102DA00000FF0000002010000000000000000000F4
:102DB00000000000000000003C06023E42467A008F
:102DC00000000000004040405C62424242427C0001
:102DD00000000000000000001E20604060203E0057
:102DE00000000000000202023E62424242663A00D7
:102DF00000000000000000003C62427E40603E0097
:102E000000000000000F1810107E101010101000AD
:102E100000000000000000003F66426658403E434C
:102E2000423C0000004040405C624242424242005C
:102E300000000000001818007808080808087E0044
:102E40000000000000040C007C04040404040404DA
:102E50000C78000000606060626C787068646200EA
:102E600000000000007808080808080808087E002C
:102E70000000000000000000764B4B4B4B4B4B001A
:102E800000000000000000005C624242424242003A
:102E900000000000000000003C62424342623C002F
:102EA00000000000000000005C62424242427C40A0
:102EB00040400000000000003E62424242663A028A
:102EC00002020000000000006E726360606060003B
:102ED00000000000000000003E20203C06027C00B4
:102EE0000000000000001010FE10101010101E0056
:102EF00000000000000000004242424242663A00E8
:102F0000000000000000000043426624341818004E
:102F10000000000000000000C1C15B5A5E66660050
:102F2000000000000000000062261C181C26620041
:102F3000000000000000000043426624341C181802
:102F400030E00000000000007E060C1810207E001B
:102F500000000000000E181010103070101010103B
:102F6000180E0000080808080808080808080808DB
:102F7000080800000030180808080C0E08080808A7
:102F800018300000000000000000714B0600000037
:102F90000000000000000000000000000000000031
:102FA0000000000000000000000000000000000021
:102FB0000000000000000000000000000000000011
:102FC00000000000000000000000000003800180FD
:102FD00001800180018001800180018001800180E9
:102FE0000000000003C003C000000000000000005B
:102FF0000000000000000000000000000E700E70D5
:103000000E700C3000000000000000000000000006
:1030100000000000000000000000000000000000B0
:103020000000000000000000000000000000061882
:10303000063806307FFE0C300C300C300C307FFE32
:103040000C601C60186018600000000000000000A8
:103050000000000000000000000000C000C00FF8E9
:103060003CC831C031803D801F8003F001F8031C53
:10307000030C031C3FF83FE00700060000000000BF
:10308000000000000000000000001C007E0E630C29
:10309000631863307E6000C001800300077C0EE689
:1030A0001CC618C630C6607C00000000000000008E
:1030B0000000000000000000000000000FE01CF015
:1030C000387038701C601FC00F003F8C71CC60ECF2
:1030D000607C70383CFC1FCE000000000000000047
:1030E00000000000000000000000000003C001809C
:1030F00001800180000000000000000000000000CE
:1031000000000000000000000000000000000000BF
:1031100000000000000000000000003000E001C0DE
:10312000018003000700060006000E000E000E00DE
:103130000E00060007000300038001C000E000301D
:10314000000000000000000000000C0006000380EA
:10315000018001C000E0006000600070007000703D
:103160000060006000E000C00180038006000C00E9
:103170000000000000000000000000000180118835
:103180001DB803C007E03DBC0188018000000000BD
:10319000000000000000000000000000000000002F
:1031A000000000000000000000000000000000001F
:1031B0000000018001800180018001807FFE01808C
:1031C000018001800180000000000000000000007C
:1031D00000000000000000000000000000000000EF
:1031E00000000000000000000000000000000000DF
:1031F000000003C003C001C001C003801F00000025
:1032000000000000000000000000000000000000BE
:103210000000000000000000000000000FF00000AF
:10322000000000000000000000000000000000009E
:10323000000000000000000000000000000000008E
:10324000000000000000000000000000000000007E
:10325000000003C003C003C0000000000000000025
:10326000000000000000000000000000001800380E
:103270000030006000E000C001C0018003000300D6
:1032800006000E000C001C001800300000000000BA
:1032900000000000000000000000000001800FF0AE
:1032A0001C38381C301C707E70EE738E7E0E7C0CC9
:1032B000300C381C1E780FE00000000000000000F9
:1032C000000000000000000000000000000007C037
:1032D0001FC039C001C001C001C001C001C001C090
:1032E00001C001C03FFC3FFC0000000000000000E6
:1032F00000000000000000000000000003801FF03C
:1033000018380038001800380038007001E00380D9
:1033100007001C003FFC3FFC000000000000000014
:1033200000000000000000000000000007801FF007
:10333000003800380038003007E007F00038001C83
:10334000001C001820F83FE0000000000000000012
:10335000000000000000000000000000000000F07D
:1033600001B0033007300E301C30383070307FFE33
:103370007FFE003000300030000000000000000040
:1033800000000000000000000000000000001FF826
:1033900018001800180018001FE000F8001C001C9E
:1033A000001C003800F01FC00000000000000000FA
:1033B000000000000000000000000000000003F812
:1033C0000F001C001800300037F83C3C300C300C6B
:1033D000380C381C1E380FF0000000000000000000
:1033E00000000000000000000000000000003FFCA2
:1033F000001C001800380070006000E001C001806F
:103400000380070006000E0000000000000000001E
:1034100000000000000000000000000003C01FF8D2
:10342000381C381C381C1C380FF007F01C78381C6E
:10343000300C381C3C380FF0000000000000000089
:1034400000000000000000000000000003801FF0EA
:103450003838301C701C700C380C1FFC0FCC001C52
:10346000001800701FE01F80000000000000000036
:10347000000000000000000000000000000000004C
:103480000000000003C003C0018000000000000035
:10349000000003C003C003C00000000000000000E3
:1034A000000000000000000000000000000000001C
:1034B0000000000003C003C0018000000000000005
:1034C000000003C003C001C001C003800F00000062
:1034D00000000000000000000000000000000000EC
:1034E0000000003800F001C007001E0038000E0088
:1034F000078001C0007000300000000000000000E4
:1035000000000000000000000000000000000000BB
:1035100000000000000000003FFC000000003FFC35
:103520003FFC000000000000000000000000000060
:10353000000000000000000000000000000000008B
:1035400000001C000F00038001E00078001C0070E8
:1035500001E003800E000C000000000000000000ED
:103560000000000000000000000000000FC000F09C
:10357000003800380038003803F0038003000300EF
:10358000000000000780078000000000000000002D
:103590000000000000000000000000E007F80C0C34
:1035A00018063006700363F36633C673CC63CC62CF
:1035B000CC66CCE6C7FCE0006000700038101FF05D
:1035C000000000000000000000000000000003C038
:1035D00007E006E00E700E700C301C3818183FFC27
:1035E0003FFC700E600EE0070000000000000000CD
:1035F00000000000000000000000000000003FF09C
:103600003838381C381C38383FF03FF8381C380C34
:10361000380C381C3FF83FE00000000000000000BC
:1036200000000000000000000000000000E007FCB7
:103630001E04380038003000700070007000300048
:1036400038003C001F9C07FC000000000000000048
:1036500000000000000000000000000000003FF03B
:103660003078301C300C300E300E300E300E300EF4
:10367000301C30383FF03FC0000000000000000068
:1036800000000000000000000000000000001FF823
:1036900018001800180018001FF81FF8180018006C
:1036A000180018001FF81FF80000000000000000BC
:1036B00000000000000000000000000000001FF8F3
:1036C00018001800180018001FF81FF8180018003C
:1036D000180018001800180000000000000000008A
:1036E00000000000000000000000000000F007FCE7
:1036F0001E04380030007000700070FC700C700CFC
:10370000300C380C1F1C07FC0000000000000000FB
:103710000000000000000000000000000000300C6D
:10372000300C300C300C300C3FFC3FFC300C300CBB
:10373000300C300C300C300C000000000000000099
:1037400000000000000000000000000000003FFC3E
:103750000180018001800180018001800180018061
:10376000018001803FFC3FFC0000000000000000E1
:1037700000000000000000000000000000001FF03A
:1037800000300030003000300030003000300030B9
:10379000003000701DE01FC00000000000000000AD
:1037A0000000000000000000000000000000381CC5
:1037B000387038E039C03B803F003F003B8039C063
:1037C00038E038703838381C000000000000000075
:1037D00000000000000000000000000000001C00CD
:1037E0001C001C001C001C001C001C001C001C00F9
:1037F0001C001C001FFC1FFC00000000000000005B
:103800000000000000000000000000000000381C64
:103810007C3C6C3E6E6E666E66CE63C66386618669
:103820006006600660066006000000000000000000
:1038300000000000000000000000000000003C0C40
:103840003C0C3E0C360C330C338C318C31CC30ECD0
:10385000306C307C303C301C000000000000000068
:1038600000000000000000000000000001C00FF890
:103870001C3C381C700E700E60066006700E700ED8
:10388000700C381C1E780FE00000000000000000E3
:1038900000000000000000000000000000003FF0F9
:1038A000383C381C380C380C381C38783FE038006D
:1038B0003800380038003800000000000000000028
:1038C00000000000000000000000000001C00FF830
:1038D0001C3C381C700E700E60066006700E700E78
:1038E000700C381C1E780FE0018001C000FF003C06
:1038F00000000000000000000000000000003FF099
:10390000383838183818383838F03FC038E0387050
:1039100038383838381C380E00000000000000002D
:1039200000000000000000000000000001E00FF8AF
:103930003800380038003C001F8003F00078001C7D
:10394000001C001C38783FE0000000000000000070
:1039500000000000000000000000000000007FFEEA
:10396000018001800180018001800180018001804F
:103970000180018001800180000000000000000043
:103980000000000000000000000000000000300CFB
:10399000300C300C300C300C300C300C300C300C47
:1039A000300C381C1C380FF0000000000000000034
:1039B0000000000000000000000000000000E00621
:1039C000700E700E381C381C1C181C380C300E7011
:1039D000066007E003C003C0000000000000000014
:1039E0000000000000000000000000000000600671
:1039F0006006600660066186638673C673CE766C69
:103A0000366C3C3C3C3C381C0000000000000000D0
:103A10000000000000000000000000000000301C5A
:103A200038181C380E7007E003C003C007E00E70A2
:103A30001C381838381C700E000000000000000010
:103A40000000000000000000000000000000700EF8
:103A5000700C381C1C380E70066007E003C0018033
:103A60000180018001800180000000000000000052
:103A700000000000000000000000000000003FFC0B
:103A8000001C0038007000E001C0038007000E0039
:103A90000C0018003FFC3FFC00000000000000008C
:103AA0000000000000000000000007F007F0060022
:103AB00006000600060006000600060006000600D6
:103AC000060006000600060006000600060007F0D5
:103AD00000000000000000000000000018001C00B2
:103AE0000C000600070003000380018001C000C035
:103AF00000600070003000380018000C000000006A
:103B0000000000000000000000000FE00FE0006077
:103B100000600060006000600060006000600060A5
:103B200000600060006000600060006000600FE006
:103B3000000000000000000000000000000003C0C2
:103B400006C006600C301818301C00000000000091
:103B50000000000000000000000000000000000065
:103B60000000000000000000000000000000000055
:103B70000000000000000000000000000000000045
:103B80000000000000000000000000000000FFFF37
:103B90000000000000000000000000001E00038084
:103BA0000000000000000000000000000000000015
:103BB0000000000000000000000000000000000005
:103BC00000000000000000000000000000000000F5
:103BD000000000001FF01038001C001C0FFC1C1C13
:103BE000381C381C3CFC1FDC0000000000000000FA
:103BF0000000000000000000000000003800380055
:103C0000380038003BF83E1C3C1C380C380C380C93
:103C1000380C381C3C781FE0000000000000000059
:103C20000000000000000000000000000000000094
:103C30000000000007F80E001C00380038003800B3
:103C400038001C000F1807F80000000000000000FA
:103C5000000000000000000000000000001C001C2C
:103C6000001C001C0FFC1C1C381C301C301C301CA1
:103C7000301C383C1CFC0F9C0000000000000000C1
:103C80000000000000000000000000000000000034
:103C9000000000000FF01C38381C300C3FFC3000D6
:103CA000300038001E0C07FC00000000000000007F
:103CB00000000000000000000000003C01FE038046
:103CC0000300030003007FFC7FFC030003000300EC
:103CD00003000300030003000000000000000000D8
:103CE00000000000000000000000000000000000D4
:103CF000000000000FFE1C383818381818381FF064
:103D00003B8030003FF01FFC300E700E381C1FF857
:103D10000000000000000000000000003800380033
:103D2000380038003BF83E383C1C381C381C381C26
:103D3000381C381C381C381C000000000000000033
:103D400000000000000000000000018003C003C06C
:103D5000000000001FC001C001C001C001C001C0BF
:103D600001C001C001C03FFC0000000000000000D5
:103D70000000000000000000000000200070007043
:103D8000000000003FF000700070007000700070D4
:103D900000700070007000700070007020E03FC084
:103DA00000000000000000000000000018001800E3
:103DB00018001800183C187018E01B801F001B80AA
:103DC00019E018701838181C0000000000000000EE
:103DD0000000000000000000000000001FC001C043
:103DE00001C001C001C001C001C001C001C001C0CB
:103DF00001C001C001C03FFC000000000000000045
:103E000000000000000000000000000000000000B2
:103E1000000000006F3C79EE71CE718E718E718E54
:103E2000718E718E718E718E000000000000000096
:103E30000000000000000000000000000000000082
:103E4000000000003BF83E383C1C381C381C381C75
:103E5000381C381C381C381C000000000000000012
:103E60000000000000000000000000000000000052
:103E7000000000000FF01C3C381C700E700E700E1D
:103E8000700C381C1E780FE00000000000000000DD
:103E90000000000000000000000000000000000022
:103EA000000000003BF83E1C3C1C380C380C380C61
:103EB000380C381C3C783FE03800380038003800B7
:103EC00000000000000000000000000000000000F2
:103ED000000000000FFC1C1C381C301C301C301C67
:103EE000301C383C1CFC0F9C001C001C001C001CDF
:103EF00000000000000000000000000000000000C2
:103F00000000000019F81F1C1C0C180E18001800E7
:103F10001800180018001800000000000000000041
:103F20000000000000000000000000000000000091
:103F3000000000000FF81C0018001E000FC001F860
:103F40000018001818381FF00000000000000000E2
:103F5000000000000000000000000000000006005B
:103F6000060006007FFC06000600060006000600AC
:103F700006000700078401FC0000000000000000AC
:103F80000000000000000000000000000000000031
:103F900000000000381C381C381C381C381C381C29
:103FA000381C383C1CFC0FDC000000000000000046
:103FB0000000000000000000000000000000000001
:103FC00000000000700C381C38181C380C300E70C3
:103FD000066007E003C003C000000000000000000E
:103FE00000000000000000000000000000000000D1
:103FF00000000000600660066186738E73CC33CCCF
:10400000366C366C3C3C3C38000000000000000080
:1040100000000000000000000000000000000000A0
:1040200000000000381C1C380E7007E003C003C0FD
:1040300007E00E701C38381E000000000000000071
:104040000000000000000000000000000000000070
:1040500000000000700C381C38181C380C300E7032
:10406000066007E003C003C0038007000E007C0069
:104070000000000000000000000000000000000040
:10408000000000001FF80038007000E001C003804D
:1040900007000C001FFC3FFC0000000000000000B7
:1040A00000000000000000000000007801F803801C
:1040B000038003800380038003003F003E00030071
:1040C00003800380038003800380038001C000F825
:1040D000000000000000018001800180018001805B
:1040E00001800180018001800180018001800180C8
:1040F00001800180018001800180018001800180B8
:10410000000000000000000000001E001F80018071
:1041100001C001C001C001C000C000FC007C00C0A3
:1041200001C001C001C001C001C001C003801F0067
:10413000000000000000000000000000000000007F
:1041400000000000000000001C003F0671CE60FC73
:10415000000000000000000000000000000000005F
:10416000000000000000000000000000000000004F
:10417000000000000000000000000000000000003F
:10418000000000000000000000000000000000002F
:10419000000000000000000000000000000000001F
:1041A000000000000000000000000000000000000F
:1041B00000000000000000000000000000000000FF
:1041C00000000000000000000000000000000000EF
:1041D00000000000003C00003C00003C00003C00EF
:1041E000003C00003C00003C00003C00003C0000A3
:1041F0003C00003C00003C00003C00003C00000093
:1042000000000000003C00007E00003C00000000B8
:10421000000000000000000000000000000000009E
:10422000000000000000000000000000000000008E
:104230000000000003C3E003C3E003C3C003C3C026
:1042400003C3C003C3C003C1C000000000000000DE
:10425000000000000000000000000000000000005E
:10426000000000000000000000000000000000004E
:10427000000000000000000000000000000000003E
:10428000000000000000000000000000000000002E
:104290000000000000000000000001E0E001C0E0BC
:1042A00001C0E001C0E03FFFFE3FFFFE03C1C003CD
:1042B00081C00381C00381C07FFFFC7FFFFC0783B7
:1042C0008007038007038007038007078000000042
:1042D00000000000000000000000000000000000DE
:1042E00000000000000000000000000000000000CE
:1042F00000000700000F00000E0001FFF007FFF0B4
:104300001F0E001E1E001E1C001E1C000FDC0007DE
:10431000FC0000FF80003FF00038F800387800789B
:104320003C0070783071F83FFFE01FFF0000E000B4
:1043300000E00000E00000000000000000000000BD
:10434000000000000000000000000000000000006D
:10435000000000000F800F3FE01E78703C7070700E
:104360007070E07071C03FE3801FC700000E000056
:104370001C0000780000F0F001E7FC03CF0E078E70
:104380000E0F0E0E1E0E0E3C07BC7003F800000050
:10439000000000000000000000000000000000001D
:1043A000000000000000000000000000000000000D
:1043B0000000000000000001FF0007FF800F03C0A5
:1043C0000F03C00F03C00F0780079F0003FE000309
:1043D000F0000FF83C3E7C3C3C1F3C780FF878071F
:1043E000F87C01F03E03F81FFFFC07FE1F000000F1
:1043F00000000000000000000000000000000000BD
:1044000000000000000000000000000000000000AC
:1044100000000000003E00003C00003C00003C00AA
:10442000003C00003C00003C0000000000000000D8
:10443000000000000000000000000000000000007C
:10444000000000000000000000000000000000006C
:10445000000000000000000000000000000000005C
:10446000000000000000000000000000000000004C
:10447000000000800001C0000780000F00001E0047
:10448000003C0000780000F00000E00001E00001C6
:10449000E00001C00003C00003C00001C00001E053
:1044A0000001E00000F00000F000007800003C0097
:1044B000001E00000F000007C00001C00000000047
:1044C00000000000000000000000000000000000EC
:1044D0000000000003C00001E00000F000007C00CC
:1044E000003E00001E00000F000007800007800053
:1044F00003800003C00003C00003C00003C000032A
:1045000080000780000780000F00001E00003C00B4
:1045100000780000F00001E00003800000000000CF
:10452000000000000000000000000000000000008B
:1045300000000000001C00001C000018000F18F014
:1045400007DBE0007F0000FF0007DBE00E187000D3
:104550001800001C00001C0000000000000000000B
:10456000000000000000000000000000000000004B
:10457000000000000000000000000000000000003B
:10458000000000000000000000000000000000002B
:10459000000000000000000000000000000000001B
:1045A000000000003C00003C00003C00003C00001B
:1045B0003C00003C003FFFFC3FFFFC003C00003C97
:1045C00000003C00003C00003C0000000000000037
:1045D00000000000000000000000000000000000DB
:1045E00000000000000000000000000000000000CB
:1045F00000000000000000000000000000000000BB
:1046000000000000000000000000000000000000AA
:10461000000000000000000000000000000000009A
:1046200000007C00007E00007E00003E00001E00B6
:10463000003C0000F80007E000040000000000005B
:10464000000000000000000000000000000000006A
:10465000000000000000000000000000000000005A
:10466000000000000000000000000000000000004A
:10467000000000000003FFE003FFE0000000000076
:10468000000000000000000000000000000000002A
:10469000000000000000000000000000000000001A
:1046A000000000000000000000000000000000000A
:1046B00000000000000000000000000000000000FA
:1046C00000000000000000000000000000000000EA
:1046D00000000000000000000000000000000000DA
:1046E00000007C0000FE0000FE00007E00000000D4
:1046F00000000000000000000000000000000000BA
:1047000000000000000000000000000000000000A9
:10471000000000000000780000F00000E00001E070
:104720000003C0000380000780000F00000E00009F
:104730001E00003C0000380000700000F00000E0A7
:104740000001C00003C0000780000700000F000048
:104750001E00001C0000000000000000000000001F
:104760000000000000000000000000000000000049
:104770000000000000000000000001FFC007FFE093
:104780000F00F01E00781E003C3C00FC3C07FC3C87
:104790001FBC3C7C1C3DF03C3FC03C3F003C1E002D
:1047A000381E00780F80F007FFE001FF8000000056
:1047B00000000000000000000000000000000000F9
:1047C00000000000000000000000000000000000E9
:1047D00000000000000000000000007E0003FE005A
:1047E0001FDE000E1E00001E00001E00001E000046
:1047F0001E00001E00001E00001E00001E00001E05
:1048000000001E00001E000FFFF80FFFF800000060
:104810000000000000000000000000000000000098
:104820000000000000000000000000000000000088
:104830000000000000000000000003FF800FFFE008
:104840000E01F00000F00000F00000F00000F000A9
:1048500001E00003C0000F80003E00007C0001F07A
:104860000003C0000F80001FFFFC1FFFFC000000C2
:104870000000000000000000000000000000000038
:104880000000000000000000000000000000000028
:10489000000000000000000000000FFF800FFFE09C
:1048A0000001E00000F00000F00001E00003C001A2
:1048B000FF0001FFC00003F0000078000078000056
:1048C000780000780001F00FFFC00FFF000000002B
:1048D00000000000000000000000000000000000D8
:1048E00000000000000000000000000000000000C8
:1048F00000000000000000000000000FC0001FC00A
:10490000003FC0007BC000F3C001E3C003C3C00789
:1049100083C00F03C01C03C03803C07FFFFE7FFFAE
:10492000FE0003C00003C00003C00003C00000007D
:104930000000000000000000000000000000000077
:104940000000000000000000000000000000000067
:10495000000000000000000000000FFFE00FFFE07B
:104960000F00000F00000F00000F00000F00000FED
:10497000FF800FFFE00000F00000780000780000EA
:10498000780000F00003E00FFFC00FFE0000000001
:104990000000000000000000000000000000000017
:1049A0000000000000000000000000000000000007
:1049B00000000000000000000000003FF001FFF0D8
:1049C00003E0000780000F00001E00001E1F001FF4
:1049D000FFE01FC1F81E00781E003C1E003C1E00B8
:1049E0003C0F00780F80F807FFE001FF8000000017
:1049F00000000000000000000000000000000000B7
:104A000000000000000000000000000000000000A6
:104A1000000000000000000000001FFFFC1FFFFC62
:104A20000000780000F00000E00001E00003C0009A
:104A30000780000F00000F00001E00003C000078FF
:104A40000000F00001F00001E00003C000000000E1
:104A50000000000000000000000000000000000056
:104A60000000000000000000000000000000000046
:104A70000000000000000000000003FFE00FE3F072
:104A80000F00781E00781E00780F00F007E3E001A9
:104A9000FF8001FF8007E7E00F00F81E00781E008E
:104AA0003C1E007C1F00F80FFFF003FFC000000059
:104AB00000000000000000000000000000000000F6
:104AC00000000000000000000000000000000000E6
:104AD0000000000000000000000003FF800FC7E09E
:104AE0001E00F01E00783C00783C00783C00381E28
:104AF00000780FEFF807FFB800007800007800009A
:104B0000F00001E0000FC00FFF000FF000000000F8
:104B10000000000000000000000000000000000095
:104B20000000000000000000000000000000000085
:104B30000000000000000000000000000000000075
:104B4000000000000000007E00007E00007E0000EB
:104B5000180000000000000000000000000000003D
:104B600000003C00007E00007E00003E00000000CF
:104B70000000000000000000000000000000000035
:104B80000000000000000000000000000000000025
:104B90000000000000000000000000000000000015
:104BA000000000000000007E00007E00007E00008B
:104BB00018000000000000000000000000000000DD
:104BC00000003E00007E00007F00001F00001E006D
:104BD000001E0000FC0007F00004000000000000C0
:104BE00000000000000000000000000000000000C5
:104BF00000000000000000000000000000000000B5
:104C00000000400001E00007C0001F00007E00011E
:104C1000F80003E0000F80000F800003E00000F8C0
:104C200000003E00000F800003E00000E0000000F4
:104C30000000000000000000000000000000000074
:104C40000000000000000000000000000000000064
:104C50000000000000000000000000000000000054
:104C60000000000000000000000000000000001F25
:104C7000FFF80000000000000000001FFFF81FFF09
:104C8000F80000000000000000000000000000002C
:104C90000000000000000000000000000000000014
:104CA0000000000000000000000000000000000004
:104CB00000000000000000000000000000000000F4
:104CC00000000007800003E00000F800003E000044
:104CD0000F800003E00000F80001F00007C0001F93
:104CE00000007C0001F00007C0000300000000008D
:104CF00000000000000000000000000000000000B4
:104D000000000000000000000000000000000000A3
:104D10000000000001C00001FE00007F800007C00D
:104D20000001E00000F00000F00001F00003E000EE
:104D30007FC0007E00007000007000007000000066
:104D40000000000000F80000F80000F8000000007B
:104D50000000000000000000000000000000000053
:104D60000000000000000000000000000000000043
:104D700000000000001F8000FFF003C07807801CC7
:104D80000E000E1C000E3C000F383FC778FFC770A6
:104D9000E3C771C3C7F3C387E3C387E3878EE387A2
:104DA0008EE3CF8EE3FFFC71F9F07000007000001D
:104DB0003800003C00000F01C007FFC000000000E9
:104DC00000000000000000000000000000000000E3
:104DD00000000000000000000000007E00007F00D6
:104DE00000FF0000E78001E78003C3C003C3C007E2
:104DF00081E00781E00F00F00F00F81FFFF81FFFB0
:104E0000FC3C003C3C001E78001EF0000F0000003F
:104E10000000000000000000000000000000000092
:104E20000000000000000000000000000000000082
:104E3000000000000000000000001FFFC01FFFF086
:104E40001E00F01E00781E00781E00F01E01F01FEC
:104E5000FFC01FFFE01E01F81E00781E003C1E0070
:104E60003C1E00781E00F81FFFE01FFF000000003E
:104E70000000000000000000000000000000000032
:104E80000000000000000000000000000000000022
:104E90000000000000000000000000FFF803FFF821
:104EA00007C0000F00001E00001E00003C00003C78
:104EB00000003C00003C00003C00003E00001E00E2
:104EC000000F00000FC00803FFF800FFF80000000B
:104ED00000000000000000000000000000000000D2
:104EE00000000000000000000000000000000000C2
:104EF000000000000000000000003FFF003FFFE056
:104F00003C01F03C00783C003C3C003C3C003C3C1C
:104F1000001E3C001E3C001E3C003C3C003C3C0093
:104F2000783C00F83C07E03FFFC03FFC0000000079
:104F30000000000000000000000000000000000071
:104F40000000000000000000000000000000000061
:104F5000000000000000000000000FFFF00FFFF055
:104F60000F00000F00000F00000F00000F00000FE7
:104F7000FFF00FFFF00F00000F00000F00000F0008
:104F8000000F00000F00000FFFF00FFFF000000007
:104F90000000000000000000000000000000000011
:104FA0000000000000000000000000000000000001
:104FB000000000000000000000000FFFF00FFFF0F5
:104FC0000F00000F00000F00000F00000F00000F87
:104FD000FFF00FFFF00F00000F00000F00000F00A8
:104FE000000F00000F00000F00000F000000000085
:104FF00000000000000000000000000000000000B1
:1050000000000000000000000000000000000000A0
:105010000000000000000000000000FFFC03FFFC97
:105020000FC0041F00001E00003C00003C00007880
:105030000FFC780FFC78003C3C003C3C003C3E0000
:105040003C1F003C0FC03C03FFFC00FFF8000000C9
:105050000000000000000000000000000000000050
:105060000000000000000000000000000000000040
:10507000000000000000000000003C003C3C003C40
:105080003C003C3C003C3C003C3C003C3C003C3F89
:10509000FFFC3FFFFC3C003C3C003C3C003C3C0037
:1050A0003C3C003C3C003C3C003C3C003C000000E4
:1050B00000000000000000000000000000000000F0
:1050C00000000000000000000000000000000000E0
:1050D000000000000000000000000FFFF80FFFF8C4
:1050E000003C00003C00003C00003C00003C000094
:1050F0003C00003C00003C00003C00003C00003C48
:1051000000003C00003C000FFFF80FFFF80000001B
:10511000000000000000000000000000000000008F
:10512000000000000000000000000000000000007F
:10513000000000000000000000000FFFE00FFFE093
:105140000001E00001E00001E00001E00001E000FA
:1051500001E00001E00001E00001E00001E00001E9
:10516000E00003C00C07C00FFF8007FE0000000036
:10517000000000000000000000000000000000002F
:10518000000000000000000000000000000000001F
:10519000000000000000000000001E00781E01F06A
:1051A0001E03C01E07801E1F001E3C001E78001E2E
:1051B000F0001FF0001EF8001E3C001E1E001E0F17
:1051C000801E07C01E01E01E00F81E007C000000CB
:1051D00000000000000000000000000000000000CF
:1051E00000000000000000000000000000000000BF
:1051F00000000000000000000000078000078000A1
:1052000007800007800007800007800007800007F4
:10521000800007800007800007800007800007806B
:105220000007800007800007FFF807FFF800000074
:10523000000000000000000000000000000000006E
:10524000000000000000000000000000000000005E
:10525000000000000000000000003E007C3F00FC59
:105260003F81DC3B81DC3BC39C39C39C38E71C3865
:10527000EF1C387E1C387C1E383C1E78001E7800DF
:105280001E78001E78001E78001E78001E000000A8
:10529000000000000000000000000000000000000E
:1052A00000000000000000000000000000000000FE
:1052B000000000000000000000001F003C1F803CB8
:1052C0001FC03C1DC03C1DE03C1CF03C1C783C1C3D
:1052D000783C1C3C3C1C1E3C1C0F3C1C0F3C1C071F
:1052E000BC1C03FC1C01FC1C00FC1C00FC0000009E
:1052F00000000000000000000000000000000000AE
:10530000000000000000000000000000000000009D
:105310000000000000000000000001FFC007FFF0D7
:105320000F00F81E007C3C003C3C001E78001E78FC
:10533000001E78001E78001E78001E3C003C3C00D9
:105340003C1E00781F00F007FFE001FF8000000016
:10535000000000000000000000000000000000004D
:10536000000000000000000000000000000000003D
:10537000000000000000000000001FFF801FFFF081
:105380001E00F81E007C1E003C1E003C1E003C1E41
:1053900000781E03F01FFFC01FFE001E00001E004D
:1053A000001E00001E00001E00001E000000000085
:1053B00000000000000000000000000000000000ED
:1053C00000000000000000000000000000000000DD
:1053D0000000000000000000000001FFC007FFF017
:1053E0000F00F81E007C3C003C3C001E78001E783C
:1053F000001E78001E78001E78001E3C003C3C0019
:105400003C1E00781F80F007FFE001FF80003C0099
:10541000003C00001F06000FFF0001F80000000024
:10542000000000000000000000000000000000007C
:10543000000000000000000000000FFF800FFFE0F0
:105440000E01F00E00F00E00F00E00F00E01F00F55
:10545000FFC00FFF000E1F000E07800E03C00E01DD
:10546000E00E00F00E00F80E00780E003C00000088
:10547000000000000000000000000000000000002C
:10548000000000000000000000000000000000001C
:105490000000000000000000000003FFF00FFFF01C
:1054A0001F00001E00001E00001F00000FC00007AC
:1054B000FC0000FF80000FF00001F8000078000001
:1054C000780000782000F83FFFE03FFF80000000F8
:1054D00000000000000000000000000000000000CC
:1054E00000000000000000000000000000000000BC
:1054F000000000000000000000003FFFFC3FFFFC38
:10550000003C00003C00003C00003C00003C00006F
:105510003C00003C00003C00003C00003C00003C23
:1055200000003C00003C00003C00003C000000008B
:10553000000000000000000000000000000000006B
:10554000000000000000000000000000000000005B
:10555000000000000000000000003C003C3C003C5B
:105560003C003C3C003C3C003C3C003C3C003C3CA7
:10557000003C3C003C3C003C3C003C3C003C3C00D3
:105580003C1E00781F00F80FFFE003FF80000000C2
:10559000000000000000000000000000000000000B
:1055A00000000000000000000000000000000000FB
:1055B00000000000000000000000F8000F78001E4E
:1055C0003C001E3C003C1E00381E00780F00700F8F
:1055D00000F00781E00781E003C3C003E3C001E7F7
:1055E0008000F78000FF00007E00007E00000000C9
:1055F00000000000000000000000000000000000AB
:10560000000000000000000000000000000000009A
:105610000000000000000000000078000E78000E7E
:1056200078000E78001E38001E38001E383C1C38EA
:105630003C1C387E1C387F1C3CE71C3CE79C3DC36F
:105640009C1DC3DC1F81DC1F80F81F00F8000000D8
:10565000000000000000000000000000000000004A
:10566000000000000000000000000000000000003A
:10567000000000000000000000003C003C1E00781C
:105680000F00F00781E003C3C001E78000FF0000C6
:105690007E00007E0000FF0001FF8003E7C007C31B
:1056A000E00F81F01F00F83E007C7C003E0000000F
:1056B00000000000000000000000000000000000EA
:1056C00000000000000000000000000000000000DA
:1056D0000000000000000000000078001F3C003EB9
:1056E0001E007C1F00780F80F007C1E003E3C001BB
:1056F000E78000FF00007E00003C00003C00003C12
:1057000000003C00003C00003C00003C00000000A9
:105710000000000000000000000000000000000089
:105720000000000000000000000000000000000079
:10573000000000000000000000001FFFFC1FFFFC35
:105740000000F80001E00003C0000780000F000027
:105750001E00003C0000780000F00003E00007C0DD
:10576000000F80001F00003FFFFC3FFFFC00000017
:105770000000000000000000000000000000000029
:105780000000000000000000000000000000000019
:105790000000000001FFC001FFC001E00001E000C7
:1057A00001E00001E00001E00001E00001E0000193
:1057B000E00001E00001E00001E00001E00001E0A4
:1057C0000001E00001E00001E00001E00001E00074
:1057D00001E00001E00001E00001FFC00000000066
:1057E00000000000000000000000000000000000B9
:1057F000000000000E00000F000007000003800002
:1058000003C00001E00000E00000F00000780000AC
:105810003800003C00001E00000E00000F000007D2
:10582000800003800001C00001E00000E000007083
:1058300000007800003C00000000000000000000B4
:105840000000000000000000000000000000000058
:105850000000000003FF8003FF8000078000078036
:105860000007800007800007800007800007800095
:10587000078000078000078000078000078000077E
:1058800080000780000780000780000780000780F5
:1058900000078000078000078003FF8000000000F1
:1058A00000000000000000000000000000000000F8
:1058B00000000000000000000000003C00007E002E
:1058C00000E70001C3800381C00700E00E00F01E66
:1058D0000078000000000000000000000000000050
:1058E00000000000000000000000000000000000B8
:1058F00000000000000000000000000000000000A8
:105900000000000000000000000000000000000097
:105910000000000000000000000000000000000087
:105920000000000000000000000000000000000077
:105930000000000000000000000000000000000067
:105940000000000000000000000000000000000057
:10595000000000000000FFFFFFFFFFFF000000004D
:105960000000000000000000000000000000000037
:10597000000000000F800003E00000F800003C0081
:105980000000000000000000000000000000000017
:105990000000000000000000000000000000000007
:1059A00000000000000000000000000000000000F7
:1059B00000000000000000000000000000000000E7
:1059C00000000000000000000000000000000000D7
:1059D00000000000000000000000000000000000C7
:1059E00000000000000007FFC007E7F00000F00023
:1059F000007800007800FFF807FFF80F00781E001D
:105A0000781E00781E03F80FFFF807FC78000000EE
:105A10000000000000000000000000000000000086
:105A20000000000000000000000000000000000076
:105A3000000000001E00001E00001E00001E0000EE
:105A40001E00001E00001E7FE01EFFF01FC0781F1A
:105A500000781E003C1E003C1E003C1E003C1E0048
:105A6000381E00781E00F01FFFE007FF0000000056
:105A70000000000000000000000000000000000026
:105A80000000000000000000000000000000000016
:105A90000000000000000000000000000000000006
:105AA00000000000000000FFF003FFF007C0000F3F
:105AB00080000F00001E00001E00001E00000F00EE
:105AC000000F800007C00003FFF000FFF00000009F
:105AD00000000000000000000000000000000000C6
