:0A0971002564232564232564230078
:04087D007F0A7E0070
:10088100E4FDFCC3ED9FEC9E5015E4FBFA0BBB00AD
:0F089100010AEB646E4A70F50DBD00010C80E4A6
:0108A0002235
:10090D007FA41208E2EF7802CEC313CE13D8F9FFFD
:01091D0022B7
:0C0940007FE41208E27C007D0C12049998
:01094C002288
:10064600900006EEF0A3EFF0A3ECF0A3EDF0A3EA22
:04065600F0A3EBF032
:10065A00780C7C007D017BFF7A0979717E007F0A24
:10066A001204389000397401F0A37400F0A3740CDA
:10067A00F0900006E0FFA3E090003CCFF0A3EFF07B
:10068A00900008E0FFA3E090003ECFF0A3EFF090C7
:10069A00000AE0FFA3E0900040CFF0A3EFF07B0157
:1006AA007A0079161200687B017A007916120768B7
:0206BA00C2A7D5
:0106BC00221B
:10058900E4900004F0A3F01206BD7F647E00120817
:1005990081C2A7D2A0D2A220901912087D2090135F
:1005A900C2A0900004E0F0A3E04401F07FC8120863
:1005B90081800AE4900004F0A3E054FEF02095192C
:1005C90012087D209513C2A2900004E0F0A3E04434
:1005D90002F07FC8120881800AE4900004F0A3E0C9
:1005E90054FDF020B11412087D20B10E900004E0F2
:1005F900F0A3E04404F0C2A1800CE4900004F0A34D
:10060900E054FBF0D2A112090D900000EEF0A3EF27
:10061900F0120940900002EEF0FCA3EFF0FD90000B
:1006290000E0FEA3E0FF900004E0FAA3E0FB12065D
:0D06390046D2A77FC87E0012088102059AF4
:0A097B003030303030303030303092
:10091E00D3EF9400EE94004007EF1F70F31E80F0AB
:01092E0022A6
:1006BD007F647E0012091ED294C292D293C2977BA0
:1006CD00FF7A09797B90003D7405F07F301207B3F6
:1006DD007A0979801207A97D017F2112092F7D01E9
:1006ED007F2212092F7DF57F2412092F7D887F250A
:1006FD0012092F7D207F3112092F7D0F7F261209C0
:10070D002F7D5E7F2012092F7D717F2712092FD239
:08071D00927F907E0102091E8B
:0A08A100EBF0A3EAF0A3E9F0C29324
:1008AB00E4FEEF339291EF25E0FFD297A296E4336B
:0908BB004FFFC2970EEEB408E9EC
:0108C4002211
:0C094D00C2931208AB7FFF1208ABD293DC
:01095900227B
:10092F00C2931208ABAC07AF051208ABD293AF045A
:01093F002295
:0308210090005FE5
:100824001208A1AD07E4FC900062E0FFECC39F5006
:100834001C7FFF1208AB90005FE0FBA3E0FAA3E08B
:10084400F98C82758300EF1204770C80DAD293AFAF
:01085400059E
:010855002280
:0A07A9007BFF90003D7405F07F2AED
:0307B30090003A79
:1007B6001208A1AD07E4FC90003DE0FFECC39F509A
:1007C6001A90003AE0FBA3E475F0011204EEA9F0DA
:0F07D600FA12045EFF1208AB0C80DCD293AF0561
:0107E50022F1
:1008FB00C2927D3F7F2012092FD2927F907E010200
:02090B00091EC3
:0B072500900063EBF0A3EAF0A3E9F002
:10073000E4FB2094307F0712094D8F2030061AC247
:1007400092900063E0FBA3E0FAA3E0F990006274EA
:1007500020F07F611208217B017D717F2712092F14
:07076000D2921208FBAF0367
:01076700226F
:10076800900036EBF0A3EAF0A3E9F0C2927A097997
:100778007B1207A9900036E0FBA3E0FAA3E0F9900A
:10078800003D7420F07FA01207B37D5E7F20120920
:100798002FD2927FE87E0312091E7D717F270209FE
:0107A8002F21
:0B096600C2B6D2B5D2B4D2B6C2B522E0
:1008C500C2B6E4FEEFC4131313540124FF92B4EF30
:0C08D50025E0FFC2B6D2B60EEEB408E873
:0108E10022F4
:1007E600E4900006F0A3F0C2B6FDFC900007E025F9
:1007F600E0F0900006E033F0D2B6C2B6A2B7E4331A
:10080600FFE0F0A3E04FF00DBD00010CED640C4CD1
:0A08160070D9900006E0FEA3E0FF99
:0108200022B5
:1008E200C2B6C2B51208C57F06DFFED2B60000C28C
:0808F200B600001207E6D2B5C2
:0108FA0022DB
:0300000002095A98
:0C095A00787FE4F6D8FD75812202058943
:10036800E709F608DFFA8046E709F208DFFA803E77
:1003780088828C83E709F0A3DFFA8032E309F60864
:10038800DFFA8078E309F208DFFA807088828C83CC
:10039800E309F0A3DFFA806489828A83E0A3F60880
:1003A800DFFA805889828A83E0A3F208DFFA804C5A
:1003B80080D280FA80C680D4806980F28033801031
:1003C80080A680EA809A80A880DA80E280CA80339A
:1003D80089828A83ECFAE493A3C8C582C8CCC58312
:1003E800CCF0A3C8C582C8CCC583CCDFE9DEE780E2
:1003F8000D89828A83E493A3F608DFF9ECFAA9F061
:10040800EDFB2289828A83ECFAE0A3C8C582C8CCB6
:10041800C583CCF0A3C8C582C8CCC583CCDFEADECF
:10042800E880DB89828A83E493A3F208DFF980CC31
:1004380088F0EF60010E4E60C388F0ED2402B4042A
:100448000050B9F582EB2402B4040050AF232345D1
:0604580082239003B8733B
:10045E00BB010689828A83E0225002E722BBFE029C
:09046E00E32289828A83E49322CF
:10047700F8BB010DE58229F582E5833AF583E8F0BB
:10048700225006E92582C8F622BBFE05E92582C867
:02049700F2224F
:10049900BC000BBE0029EF8DF084FFADF022E4CC47
:1004A900F875F008EF2FFFEE33FEEC33FCEE9DEC10
:1004B900984005FCEE9DFE0FD5F0E9E4CEFD22ED56
:1004C900F8F5F0EE8420D21CFEADF075F008EF2FA0
:1004D900FFED33FD4007985006D5F0F222C398FD91
:0504E9000FD5F0EA222E
:1004EE00A3F8E0C5F025F0F0E582158270021583C1
:0604FE00E0C838F0E8221E
:10000300E5082439F582E43400F583E005082290FD
:100013000036300F03900039E475F00112054302F6
:10002300045E2008E97F2ED2088018EF540F249035
:10003300D43440D4FF300C0BEF24BFB41A00500368
:100043002461FFE50960021509050CE50C70020542
:100053000B300F0E900036E475F001120543EF02EA
:1000630005310208567403D20F8003E4C20FF5086A
:1000730090003612055AE4F509F50BF50CE5096015
:10008300077F2012004680F5750AFFC209C208C225
:100093000AC20BC20DC20EC210120012FF700D3045
:1000A3000F057F00120057AF0CAE0B22B4255FC2C1
:1000B300D5C20C120012FF24D0B40A00501A75F0F6
:1000C3000A780930D50508B6FF0106C6A426F6202E
:1000D300D5047002D20B80D924CFB41A00EF500498
:1000E300C2E5D20C020258D20980C6D20880C0D21F
:1000F3000A80BCD2D580BAD20D80B47F20120046CC
:10010300200A077401B5090040F1120003FF120031
:1001130046020080D210D20E8095120003FB12001B
:1001230003FA120003F94A4B700679297A037BFF1D
:10013300200A2EE509602A7E008E8275830012054F
:100143000460060EEE650A70F0C2D5EBC0E0EAC0AB
:10015300E0E9C0E0EE12029FD0E0F9D0E0FAD0E08F
:10016300FB12045EFF60AAEBC0E0EAC0E0E9C0E076
:10017300120046D0E02401F9D0E03400FAD0E0FBCD
:10018300E50A0460DCD50AD980877BFF7A02799B74
:10019300D20A809C791080027908C20EC2108008AE
:1001A300D2D5790A8004790AC2D5E50A047002F52A
:1001B3000AE4FAFDFEFF120003FC7B082009131278
:1001C3000003FD7B1030080A120003FE120003FF38
:1001D3007B20EC3382D592D55013C3E43008069FBD
:1001E300FFE49EFEE42009039DFDE49CFCE4CBF8C0
:1001F300C209EC700CCFCECDCCE824F8F870F380B4
:1002030017C3EF33FFEE33FEED33FDEC33FCEB337B
:10021300FB994002FB0FD8E9EB300905F8D0E0C4A5
:1002230048B209C0E00AEC4D4E4F78207B0070C203
:10023300EAB50A0040BCC0E01202A1D0F0D0E02031
:100243000904C4C0E0C4B209C0F012002FD0F0D535
:10025300F0EB020080120563011D5301975800EE75
:100263004C00EA42019B4F01A34401A3490103430C
:0802730001A955018D46018D22
:10027B0045018D4703495000F22D00F62E01192B35
:10028B0000FA2301172003322A00B24800000111A3
:10029B003F3F3F00790AA2D5200B14300D09B9104E
:1002AB00020404B9080104A2D5200E025001042057
:1002BB000A68920AB509005034C0E07F20300B1950
:1002CB007F30A20A720E720D500F1202F8C20AC2D0
:1002DB000EC20DC2107F30800F300D03E9C0E0124B
:1002EB000046300D03D0E0F9D0E0B509CC300D1746
:1002FB007F30B9100C1200467F58300C077F788086
:10030B0003B90803120046300A057F2D0200467F11
:10031B00202010F87F2B200EF322920A80CF286E1C
:10032B00756C6C2900D2091200033009F8C20978E8
:10033B000930D50108F60200B22D5043495812007E
:10034B00032403B405004001E490034493120037E7
:0D035B00743A120037D20B750904020197A5
:10050400BB010CE58229F582E5833AF583E02250AC
:1005140006E92582F8E622BBFE06E92582F8E222F6
:0D052400E58229F582E5833AF583E4932210
:10053100BB010689828A83F0225002F722BBFE01A9
:02054100F322A3
:10054300F8E0FBA3A3E0F925F0F0E5821582700241
:070553001583E0FA38F022E5
:09055A00EBF0A3EAF0A3E9F022A2
:10056300D083D082F8E4937012740193700DA3A327
:1005730093F8740193F5828883E47374029368603B
:06058300EFA3A3A380DF3B
:10085600EFB40A07740D120861740A309811A8994A
:10086600B8130CC2983098FDA899C298B811F63002
:0708760099FDC299F59922DA
:00000001FF
