:020000040800F2
:100000002009002045010008E1180008E318000855
:10001000E7180008EB180008EF18000800000000BF
:10002000000000000000000000000000F3180008BD
:10003000F518000800000000F7180008F91800087B
:100040005F0100085F0100085F0100085F01000810
:100050005F0100085F0100085F0100085F01000800
:100060005F010008AD1900085F0100085F0100088A
:100070005F0100085F0100085F0100085F010008E0
:100080005F0100085F0100085F0100085F010008D0
:100090005F0100085F0100085F0100085F010008C0
:1000A0005F0100085F0100085F0100085F010008B0
:1000B0005F0100085F0100085F0100085F010008A0
:1000C0005F0100085F0100085F0100085F01000890
:1000D0005F0100085F0100085F01000827190008A0
:1000E0005F0100085F0100085F0100085F01000870
:1000F0005F0100085F0100085F0100085F01000860
:100100005F0100085F0100085F0100085F0100084F
:100110005F0100085F0100085F0100085F0100083F
:100120005F0100085F0100085F0100085F0100082F
:10013000DFF80CD003F0CEFC004800470B17000896
:10014000200900200648804706480047FEE7FEE7F2
:10015000FEE7FEE7FEE7FEE7FEE7FEE7FEE7FEE777
:1001600047020008310100080CB500200190009002
:100170006C48006840F480306A49086000BF6948F4
:10018000006800F4003000900198401C0190009835
:1001900018B90198B0F5A06FF1D16248006800F479
:1001A000003010B10120009001E000200090009884
:1001B000012843D15C48006840F010005A490860AB
:1001C0000846006820F0030008600846006840F018
:1001D0000200086053484068524948600846406839
:1001E00048600846406840F48060486008464068BF
:1001F00020F47C1048600846406840F4E8104860ED
:100200000846006840F08070086000BF45480068FC
:1002100000F000700028F9D04248406820F0030048
:10022000404948600846406840F00200486000BF0E
:100230003C48406800F00C000828F9D10CBD10B50E
:10024000FFF792FF10BD10B53648006840F001007E
:1002500034490860084640683449084031494860DC
:1002600008460068324908402E4908600846006880
:1002700020F4802008600846406820F4FE004860B2
:100280004FF41F008860FFF7DAFF4FF00060294944
:10029000086010BD10B5002100200022214B5B68D2
:1002A00003F00C0121B1042906D0082928D107E068
:1002B000214B224C236027E01F4B204C236023E07E
:1002C000184B5B6803F47010164B5B6803F48032C4
:1002D000022303EB904022B9194B4343174C236090
:1002E0000DE0104B5B6803F4003323B1144B434320
:1002F000124C236003E0104B4343104C236003E097
:100300000D4B0E4C236000BF00BF064B5B68C3F370
:1003100003130C4CE15C094B1B68CB40074C23607A
:1003200010BD000000100240002002400000FFF855
:10033000FFFFF6FE08ED00E000127A00000000204A
:1003400000093D000400002031490143314A116099
:10035000704770B5002100230F22C47804B32D4CE0
:10036000246804F4E064C4F5E064210AC1F10403E4
:10037000CA40447804FA03F1847814402143090107
:10038000254C0678A155047804F01F050124AC40E3
:1003900005786D11AD0005F1E025C5F8004109E0D3
:1003A000047804F01F050124AC401C4D067876113A
:1003B00045F8264070BD1A4A0A400243154B1B1FE0
:1003C0001A60704739B1134A121D12680243114B6B
:1003D0001B1D1A6006E00F4A121D126882430D4B66
:1003E0001B1D1A607047042808D14FF0E0210969ED
:1003F00041F004014FF0E022116107E04FF0E021ED
:10040000096921F004014FF0E022116170470000FA
:100410000000FA050CED00E000E400E080E100E0FF
:1004200080FFFF1F002044490860091D0860091D66
:100430000860091D086041483F4914310860704751
:1004400000213D498279002A3AD00A4612680368A1
:100450009A430B461A600A1D126803689A430B1DE3
:100460001A60027911440A6803681A430A60324A22
:100470000832126803689A432F4B08331A601A1D1A
:10048000126803689A432C4B0C331A604279102A85
:100490000ED11A1F126803681A43274B08331A60DB
:1004A0001A1D126803681A43234B0C331A600DE0BF
:1004B0002149427911440A6803681A430A6005E039
:1004C000027911440A6803689A430A607047002160
:1004D000016001710C214171002181717047164941
:1004E000103109680143144A103211607047014607
:1004F0000020114A143212680A400AB1012000E0BB
:10050000002070470C4914310860704701460020F4
:100510000022094B1B6803EA0102074B14331B68D6
:100520000B4013B10AB1012000E0002070470249DE
:10053000143108607047000000040140FFFF0F0005
:1005400030B943F2DB028100A1F1C0410A6005E04D
:1005500043F2D2028100A1F1C0410A606FF0704203
:10056000411C8900A1F1C0410A608100A1F1C04194
:10057000C1F80421704710280AD118214FF02042F9
:100580001166402151664FF0FC319166D16610E052
:100590001821F74A116040214FF02042C2F8841020
:1005A0004FF0FC31F24A083211604FF02042C2F89D
:1005B0008C1070471820EE49203108600020090691
:1005C000C1F8A4004FF0FC30E94928310860091D4A
:1005D0000860091D08607047D0E901121143C26824
:1005E0001143026911434269114382691143C2698F
:1005F0001143026A1143426A1143826A1143C26A7B
:100600001143026B114302689200A2F1C0421160D3
:10061000816808290BD101688900A1F1C0410968EE
:1006200041F0400201688900A1F1C0410A60416BBC
:100630000968426B526841EA0211426B926841EAD2
:100640000221426B928941EA0241426B128A41EADD
:100650000251426B127D41EA0261426B9269114381
:100660000268521C9200A2F1C0421160C16AB1F549
:10067000804F1BD1816B0968826B526841EA02117D
:10068000826B926841EA0221826B128A41EA02512E
:10069000826B127D41EA0261826B926911430268AA
:1006A0009200A2F1C042C2F8041107E06FF070425C
:1006B00001688900A1F1C041C1F80421704730B53B
:1006C000002100220023446844F0080485682C437C
:1006D000C5682C4305692C43456944EA452485696E
:1006E00044EA4531C4692468C5696D6844EA052453
:1006F000C5692D8944EA0544C5692D7B44EA056234
:10070000046A2468056A6D6844EA0524056A2D892F
:1007100044EA0544056A2D7B44EA05630468102C0D
:1007200005D14FF020442166A266E36608E0904CB4
:1007300021604FF02044C4F888208D4C0C34236095
:1007400030BD016841F01001426841EA42218268EF
:1007500041EA4231864A20321160C1680968C268A4
:10076000526841EA0221C268128941EA0241C26824
:10077000127B41EA02617E4A2832116001690968F0
:100780000269526841EA02210269128941EA024182
:100790000269127B41EA0261754A2C32116041699B
:1007A00009684269526841EA02214269128941EAB4
:1007B00002414269127B41EA02614FF02042C2F8D5
:1007C000B01070470021016002214160002181606A
:1007D000C160016141618161C16101624FF4805179
:1007E0004162490081620021C16201630F21426BB5
:1007F0001160426B5160FF21426B91600F21426B8F
:10080000D160426B1161426B51610021426B916179
:100810000F21826B1160826B5160FF21826B9160AE
:100820000F21826BD160826B1161826B516100215B
:10083000826B9161704710210160002141608160ED
:10084000C160016141618161FC21C2691160C269BD
:100850005160C2699160C269D160026A1160026A26
:100860005160026A9160026AD160704700210160A4
:1008700041608160FC21C2681160C2685160C26839
:100880009160C268D16002691160026951600269B9
:1008900091600269D16042691160426951604269A8
:1008A00091604269D160704751B18200A2F1C042AB
:1008B000126842F001038200A2F1C042136009E015
:1008C0008200A2F1C04212682A4B1A408300A3F1B1
:1008D000C0431A60704799B1102808D14FF02042E8
:1008E000126E42F004024FF020431A661DE0204AC7
:1008F000126842F004024FF02043C3F8802014E055
:10090000102809D14FF02042126E1A4BDB1E1A40FC
:100910004FF020431A6608E0154A1268154BDB1E9B
:100920001A404FF02043C3F88020704748B1104967
:100930002031096841F004014FF02042C2F8A010B4
:1009400009E00B49203109680A4AD21E11404FF0D4
:100950002042C2F8A0107047B9B110280CD14FF056
:100960002042126E42F040024FF020431A661FE010
:10097000800000A0FEFF0F00724A126842F04002A1
:100980004FF02043C3F8802012E0102808D14FF028
:100990002042126E6C4B1A404FF020431A6607E05B
:1009A000684A1268684B1A404FF02043C3F8802011
:1009B000704701460020102903D14FF02042506FAC
:1009C00002E0604A14321068704710B5F2B1102886
:1009D00007D14FF020435B6E0B434FF0204463661A
:1009E00032E0B0F5807F08D1564B1B1D1B680B43CE
:1009F0004FF02044C4F8843026E0524B24331B6867
:100A00000B434FF02044C4F8A4301DE0102807D158
:100A10004FF020435B6E8B434FF02044636613E03E
:100A2000B0F5807F08D1474B1B1D1B688B434FF0EF
:100A30002044C4F8843007E0424B24331B688B43C6
:100A40004FF02044C4F8A43010BD10B50246002079
:100A50000023102A03D14FF02044636E09E0B2F561
:100A6000807F03D1374C241D236802E0354C2434A9
:100A7000236803EA01040CB1012000E0002010BD4E
:100A8000102807D14FF02042526E8A434FF0204386
:100A90005A6613E0B0F5807F08D12A4A121D126809
:100AA0008A434FF02043C3F8842007E0254A2432CC
:100AB00012688A434FF02043C3F8A420704770B5F2
:100AC00002460020002300240025102A03D14FF005
:100AD0002046736E09E0B2F5807F03D1194E361DB2
:100AE000336802E0174E2436336803EA010403EA50
:100AF000D10514B10DB1012000E0002070BD102817
:100B000008D14FF02042526E22EAD1024FF020432A
:100B10005A6615E0B0F5807F09D10A4A121D1268A5
:100B200022EAD1024FF02043C3F8842008E0054AAE
:100B30002432126822EAD1024FF02043C3F8A420E5
:100B400070470000800000A0BFFF0F0010B50446F2
:100B5000CC48844208D10121042000F02DFB002163
:100B6000042000F029FB46E0C748844208D1012157
:100B7000082000F021FB0021082000F01DFB3AE0D6
:100B8000C248844208D10121102000F015FB002149
:100B9000102000F011FB2EE0BD48844208D1012155
:100BA000202000F009FB0021202000F005FB22E0BE
:100BB000B848844208D10121402000F0FDFA00210C
:100BC000402000F0F9FA16E0B348844208D1012130
:100BD000802000F0F1FA0021802000F0EDFA0AE018
:100BE000AE48844207D10121801500F0E5FA0021CA
:100BF000A01500F0E1FA10BD10B50121084600F083
:100C0000DBFA0021012000F0D7FA10BD2DE9F041F8
:100C1000024600250026002000230024002791F82A
:100C200003C00CF00F0591F803C00CF0100CBCF1E0
:100C3000000F03D091F802C04CEA050591F800C0FE
:100C4000BCF1000F31D0146800202BE04FF0010CF4
:100C50000CFA00F3B1F800C00CEA03069E4220D162
:100C600083004FF00F0C0CFA03F7BC4305FA03FCAA
:100C70004CEA040491F803C0BCF1280F06D14FF0F0
:100C8000010C0CFA00FCC2F814C00AE091F803C091
:100C9000BCF1480F05D14FF0010C0CFA00FCC2F872
:100CA00010C0401C0828D1D31460B1F800C0BCF1BA
:100CB000FF0F34DD546800202EE000F1080C4FF0E7
:100CC000010808FA0CF3B1F800C00CEA03069E42D2
:100CD00021D183004FF00F0C0CFA03F7BC4305FA47
:100CE00003FC4CEA040491F803C0BCF1280F05D1C1
:100CF00000F1080C08FA0CF8C2F8148091F803C04F
:100D0000BCF1480F07D100F1080C4FF0010808FAB8
:100D10000CF8C2F81080401C0828CED35460BDE8FF
:100D2000F0814FF6FF710180022181700421C170B2
:100D300070470246002093680B400BB1012000E091
:100D4000002070470146886880B270470246002044
:100D5000D3680B400BB1012000E000207047014632
:100D6000C86880B2704701617047416170470AB13D
:100D7000016100E041617047C16070474FF480320B
:100D80000A43826181618261826982697047024699
:100D90000020434B18684FF68073184040EA021059
:100DA00008433F4B186070473E49C8617047F0B533
:100DB0000A46002300240021002500F00046B6F179
:100DC000004F02D1364EF16901E0354E7168C0F333
:100DD000034583B200F44016B6F5401F08D121F058
:100DE00070612F4E766826F070662D4F7E6012E09F
:100DF00000F48016B6F5801F06D1032606FA05F426
:100E0000A14341F0706106E0460D360103FA06F693
:100E1000B14341F0706122B1460D360103FA06F686
:100E2000314300F00046B6F1004F02D11C4EF16193
:100E300001E01B4E7160F0BD30B500228B071C0F26
:100E40000F2303FA04F2164B08338C1053F82430A6
:100E50009343134C08348D1044F8253023468C10EE
:100E600053F824308C07240F00FA04F423430C4C6D
:100E700008348D1044F8253030BD0A49DC31086053
:100E80007047000000080140000C014000100140C4
:100E90000014014000180140001C014000200140E6
:100EA0000000014000002042DF48006840F00100DF
:100EB000DD49086008464068DC490840DA49486076
:100EC00008460068DA490840D749086008460068C3
:100ED00020F4802008600846406820F4FE00486046
:100EE0004FF41F0088607047CF49096821F48031B2
:100EF000CD4A11601146096821F480211160B0F5D6
:100F0000803F03D0B0F5802F0ED106E0C6490968B6
:100F100041F48031C44A116007E0C349096841F4D3
:100F2000A021C14A116000E000BF00BF704710B5AA
:100F300001460022002300204A11012A02D1BA4CA6
:100F4000236806E0022A02D1B74C236A01E0B64CBE
:100F5000636A01F01F02012494401C400CB101207F
:100F600000E0002010BD38B50020009000240025CE
:100F700000BF3120FFF7DBFF05460098401C0090C2
:100F80000098B0F5A06F01D0002DF2D03120FFF70E
:100F9000CEFF08B1012400E00024204638BD014600
:100FA0000020A14A106820F0F80040EAC10010605B
:100FB0007047A04908607047024600209A4B586865
:100FC00020F47C1042EA01031843974B58607047A5
:100FD00098490866704701460020934A506820F0FF
:100FE00003000843506070478F48406800F00C00D1
:100FF0007047014600208C4A506820F0F0000843FA
:101000005060704701460020874A506820F4E06035
:1010100008435060704701460020834A506820F41E
:10102000605040EAC1005060704729B17E4A527A50
:1010300002437D4B5A7204E07B4A527A82437A4BD8
:101040005A7270477B49D8310860704701460020CA
:10105000754A506820F440400843506070470021B2
:10106000714A20321170704A82F82010012802D093
:1010700004280AD104E001216B4A2032117005E0F6
:101080000521694A2032117000E000BF00BF70479F
:101090006949086070476449096A0143624A1162FC
:1010A0007047654944390860704730B50021002217
:1010B000002400235C4D6D6805F00C0121B104296A
:1010C00005D0082923D105E05C4D056022E05B4D89
:1010D00005601FE0544D6D6805F47012524D6D6847
:1010E00005F48034022505EB92421CB9544D55435A
:1010F00005600BE04C4D6D6805F400351DB1504D99
:101100005543056002E04D4D5543056002E04B4DEF
:10111000056000BF00BF444D6D6805F0F00109098E
:10112000484D6B5C0568DD4045603F4D6D6805F4DA
:10113000E061090A434D6B5C4568DD4085603A4DCE
:101140006D6805F46051C90A3E4D6B5C4568DD4031
:10115000C560354D6D6805F44041890B3A4D6B5CB7
:10116000C568B5FBF3F5056130BD29B12E4A52695A
:1011700002432D4B5A6104E02B4A526982432A4BA9
:101180005A61704729B1284A92690243264B9A61F5
:1011900004E0254A92698243234B9A61704729B142
:1011A000214AD2690243204BDA6104E01E4AD26927
:1011B00082431D4BDA61704729B11B4AD268024352
:1011C000194BDA6004E0184AD2688243164BDA60A1
:1011D000704729B1144A12690243134B1A6104E0A3
:1011E000114A12698243104B1A6170471249403903
:1011F000086070470F49C86470470B49C871704751
:101200000948406A40F080700749486270470146CB
:101210000020054A92680A400AB1012000E000203F
:101220007047014988727047001002400000FFF8C3
:10123000FFFFF6FE000042428004424200127A00A4
:1012400000093D00140000202400002010B50446D1
:10125000FB48844209D101218803FFF7ADFF00213B
:101260004FF48040FFF7A8FF32E0F648844209D1EE
:1012700001214804FFF7ADFF00214FF40030FFF7D4
:10128000A8FF25E0F048844209D101218804FFF736
:10129000A0FF00214FF48020FFF79BFF18E0EB48F0
:1012A000844209D10121C804FFF793FF00214FF4C4
:1012B0000020FFF78EFF0BE0E548844208D10121B2
:1012C0000805FFF786FF00214FF48010FFF781FF2C
:1012D00010BD2DE9F04786B005460E460024A24613
:1012E00000BFA1460027B08900B100BF2F462C8A5D
:1012F0004CF6FF700440F08804432C82AC894EF613
:10130000F3100440B08831890843718908430443CD
:10131000AC81AC8A4FF6FF400440B0890443AC82F4
:1013200001A8FFF7C2FEC648874202D1DDF810A02F
:1013300001E0DDF80CA0A88900F4004040B10AEB00
:10134000CA0000EB0A1031684900B0FBF1F807E071
:101350000AEBCA0000EB0A1031688900B0FBF1F813
:101360006420B8FBF0F004012009642101FB10891E
:10137000A88900F4004040B1322000EBC900B0FB66
:10138000F1F000F00700044308E0322000EB091000
:101390006421B0FBF1F000F00F0004432C8106B093
:1013A000BDE8F0874FF41651016000218180C180B3
:1013B00001810C21418100218181704710B50246D5
:1013C0000020108A4FF2FF0318400B884C882343FB
:1013D0008C882343CC8823431843108210BD0021FE
:1013E000018041808180C180704721B1828942F4AF
:1013F0000052828104E082894DF6FF731A40828197
:101400007047F0B50346002400260025002040F672
:101410006A17B94200D100BF1846C1F3421401F067
:101420001F06012707FA06F5012C01D10C3004E054
:10143000022C01D1103000E014301AB107682F439C
:10144000076002E00768AF430760F0BD1AB1838A06
:101450000B43838202E0838A8B4383827047028A34
:101460004FF6F0731A400282028A0A4302827047E2
:1014700082894FF2FF731A40828182890A438281F6
:10148000704721B1828942F00202828104E08289A0
:101490004FF6FD731A4082817047028A4FF6DF7360
:1014A0001A400282028A0A430282704721B1028AEC
:1014B00042F48042028204E0028A4BF6FF731A4033
:1014C00002827047C1F30802828070470146888813
:1014D000C0F308007047818941F0010181817047A4
:1014E000028BD2B20283028B42EA0122028370474E
:1014F000028B02F47F420283028B0A43028370470D
:1015000021B1828A42F02002828204E0828A4FF670
:10151000DF731A408282704721B1828A42F0100242
:10152000828204E0828A4FF6EF731A40828270470B
:1015300021B1828A42F00802828204E0828A4FF658
:10154000F7731A408282704721B1828942F40042C7
:10155000828103E08289C2F30E028281704721B149
:10156000828A42F40062828204E0828A4FF2FF7330
:101570001A4082827047828A4FF6FB731A40828239
:10158000828A0A438282704721B1828A42F0020233
:10159000828204E0828A4FF6FD731A40828270478D
:1015A00002460020B1F5007F00D100BF13880B4038
:1015B0000BB1012000E00020704701F40072B2F589
:1015C000007F00D100BFCA430280704770B5024659
:1015D000002400230025002040F66A16B14200D105
:1015E00000BFC1F3421501F01F03012606FA03F301
:1015F000012D02D19689334006E0022D02D1168AD0
:10160000334001E0968A33400C12012606FA04F4B6
:101610001688344013B10CB1012000E0002070BDE9
:1016200010B50022002340F66A14A14200D100BF89
:101630000A1201249440A3B2DC43048010BD0000D0
:10164000003801400044004000480040004C004089
:101650000050004070B5044601F027FCC5882B46B9
:10166000A0220021084601F0BFF901F01EFC002570
:10167000224629460A2001F0B9FB70BD10B500F0E2
:1016800050FD00BF00F001FC0446002CFAD0042CF1
:101690000FD100BF66A169A000F04FFB0028F9D070
:1016A00000BF052369A26BA1002000F083FB002886
:1016B000F7D000BF00F020FD0028FBD010BD10B512
:1016C00000BF5BA15DA000F038FB0028F9D000202E
:1016D00000F05BFB00BF05235CA25EA1002000F0D0
:1016E00069FB0028F7D000BF00F006FD0028FBD002
:1016F00010BD10B54FF480715A48FFF734FB00F06D
:10170000DDFA002000F0F7FA10BD9EB0002464213D
:1017100005A802F0ACF902F073F901F0E8FB52A061
:10172000FFF798FF00F07EF901F099FF0020524981
:10173000087052A0FFF78EFF00F052FA53A0FFF797
:1017400089FFFFF7D6FF56A0FFF784FFFFF7B7FF2B
:1017500057A0FFF77FFF55E05948007858B1202087
:10176000404910310860012008600220091D08600E
:10177000FFF784FF46E020203A4914310860012039
:1017800008600220091F08603B48007802281BD12E
:10179000641C00BF04204B49086020204A4948616E
:1017A000086104204749091F086020204649486114
:1017B000086100BF454D2B89EA88A989688901F035
:1017C000D5FE00202C4908704FF47A7000F06CF9B7
:1017D00001F06BFBC5883D480389C288294600207B
:1017E00001F002F93A48006860B9224639A101A81F
:1017F00002F082F901A8FFF72DFF00244FF47A7060
:1018000033490860A8E770B5044601F04EFBC5886F
:101810002B46A0220021104601F0E6F801F045FB1E
:10182000002522462946AA2001F0E0FA70BD0000FA
:1018300079616E6768616F2E30000000485541572E
:101840004549205033302050726F0000323232321E
:10185000320000003139322E3136382E34332E31F9
:1018600000000000000C01406C636420696E697424
:10187000206F6B2100000000F70000206F763737E3
:10188000323520696E6974206F6B210045535038E2
:1018900032363620696E6974206F6B2100000000BB
:1018A0007769666920696E6974206F6B210000009A
:1018B000636F6E6E20696E6974206F6B210000008B
:1018C00030000020140801400010014006050020EF
:1018D000F80000206672616D65202564000000003C
:1018E000704700BFFEE700BFFEE700BFFEE700BF96
:1018F000FEE770477047704710B500F0DFF800F062
:10190000CDF800240CE03D4850F8240030B13B48AD
:1019100050F82400401E394941F82400601CC4B22C
:10192000032CF0DB10BD10B540F225513448FFF711
:101930004DFED8B13248FFF7C9FDC4B23148B0F806
:101940000004C0F30E0040F2FF3188420EDA2D4948
:10195000B1F80014C1F30E00411C2A4AB2F8002469
:1019600061F30E022749A1F800240C5440F22441EF
:101970002348FFF72BFE012817D12248B0F80004B6
:1019800020F4004000F500401E49A1F800041C4866
:10199000FFF79CFDC4B21CA11A4802F073F808B10D
:1019A000012000E000201B49087010BD10B5082080
:1019B000FEF7ACFD00B31848007878B9102017493D
:1019C0004861082016490860012013490870082062
:1019D000134908601020114908610AE00E48007898
:1019E000012806D108200E49091D086002200A4975
:1019F00008700820FEF79BFD10BD0000F8000020D5
:101A00000048004004010020434C4F5345440D0A58
:101A10000000000030000020F7000020001001400E
:101A20001014014030B52A4800684FF47A72B0FBB8
:101A3000F2F1B1F1807F01D301201DE021F07F4060
:101A4000401E4FF0E022506150170F22002807DAA5
:101A500013071D0E1F4B00F00F04241F1D5503E03C
:101A600013071C0E1C4B1C5400BF00204FF0E0223B
:101A7000906107201061002008B100BFFEE730BD73
:101A80001649086000BF154909680029FBD1704755
:101A9000014613480068086000207047104800683D
:101AA000401C0F490860704701B50C490098086058
:101AB00000BF0A4800680028FBD108BD074800683D
:101AC00020B106480068401E0449086070470000C5
:101AD0000000002018ED00E000E400E028000020F5
:101AE0002C00002008B54FF4A060FEF72DFC272045
:101AF0008DF8000000208DF801008DF80200012013
:101B00008DF803006846FEF724FC08BD00B585B0DB
:101B100001218804FFF743FB01210820FFF732FB76
:101B20004FF48060ADF8100018208DF813000320EA
:101B30008DF8120004A9F948FFF768F84FF4006027
:101B4000ADF8100004208DF8130004A9F348FFF746
:101B50005DF84FF4E13000900020ADF80400ADF8DE
:101B60000600ADF80800ADF80C000C20ADF80A0036
:101B70006946EB48FFF7ADFB012240F22551E848EA
:101B8000FFF73FFC012240F22441E548FFF739FC12
:101B9000FFF7A8FF0121E248FFF727FC05B000BDD1
:101BA00008B501210820FFF7EDFA4FF48070ADF879
:101BB000000010208DF8030003208DF80200694614
:101BC000D648FFF723F801210820FFF7DBFA4FF48E
:101BD0000070ADF800006946D048FFF717F808BD5F
:101BE00010B5FFF7DDFFFFF791FF4FF40071CB4811
:101BF000FFF7B9F84FF48071C848FFF7B6F810BD89
:101C000010B54FF40071C548FFF7AFF84FF4FA7004
:101C1000FFF74AFF4FF40071C048FFF7A4F810BD6A
:101C20002DE9F04106460C4615461F46BD48B0F862
:101C300000046FF30E00BB49A1F800043246BAA1BC
:101C4000B74800F05AFB1CB915B90120BDE8F08176
:101C50003846FFF729FF0020B249B1F80014C1F35C
:101C60000E01B04A5054B4B1ADB12146104601F056
:101C700009FF08B1012000E0002040B92946A94829
:101C800001F000FF08B1012000E0002008B10120B0
:101C9000DCE70020DAE744B12146A24801F0F2FE79
:101CA00008B10120D2E70020D0E729469D4801F085
:101CB000E9FE08B10120C9E70020C7E710B50024FC
:101CC0004FF400719548FFF74EF84FF47A70FFF724
:101CD000EBFE0CE04FF4FA73002295A195A0FFF7FC
:101CE0009FFF00B110BDFFF78BFF601CC4B20A2C30
:101CF000F0DB00BFF6E710B5044624B1012C0AD092
:101D0000022C18D10FE040F6C4138BA288A18DA03D
:101D1000FFF786FF10BD40F6C41387A284A18CA0F4
:101D2000FFF77EFFF6E740F6C41383A280A18BA0E5
:101D3000FFF776FFEEE70020ECE730B59FB00446F2
:101D40000D462B46224688A101A801F0D5FE41F29E
:101D50008833002276A101A8FFF762FF1FB030BDD3
:101D600070B5A0B004460D4616462B46224683A108
:101D700002A8009601F0C0FE4FF47A7300226CA115
:101D800002A8FFF74DFF20B070BD10B586B0044625
:101D90000CB1012000E0002002467EA101A801F064
:101DA000ABFE4FF4FA73002261A101A8FFF738FFE0
:101DB00006B010BDF0B5B9B006460F4614461D4634
:101DC000642120A801F053FE16B1012E10D107E0C6
:101DD0003B4674A274A120A8009401F08DFE08E097
:101DE0003B4675A270A120A8009401F085FE00E09A
:101DF00000BF00BF052D06DA20AB2A466FA102A85E
:101E000001F07AFE04E020AA71A102A801F074FE9C
:101E10004FF47A6372A246A102A8FFF701FF39B01E
:101E2000F0BD70B5BCB004460D461646FCB12B465D
:101E300001226FA11EA801F05FFE324671A1684623
:101E400001F05AFE4FF4FA73002239A11EA8FFF7E1
:101E5000E7FE50B14FF4FA73002235A16846FFF750
:101E6000DFFE10B101203CB070BD0020FBE72B4627
:101E700000225FA11EA801F03FFE4FF4FA7300227A
:101E80002BA11EA8FFF7CCFEEDE710B54FF4FA73B7
:101E9000002227A15FA0FFF7C3FEA0B161A12148E6
:101EA00001F0F0FD08B1022010BD61A11D4801F054
:101EB000E9FD08B10320F7E760A11A4801F0E2FD4F
:101EC00008B10420F0E70020EEE710B500244FF43D
:101ED000FA73002216A14FA0FFF7A2FE00281CD023
:101EE00059A1104801F0CEFD10B144F0010401E009
:101EF00024F0010458A10B4801F0C4FD10B144F0D6
:101F0000020401E024F0020457A1064801F0BAFDE2
:101F100010B144F00404B1E0AEE0C3E0000C0140B5
:101F2000004800400401002025730D0A0000000055
:101F30004F4B0000415400006E6F206368616E6774
:101F40006500000041542B43574D4F44453D31003F
:101F500041542B43574D4F44453D320041542B4390
:101F6000574D4F44453D330041542B43574A415050
:101F70003D222573222C22257322000041542B433D
:101F8000575341503D222573222C222573222C3198
:101F90002C25640041542B4349504D55583D256430
:101FA0000000000054435000222573222C22257388
:101FB000222C2573000000005544500041542B434F
:101FC000495053544152543D25642C257300000060
:101FD00041542B43495053544152543D2573000002
:101FE000414C5245415920434F4E4E454354000009
:101FF00041542B4349505345525645523D25642C7C
:102000002573000041542B43495053544F3D2573D1
:102010000000000041542B43495053544154555340
:10202000000000005354415455533A320D0A000049
:102030005354415455533A330D0A000053544154FC
:1020400055533A340D0A00002B4349505354415420
:1020500055533A302C0000002B43495053544154FF
:1020600055533A312C0000002B43495053544154EE
:1020700055533A322C00000024F0040460A1644857
:1020800001F000FD10B144F0080401E024F0080460
:1020900060A15F4801F0F6FC10B144F0100401E0CB
:1020A00024F01004204610BD2DE9F04105460F46EE
:1020B0004FF4FA730022AFF288115AA0FFF7B0FD77
:1020C0005BA1534801F0DEFC06460EB1B61D02E0EE
:1020D0000020BDE8F081002409E0305D2855285D2E
:1020E000222802D10020285503E0601CC4B2BC4263
:1020F000F3DB00BF0120ECE710B54FF4FA730022C8
:10210000AFF2D4114CA0FFF78BFD08B9002010BD31
:102110004FF4FA734CA2AFF2E8114CA0FFF780FD28
:10212000F5E710B54FF47A70FFF7BEFC4AA14B48B3
:1021300000F0E3F84FF4FA70FFF7B6FC10BD2DE99C
:10214000F04186B007460C4615461E464FF0000883
:1021500047B12246AFF27C11404800F0CEF84FF074
:1021600001081CE0052E06DAAB1C32463CA101A892
:1021700001F0C2FC04E0AA1C3EA101A801F0BCFCD5
:102180004FF47A7300223FA101A8FFF749FD4FF4F5
:102190007A7300223CA12046FFF742FD804640466C
:1021A00006B0BDE8F08170B5044600251848B0F8C7
:1021B00000046FF30E001649A1F800040846B0F8B9
:1021C000000420F40040A1F8000400BF1048B0F85B
:1021D0000004C00B0028F9D000200D49B1F800140C
:1021E000C1F30E010A4A50540CB1154605E028A16E
:1021F000074801F047FC00B1054D284670BD0000BE
:102200002B4349505354415455533A332C0000004A
:10221000040100202B4349505354415455533A3440
:102220002C00000041542B4349465352000000004B
:10223000415049502C22000041542B4349504D4FEE
:1022400044453D31000000003E00000041542B4356
:10225000495053454E4400002B2B2B0000480040B2
:1022600041542B43495053454E443D25642C25642D
:102270000000000041542B43495053454E443D2536
:10228000640000003E20000053454E44204F4B00A8
:102290002B49504400000000F0B503460D46164699
:1022A000002729460A2E03D0002008702846F0BDDA
:1022B00033B9302001F8010B002008702846F6E7FA
:1022C000002B03DA2D2001F8010B5B4242F2107261
:1022D0000DE093FBF2F404B937B104F1300001F8DA
:1022E000010B04FB123301270A2092FBF0F2002AB3
:1022F000EFDC002008702846D9E70FB470B586B02F
:1023000006460CA8019073E00B9800785C281CD15D
:102310000B98401C0B9000786E2809D072280FD1C2
:102320000D213046FFF7CEF80B98401C0B900BE0C8
:102330000A213046FFF7C6F80B98401C0B9003E0CB
:102340000B98401C0B9000BF4BE00B9800782528A1
:1023500040D10B98401C0B900078642818D073284B
:1023600033D1019810C801900BE021783046FFF777
:10237000A9F800BF80213046FFF712F90028F9D0F4
:10238000641C20780028F0D10B98401C0B9020E0B2
:10239000019820C801900A2202A92846FFF77CFF75
:1023A00002AC0BE021783046FFF78CF800BF8021AB
:1023B0003046FFF7F5F80028F9D0641C2078002893
:1023C000F0D10B98401C0B9003E00B98401C0B9035
:1023D00000BF06E00B9810F8011B0B903046FFF78A
:1023E00071F800BF80213046FFF7DAF80028F9D0F5
:1023F0000B980078002887D106B070BC5DF814FBFC
:102400004FF0C04108807047FE4908807047FD4882
:102410000088704701B502E00098401E00900098C7
:102420000028F9D108BD08B501216020FEF7AAFEF9
:1024300003208DF8020018208DF803004FF480402F
:10244000ADF800006946F048FEF7E0FB4FF40040AD
:10245000ADF800006946EC48FEF7D8FB0120ADF866
:1024600000006946E848FEF7D1FB0220ADF8000005
:102470006946E548FEF7CAFB8020ADF800006946D2
:10248000E248FEF7C3FB4FF48070ADF800006946E8
:10249000DE48FEF7BBFB4FF40070ADF80000694664
:1024A000DA48FEF7B3FB4FF48060ADF800006946F0
:1024B000D648FEF7ABFB4FF40060ADF8000069466C
:1024C000D248FEF7A3FB4FF48050ADF800006946F8
:1024D000CE48FEF79BFB4FF40050ADF80000694674
:1024E000CA48FEF793FB4FF48040ADF80000694600
:1024F000C648FEF78BFB4FF40040ADF8000069467C
:10250000C248FEF783FB4FF48070ADF800006946C7
:10251000BD48FEF77BFB4FF40070ADF80000694644
:10252000B948FEF773FB4FF48060ADF800006946D0
:10253000B548FEF76BFB03208DF8020018208DF8DC
:1025400003001020ADF800006946AF48FEF75EFBBF
:102550002020ADF800006946AB48FEF757FB80200D
:10256000ADF800006946A848FEF750FB4FF4006044
:10257000ADF800006946A448FEF748FB10208DF82E
:10258000030003208DF802000220ADF80000694628
:102590009E48FEF73BFB10208DF8030003208DF8CA
:1025A00002004FF48050ADF8000069469648FEF7EF
:1025B0002DFB08BD00B597B001210802FEF7D5FD3F
:1025C00001200190042003908006079000200290D3
:1025D0000490059006900890099008200A90102019
:1025E0000B9000200C900E900F9010904FF48050A4
:1025F0001190002012901390149001A8159016903D
:1026000008A8FDF7E9FF01210020FEF74DF917B0FA
:1026100000BD10B5CF20FFF7F3FE0020FFF7F4FE5A
:102620008120FFF7F1FE3020FFF7EEFEED20FFF7EF
:10263000E7FE6420FFF7E8FE0320FFF7E5FE122027
:10264000FFF7E2FE8120FFF7DFFEE820FFF7D8FE6C
:102650008520FFF7D9FE1020FFF7D6FE7820FFF780
:10266000D3FECB20FFF7CCFE3920FFF7CDFE2C2088
:10267000FFF7CAFE0020FFF7C7FE3420FFF7C4FEB5
:102680000220FFF7C1FEF720FFF7BAFE2020FFF778
:10269000BBFEEA20FFF7B4FE0020FFF7B5FE0020E6
:1026A000FFF7B2FEB120FFF7ABFE0020FFF7ACFE54
:1026B0001B20FFF7A9FEB620FFF7A2FE0A20FFF7B6
:1026C000A3FEA220FFF7A0FEC020FFF799FE352051
:1026D000FFF79AFEC120FFF793FE1120FFF794FE4B
:1026E000C520FFF78DFE4520FFF78EFE4520FFF742
:1026F0008BFEC720FFF784FEA220FFF785FEF220A5
:10270000FFF77EFE0020FFF77FFE2620FFF778FE12
:102710000120FFF779FEE020FFF772FE0F20FFF7A0
:1027200073FE2620FFF770FE2420FFF76DFE0B20BE
:10273000FFF76AFE0E20FFF767FE0920FFF764FE31
:102740005420FFF761FEA820FFF75EFE4620FFF74A
:102750005BFE0C20FFF758FE1720FFF755FE0920FF
:10276000FFF752FE0F20FFF74FFE0720FFF74CFE4A
:102770000020FFF749FEE120FFF742FE0020FFF7AF
:1027800043FE1920FFF740FE1B20FFF73DFE04200B
:10279000FFF73AFE1020FFF737FE0720FFF734FE61
:1027A0002A20FFF731FE4720FFF72EFE3920FFF7E2
:1027B0002BFE0320FFF728FE0620FFF725FE06204C
:1027C000FFF722FE3020FFF71FFE3820FFF71CFE28
:1027D0000F20FFF719FE3620FFF712FEC820FFF783
:1027E00013FE2A20FFF70CFE0020FFF70DFE00204D
:1027F000FFF70AFE0020FFF707FEEF20FFF704FEB9
:102800002B2005E000000260001401400018014088
:10281000FFF7F6FD0020FFF7F7FD0020FFF7F4FDBE
:102820000120FFF7F1FD3F20FFF7EEFD3A20FFF713
:10283000E7FD5520FFF7E8FD1120FFF7E1FDFE4819
:10284000FFF7E8FD2920FFF7DBFD10BD00B50246CC
:10285000072A00DD00BDF9480270104602EBD07176
:102860004910A2EB410139B9F020F54908804FF435
:10287000A070F449088006E04FF4A070F049088089
:10288000F020F04908803620FFF7BAFD082141EA20
:102890004210FFF7B9FD2A20FFF7B2FD0020FFF735
:1028A000B3FD0020FFF7B0FDE5490988491EC1F3DB
:1028B0000720FFF7A9FDE2490978491EC8B2FFF7D2
:1028C000A3FD2B20FFF79CFD0020FFF79DFD0020BE
:1028D000FFF79AFDDB490988491EC1F30720FFF77E
:1028E00093FDD8490978491EC8B2FFF78DFD2C2009
:1028F000FFF786FD00BFADE710B50221D248FEF715
:1029000034FA40F6FF20FFF785FD0221CE48FEF79E
:102910002AFA40F6FF20FFF77DFD10BD10B50446F2
:102920002CB14FF48051C948FEF71FFA04E04FF470
:102930008051C648FEF717FA10BD10B5FFF773FDBA
:10294000FFF738FE0120FFF7E9FFFFF7D5FFFFF79C
:1029500060FEBA480078FFF779FF10BD30B5044635
:102960000D462A20FFF74CFD2012FFF74DFDE0B287
:10297000FFF74AFDA118491EC1F30F20FFF744FDE0
:10298000A118491EC8B2FFF73FFD2B20FFF738FD05
:102990002812FFF739FDE8B2FFF736FDE918491EA6
:1029A000C1F30F20FFF730FDE918491EC8B2FFF749
:1029B0002BFD30BD30B504460D4601231A4629468D
:1029C0002046FFF7CBFF30BD10B502460B46002472
:1029D0002C20FFF715FD00BF03E01846FFF714FD9C
:1029E000641C9442F9D310BD2DE9F04106460F4610
:1029F00014461D462B46224639463046FFF7AEFFA9
:102A000004FB05F092490988FFF7DEFFBDE8F0817D
:102A100070B505460C468A48008885420CDA89481C
:102A20000088844208DA21462846FFF7C3FF894818
:102A300001880120FFF7C8FF70BD10B500220023F8
:102A400000242E20FFF7DCFCFFF7E1FC0246FFF735
:102A5000DEFC0246FFF7DBFC0446FFF7D8FC03462A
:102A6000D012C002991240EA411040EAE42010BDA1
:102A700070B504460D4629462046FFF79BFFFFF739
:102A8000DCFF0646304670BD2DE9FF4F83B081461E
:102A90004FF0000AD3460598A0EB09050499069863
:102AA000461ACDF8049004980090002D01DD01270E
:102AB00005E00DB9002702E04FF0FF376D42002E10
:102AC00002DD4FF0010806E016B94FF0000802E001
:102AD0004FF0FF387642B54201DD2C4600E0344627
:102AE0000020029019E0DDE90010FFF791FFAA44F1
:102AF000B344A24505DDAAEB040A0198384480B22C
:102B00000190A34505DDABEB040B0098404480B277
:102B100000900298401C80B20290611C029888428A
:102B2000E1DD07B0BDE8F08F2DE9F04104460D4628
:102B300016461F46DDF81880B8F1000F0CD03B4652
:102B4000324629462046FFF709FF06FB07F04149B8
:102B50000988FFF739FF27E0A019401E82B22B46F3
:102B600029462046FFF790FFE819401E83B2A019BE
:102B7000401E82B2E819401E81B22046FFF784FF52
:102B8000E819401E83B2224629462046FFF77CFF03
:102B9000E919491E8BB2A119491E8AB2A119491E11
:102BA00088B22946FFF770FFBDE8F0812DE9F05F9C
:102BB00005460E4691469B4600240FFA89F70320EE
:102BC000A0EB49000FFA80FA98E0BBF1000F51D05A
:102BD000A0464CE006EB080291B22A1990B2FFF72A
:102BE00017FF06EB080291B22A1B90B2FFF710FF05
:102BF000321991B2A5EB080290B2FFF709FF321B20
:102C000091B2A5EB080290B2FFF702FFA6EB080213
:102C100091B22A1B90B2FFF7FBFEA6EB080291B21D
:102C20002A1990B2FFF7F4FE321B91B205EB0802AD
:102C300090B2FFF7EDFE0FE0FCBF0200380000206D
:102C4000340000203600002000180140001401402C
:102C50004200002040000020321991B205EB08022A
:102C600090B2FFF7D5FE08F101000FFA80F8B845E1
:102C7000B0DD2FE0F21991B22A1990B2FFF7C8FE29
:102C8000F21991B22A1B90B2FFF7C2FE321991B22B
:102C9000EA1B90B2FFF7BCFE321B91B2EA1B90B266
:102CA000FFF7B6FEF21B91B22A1B90B2FFF7B0FEFF
:102CB000F21B91B22A1990B2FFF7AAFE321B91B211
:102CC000EA1990B2FFF7A4FE321991B2EA1990B254
:102CD000FFF79EFE601C04B2BAF1000F05DAA000F7
:102CE000801D50440FFA80FA07E0E01B80000A3094
:102CF00050440FFA80FA781E07B200BFBC427FF73B
:102D000064AFBDE8F09F2DE9F04F80468946164636
:102D1000A6F120001FFA80FA8049096889887F4A55
:102D20001268D28801FB02F0C11700EB5171C1F3A8
:102D3000C7077A48006800680AFB070B77480068F5
:102D4000C38876480068828849464046FFF706FEF9
:102D50002C20FFF755FB002416E0002510E01BF89F
:102D6000040080212941084020B16D480088FFF708
:102D70004BFB03E06B480088FFF746FB681CC5B2BD
:102D8000082DECDB601CC4B2BC42E6DBBDE8F08F72
:102D900070B504460D46002624E030465F490968B8
:102DA0008988084460490988884205DD00265B4817
:102DB0000068C088204484B2204658490968C98800
:102DC00008445A490988884201DD002600242A78EF
:102DD00021463046FFF797FF6D1C504800688088F9
:102DE000304486B228780028D7D170BD70B505462A
:102DF0000E46144624E02846484909688988084454
:102E000049490988884205DD002544480068C08892
:102E1000304486B2304641490968C988084443496C
:102E20000988884201DD002500262278314628469F
:102E3000FFF769FF641C394800688088284485B220
:102E400020780028D7D170BD70B505460E461446CF
:102E500024E0304631490968C98808443349098863
:102E6000884205DD00262D4800688088284485B208
:102E700028462A490968898808442B4909888842D4
:102E800001DD00250026227831462846FFF73BFF6A
:102E9000641C22480068C088304486B2207800282C
:102EA000D7D170BD1D49086070471C480068704745
:102EB0001B4A10801B4A11807047194A12880280F1
:102EC000184A12880A8070471549088070471549CA
:102ED0000880704770B50446FFF7E7FFC5882B46AA
:102EE0001148028821460020FFF77EFD70BD10B515
:102EF000FFF723FD0320FFF7A9FC0D48FFF7D2FFE2
:102F000000214FF47840FFF7D3FF084803880648B4
:102F1000028800210846FFF767FD10BD3C00002035
:102F20004000002042000020340000203600002035
:102F30004400002010B50020FA49087048808880BD
:102F40004FF4A070C880FFF7B0FFC088C0F1F00058
:102F5000F449088100204881FFF7A7FFC088F149A4
:102F60008881032088730020C873087448748874AB
:102F7000C87410BD08B501213C20FEF703F91020EC
:102F80008DF8030003208DF802000820ADF8000042
:102F90006946E548FDF73AFE1020ADF800006946A5
:102FA000E248FDF733FE0420ADF800006946DE4834
:102FB000FDF72CFE2020ADF800006946DB48FDF748
:102FC00025FE0820ADF800006946D948FDF71EFE31
:102FD0004FF47040ADF8000004208DF8030003208A
:102FE0008DF802006946D348FDF710FE4FF470607B
:102FF000ADF8000004208DF8030003208DF80200D6
:103000006946CA48FDF702FE0820C7491431086026
:10301000C7491031086008BD1FB501214120FEF7E6
:10302000B1F80820ADF80C0004208DF80F00032043
:103030008DF80E0003A9BD48FDF7E8FD032102202D
:10304000FDF7FAFE0820019000208DF808000C2002
:103050008DF8090001208DF80A0001A8FDF7F0F9AC
:103060000820FDF73CFA4FF4C060FDF76DF9092028
:103070008DF8000000208DF8010003208DF802007B
:1030800001208DF803006846FDF763F91FBD10B5F8
:1030900000F046FBFFF76EFFFFF7BEFF10BD38B52F
:1030A0000024002000908021122000F04AFC08B982
:1030B000002038BD0B220121684600F062FC08B9EF
:1030C0000020F6E79DF80000212814D100240DE02F
:1030D000994A02EB44025178974A12F8140000F022
:1030E00030FC08B90020E4E7601C84B29348007803
:1030F0008442EDDB01E00020DBE70120D9E710B5D9
:103100000446062C79D2DFE804F003142D465F79DB
:10311000FF21132000F015FC65210E2000F011FCAA
:1031200000212D2000F00DFC00212E2000F009FCD4
:103130006EE0FD21132000F004FC5A21012000F074
:1031400000FC5C21022000F0FCFB65210E2000F059
:10315000F8FB00212D2000F0F4FB00212E2000F0D0
:10316000F0FB55E0FD21132000F0EBFB582101207E
:1031700000F0E7FB6021022000F0E3FB65210E2058
:1031800000F0DFFB00212D2000F0DBFB00212E20D2
:1031900000F0D7FB3CE0FD21132000F0D2FB84219E
:1031A000012000F0CEFB4C21022000F0CAFB65217B
:1031B0000E2000F0C6FB00212D2000F0C2FB0021F4
:1031C0002E2000F0BEFB23E0FD21132000F0B9FB10
:1031D0009621012000F0B5FB4021022000F0B1FB58
:1031E00065210E2000F0ADFB00212D2000F0A9FB91
:1031F00000212E2000F0A5FB0AE008E0FF211320AB
:1032000000F09FFBE5210E2000F09BFB00E000BFDB
:1032100000BF10BD10B5044614F1040F0DDB042CE3
:103220000BDC201D0007010EA72000F08AFB201DEB
:103230000007010EA82000F084FB10BD70B5064603
:10324000301D092821D2DFE800F01D1A1714110ED5
:103250000B0805004824062518E03824062515E04B
:103260002824062512E0182406250FE00824062548
:103270000CE008240E2509E018240E2506E0282479
:103280000E2503E038240E2500E000BF00BF2146D4
:103290009B2000F056FB2946AB2000F052FB70BD8E
:1032A00010B5044614F1040F0ADB042C08DCC4F149
:1032B00004003022A2EB8000C1B29C2000F041FB50
:1032C00010BD10B50446072C66D2DFE804F00411E7
:1032D0001E39465360000621A62000F032FB8021F3
:1032E000602000F02EFB8021612000F02AFB54E0DA
:1032F0002621A62000F025FB8021602000F021FB84
:103300008021612000F01DFB47E01E21A62000F077
:1033100018FBA021602000F014FB4021612000F088
:1033200010FB3AE0060500200008014000100140B3
:1033300000140140000C01405C000020F600002059
:103340001E21A62000F0FDFA4021602000F0F9FACD
:10335000A021612000F0F5FA1FE01E21A62000F058
:10336000F0FA8021602000F0ECFAC021612000F02A
:10337000E8FA12E01E21A62000F0E3FA60210846D8
:1033800000F0DFFA6021612000F0DBFA05E0462161
:10339000A62000F0D6FA00E000BF00BF10BD2DE966
:1033A000F84306460F4614461D46DDF82080B8F166
:1033B000000F04D14621122000F0C3FA03E00621D9
:1033C000122000F0BEFA17220121684600F0D9FA57
:1033D0009DF8000000EBA60000F0FF094946172009
:1033E00000F0AFFAC4F38701182000F0AAFA1922FE
:1033F0000121684600F0C5FA9DF8000000EB670067
:1034000000F0FF094946192000F09BFAC5F3470177
:103410001A2000F096FA32220121684600F0B1FA33
:1034200004F003009DF80010084305F0010140EA94
:10343000810006F0030140EA011007F0010140EAB3
:1034400081194946322000F07CFAC4F38701292013
:1034500000F077FAC5F347012C2000F072FA2A2217
:103460000121684600F08DFA04F003009DF8001079
:10347000084305F0010140EA810949462A2000F08D
:1034800060FABDE8F8832DE9F84306460F46144676
:103490001D460621122000F054FA17220121684629
:1034A00000F06FFA9DF8000000EBA60000F0FF08A6
:1034B0004146172000F045FAC4F38701182000F0B8
:1034C00040FA19220121684600F05BFA9DF80000DD
:1034D00000EB670000F0FF084146192000F031FAC8
:1034E000C5F347011A2000F02CFA32220121684668
:1034F00000F047FA04F003009DF80010084305F0BF
:10350000010140EA810006F0030140EA011007F0E2
:10351000010140EA81184146192000F012FAC4F373
:103520008701292000F00DFAC5F347012C2000F097
:1035300008FA2A220121684600F023FA04F0030069
:103540009DF80010084305F0010140EA810841465A
:103550002A2000F0F6F9BDE8F88310B504460523EB
:10356000002221460120FEF7EAFD10BD2DE9F047BB
:10357000F6B081468A4616461F4600208DF8D401D3
:103580003B46324651464846FFF7E8F92C20FEF705
:1035900037FF3B46324654A1684600F0ADFA684614
:1035A000FFF7DBFF4FF0000851E0002446E000BFCA
:1035B000002520204F4948614F48006800F47040C2
:1035C000896801F4706140EA0105202049490861D9
:1035D000486149480068F02101EA1020454989689E
:1035E000C1F303210843054320204249086100BF7D
:1035F0002846FEF709FF05A901F81450280A012101
:1036000001EB440105AA505405A8005D20B905A8A6
:10361000005D401C05A90855012000EB440005A9E8
:10362000085C48B9012000EB4400085C401C012103
:1036300001EB440105AA5054601C84B2BC42B6DBC5
:1036400005A8FFF78AFF08F101001FFA80F8B045CE
:10365000ABDB2AA0FFF781FF76B0BDE8F08738B575
:103660000024FFF767FCFFF712FD0EE0601CC4B2F8
:10367000052C0ADDFFF719FCC0884004050C20A1C9
:103680002846FFF785FB00BFFEE7FFF708FD01288E
:10369000ECD12249C87CFFF714FE2049C87BFFF714
:1036A0002EFD1E4991F91000FFF7B4FD1B4991F959
:1036B0001100FFF7C3FD194991F91200FFF7F0FD62
:1036C0001649C87CFFF7FDFD14480078134D0090A3
:1036D0002B89EA88A9886888FFF761FE2946887BDC
:1036E000FFF7B4F838BD00002A232A2325642325D8
:1036F0006423000000100140080C01402323000057
:103700004E6F204F5637373235206D6F64756C65BC
:1037100020646574656374656421000006050020FB
:1037200008B501211020FDF72DFD4020ADF8000067
:1037300003208DF8020014208DF803006946AF487D
:10374000FDF764FA01211020FDF71CFD8020ADF883
:1037500000006946A948FDF759FA08BD4FF4C87042
:1037600001E0411E88B20028FBD1704710B58021CE
:10377000A248FDF7F8FA4021A048FDF7F4FAFFF758
:10378000EDFF80219D48FDF7D4FA08B9002010BD57
:1037900080219A48FDF7E9FAFFF7E0FF802197487A
:1037A000FDF7C7FA08B10020F1E780219348FDF743
:1037B000DCFAFFF7D3FF0120E9E710B540218F487D
:1037C000FDF7D3FAFFF7CAFF80218C48FDF7CDFA49
:1037D000FFF7C4FF40218948FDF7C5FAFFF7BEFF98
:1037E00080218648FDF7BFFAFFF7B8FF10BD10B57E
:1037F00040218248FDF7B9FAFFF7B0FF80217F48EA
:10380000FDF7B3FAFFF7AAFF40217C48FDF7ABFABA
:10381000FFF7A4FF40217948FDF7A7FAFFF79EFFC5
:1038200010BD10B540217548FDF79FFAFFF796FFD0
:1038300080217248FDF797FAFFF790FF40216F480B
:10384000FDF791FAFFF78AFF40216C48FDF78DFAEA
:10385000FFF784FF10BD10B540216848FDF785FAD9
:10386000FFF77CFF80216548FDF77DFAFFF776FFC3
:1038700040216248FDF777FAFFF770FF80215F482B
:10388000FDF757FA28B140215C48FDF76EFA002099
:1038900010BD40215948FDF768FA0120F8E770B5DE
:1038A000044608251BE040215448FDF75EFAFFF767
:1038B00055FF04F0800020B180215048FDF753FAF5
:1038C00003E080214D48FDF750FA6006040EFFF733
:1038D00045FF40214948FDF746FAFFF73FFF280022
:1038E000A5F10101CDB2DED140214448FDF73DFAFA
:1038F00070BD70B50825002480214048FDF733FADB
:1039000014E06006040E40213C48FDF72EFAFFF754
:1039100025FF40213948FDF726FAFFF71FFF8021D8
:103920003648FDF706FA08B144F001042800A5F175
:103930000101CDB2E5D140213048FDF716FA20460D
:1039400070BD70B504460D46FFF710FF08B90020A2
:1039500070BD4220FFF7A3FFFFF77DFF18B9FFF707
:103960002CFF0020F4E7E0B2FFF799FFFFF773FFA9
:103970002846FFF794FFFFF76EFFFFF71EFF0120B9
:10398000E6E770B505460C461646FFF7EFFE08B9A8
:10399000002070BD4220FFF782FFFFF75CFF18B9DF
:1039A000FFF70BFF0020F4E73046FFF778FFFFF743
:1039B00052FFFFF702FFFFF7D9FE08B90020E8E742
:1039C0004320FFF76CFFFFF746FF18B9FFF7F5FE3E
:1039D0000020DEE70CE0FFF78CFF2870012C02D1FD
:1039E000FFF71FFF01E0FFF702FF6D1C601E84B2AE
:1039F000002CF0D1FFF7E1FE0120CAE700100140E2
:103A000008B501210820FDF7BDFB2020ADF800001E
:103A100010208DF8030003208DF8020069460F483E
:103A2000FDF7F4F80120ADF8000069460B48FDF7FA
:103A3000EDF80220ADF8000069460848FDF7E6F809
:103A400020210648FDF78FF901210448FDF78BF985
:103A500002210248FDF787F908BD0000000C014073
:103A6000D2B201E000F8012B491EFBD270470022C0
:103A7000F6E710B513460A4604461946FFF7F0FF6D
:103A8000204610BD30B505462A460B4612F8010BFC
:103A900013F8014B08B1A042F8D01CB1002802D0A5
:103AA0006D1CF1E7284630BD30B50B4601460020BD
:103AB0002022012409E021FA02F59D4205D303FAF0
:103AC00002F5491B04FA02F52844151EA2F1010271
:103AD000F1DC30BD064C074D06E0E06840F0010324
:103AE00094E8070098471034AC42F6D3FCF724FB67
:103AF00064780008847800080FB4084B10B504A956
:103B000002AA039800F01CF8044602A9002000F065
:103B1000F3F8204610BC5DF814FB0000F93C0008E7
:103B200002E008C8121F08C1002AFAD17047704786
:103B3000002001E001C1121F002AFBD170470000E4
:103B40002DE9FF4F8BB09A460F460546002606E04A
:103B500025280BD052460D9990476D1C761C28786D
:103B60000028F5D10FB03046BDE8F08F0024A04604
:103B70000122604900E0044315F8013F203B02FAAE
:103B800003F00842F7D128782E2817D115F8010F35
:103B900044F004042A280ED06FF02F022878A0F1F8
:103BA000300109290AD808EB880102EB410100EB3A
:103BB00001086D1CF2E757F8048B6D1C2878692802
:103BC0003ED006DC0028CDD063280BD0642804D179
:103BD00036E0732810D075284BD052460D99904787
:103BE000761C85E017F8040B8DF8000000208DF896
:103BF0000100E946012003E057F8049B4FF0FF3035
:103C000061074FF0000401D40AE0641C44450DDA5A
:103C10008442FADB19F804100029F6D106E0641C8E
:103C20008442FCDB19F804100029F8D1264404E092
:103C300019F8010B52460D999047641EF8D257E0CF
:103C400001CF4FF00A0B002802DA40422D2102E09A
:103C5000210504D52B218DF82410012103E0E10773
:103C600005D02021F7E70DF1200908910CE0002193
:103C7000F9E701CF4FF00A0BF9E75946FFF714FFB8
:103C800001F1300209F8012D0028F6D1ADEB090051
:103C900000F1200B600701D44FF00108D84502DD88
:103CA000A8EB0B0000E000208046002406E009A8F5
:103CB0005246005D0D999047641C761C089884421A
:103CC000F5DB04E0302052460D999047761CB8F1A0
:103CD0000001A8F10108F5DC05E019F8010B5246D6
:103CE0000D999047761CBBF10001ABF1010BF4DCA0
:103CF0006D1C34E7092801000A68531C0B60107022
:103D000070470000000000000000000000000000FC
:103D100000000000001818181818180800081800EB
:103D200000000000003424242400000000000000F3
:103D300000000000000016247F2424247E24240098
:103D40000000000000083E6848681C1612127C1033
:103D5000100000000061D296740810162949C600B0
:103D60000000000000003C646438724ACE467F00C8
:103D700000000000001818181800000000000000E3
:103D80000000000000040818103030303010101807
:103D90000C04000000201008080C0404040C08188F
:103DA0001020000000080A341C6A0800000000000F
:103DB00000000000000000001818187F18181800F4
:103DC00000000000000000000000000000181808BB
:103DD00030000000000000000000003C0000000077
:103DE00000000000000000000000000000181800A3
:103DF00000000000000206040C08081010202040FB
:103E00000000000000003C6642475B7342663C00D5
:103E100000000000000018784808080808087E0024
:103E20000000000000003C460606040810207E004A
:103E30000000000000007C0606043C0202067C0034
:103E40000000000000000C1C14246444FF04040063
:103E50000000000000007E6060607E0202067C00C0
:103E60000000000000001E306048764242623C00C4
:103E70000000000000007E0206040C08181030004C
:103E80000000000000003C6242361C6642423C00DA
:103E90000000000000003C664242661A02047800FE
:103EA00000000000000000001818000000181800B2
:103EB000000000000000000018180000001818089A
:103EC000300000000000000004183060100C0600F4
:103ED000000000000000000000007E007E000000E6
:103EE0000000000000000000301804060C10200044
:103EF0000000000000301C0606061810001010001C
:103F000000000000001C224141DDB5A5A5AF94C012
:103F1000403C00000000181C342426627E43C1008F
:103F20000000000000007C4642467C4242427C0089
:103F30000000000000001E204040404040603E0065
:103F40000000000000007C464243434342467800A4
:103F50000000000000007E6060607E6060607E00A7
:103F60000000000000007E6060607E6060606000B5
:103F70000000000000001E604040CE4242623E0051
:103F8000000000000000424242427E4242424200A3
:103F90000000000000007E181818181818187E007D
:103FA0000000000000007C040404040404447800C1
:103FB0000000000000004244485070584C44420049
:103FC00000000000000020202020202020203E00B3
:103FD0000000000000006266675F5B5BC1C1C1005A
:103FE000000000000000626272525A4A4E464600CB
:103FF0000000000000003C6243C3C3C343623C00B6
:104000000000000000007C464242467840404000EC
:104010000000000000003C6243C3C3C343623C187D
:104020000F00000000007C6662667C6C64666200C3
:104030000000000000003E6040601C0602027C00A0
:104040000000000000007F18181818181818180031
:1040500000000000000042424242424242623C00F4
:10406000000000000000C14342622624341C1800F6
:10407000000000000000C1C141495B5B766666003C
:1040800000000000000043663418181C2466C300BA
:10409000000000000000C14266341C181818180007
:1040A0000000000000007E02040C181020607E005A
:1040B00000000000001C1010101010101010101044
:1040C000101C000000402020101008080C040602FC
:1040D00000000000003C0C0C0C0C0C0C0C0C0C0C2C
:1040E0000C3C00000000181C2462000000000000CE
:1040F00000000000000000000000000000000000C0
:1041000000FF000000201000000000000000000080
:1041100000000000000000003C06023E42467A001B
:1041200000000000004040405C62424242427C008D
:1041300000000000000000001E20604060203E00E3
:1041400000000000000202023E62424242663A0063
:1041500000000000000000003C62427E40603E0023
:1041600000000000000F1810107E1010101010003A
:1041700000000000000000003F66426658403E43D9
:10418000423C0000004040405C62424242424200E9
:1041900000000000001818007808080808087E00D1
:1041A0000000000000040C007C0404040404040467
:1041B0000C78000000606060626C78706864620077
:1041C00000000000007808080808080808087E00B9
:1041D0000000000000000000764B4B4B4B4B4B00A7
:1041E00000000000000000005C62424242424200C7
:1041F00000000000000000003C62424342623C00BC
:1042000000000000000000005C62424242427C402C
:1042100040400000000000003E62424242663A0216
:1042200002020000000000006E72636060606000C7
:1042300000000000000000003E20203C06027C0040
:104240000000000000001010FE10101010101E00E2
:1042500000000000000000004242424242663A0074
:1042600000000000000000004342662434181800DB
:104270000000000000000000C1C15B5A5E666600DD
:10428000000000000000000062261C181C266200CE
:10429000000000000000000043426624341C18188F
:1042A00030E00000000000007E060C1810207E00A8
:1042B00000000000000E18101010307010101010C8
:1042C000180E000008080808080808080808080868
:1042D000080800000030180808080C0E0808080834
:1042E00018300000000000000000714B06000000C4
:1042F00000000000000000000000000000000000BE
:1043000000000000000000000000000000000000AD
:10431000000000000000000000000000000000009D
:104320000000000000000000000000000380018089
:104330000180018001800180018001800180018075
:104340000000000003C003C00000000000000000E7
:104350000000000000000000000000000E700E7061
:104360000E700C3000000000000000000000000093
:10437000000000000000000000000000000000003D
:10438000000000000000000000000000000006180F
:10439000063806307FFE0C300C300C300C307FFEBF
:1043A0000C601C6018601860000000000000000035
:1043B0000000000000000000000000C000C00FF876
:1043C0003CC831C031803D801F8003F001F8031CE0
:1043D000030C031C3FF83FE007000600000000004C
:1043E000000000000000000000001C007E0E630CB6
:1043F000631863307E6000C001800300077C0EE616
:104400001CC618C630C6607C00000000000000001A
:104410000000000000000000000000000FE01CF0A1
:10442000387038701C601FC00F003F8C71CC60EC7E
:10443000607C70383CFC1FCE0000000000000000D3
:1044400000000000000000000000000003C0018028
:10445000018001800000000000000000000000005A
:10446000000000000000000000000000000000004C
:1044700000000000000000000000003000E001C06B
:10448000018003000700060006000E000E000E006B
:104490000E00060007000300038001C000E00030AA
:1044A000000000000000000000000C000600038077
:1044B000018001C000E000600060007000700070CA
:1044C0000060006000E000C00180038006000C0076
:1044D00000000000000000000000000001801188C2
:1044E0001DB803C007E03DBC01880180000000004A
:1044F00000000000000000000000000000000000BC
:1045000000000000000000000000000000000000AB
:104510000000018001800180018001807FFE018018
:104520000180018001800000000000000000000008
:10453000000000000000000000000000000000007B
:10454000000000000000000000000000000000006B
:10455000000003C003C001C001C003801F000000B1
:10456000000000000000000000000000000000004B
:104570000000000000000000000000000FF000003C
:10458000000000000000000000000000000000002B
:10459000000000000000000000000000000000001B
:1045A000000000000000000000000000000000000B
:1045B000000003C003C003C00000000000000000B2
:1045C000000000000000000000000000001800389B
:1045D0000030006000E000C001C001800300030063
:1045E00006000E000C001C00180030000000000047
:1045F00000000000000000000000000001800FF03B
:104600001C38381C301C707E70EE738E7E0E7C0C55
:10461000300C381C1E780FE0000000000000000085
:10462000000000000000000000000000000007C0C3
:104630001FC039C001C001C001C001C001C001C01C
:1046400001C001C03FFC3FFC000000000000000072
:1046500000000000000000000000000003801FF0C8
:1046600018380038001800380038007001E0038066
:1046700007001C003FFC3FFC0000000000000000A1
:1046800000000000000000000000000007801FF094
:10469000003800380038003007E007F00038001C10
:1046A000001C001820F83FE000000000000000009F
:1046B000000000000000000000000000000000F00A
:1046C00001B0033007300E301C30383070307FFEC0
:1046D0007FFE0030003000300000000000000000CD
:1046E00000000000000000000000000000001FF8B3
:1046F00018001800180018001FE000F8001C001C2B
:10470000001C003800F01FC0000000000000000086
:10471000000000000000000000000000000003F89E
:104720000F001C001800300037F83C3C300C300CF7
:10473000380C381C1E380FF000000000000000008C
:1047400000000000000000000000000000003FFC2E
:10475000001C001800380070006000E001C00180FB
:104760000380070006000E000000000000000000AB
:1047700000000000000000000000000003C01FF85F
:10478000381C381C381C1C380FF007F01C78381CFB
:10479000300C381C3C380FF0000000000000000016
:1047A00000000000000000000000000003801FF077
:1047B0003838301C701C700C380C1FFC0FCC001CDF
:1047C000001800701FE01F800000000000000000C3
:1047D00000000000000000000000000000000000D9
:1047E0000000000003C003C00180000000000000C2
:1047F000000003C003C003C0000000000000000070
:1048000000000000000000000000000000000000A8
:104810000000000003C003C0018000000000000091
:10482000000003C003C001C001C003800F000000EE
:104830000000000000000000000000000000000078
:104840000000003800F001C007001E0038000E0014
:10485000078001C000700030000000000000000070
:104860000000000000000000000000000000000048
:1048700000000000000000003FFC000000003FFCC2
:104880003FFC0000000000000000000000000000ED
:104890000000000000000000000000000000000018
:1048A00000001C000F00038001E00078001C007075
:1048B00001E003800E000C0000000000000000007A
:1048C0000000000000000000000000000FC000F029
:1048D000003800380038003803F00380030003007C
:1048E00000000000078007800000000000000000BA
:1048F0000000000000000000000000E007F80C0CC1
:1049000018063006700363F36633C673CC63CC625B
:10491000CC66CCE6C7FCE0006000700038101FF0E9
:10492000000000000000000000000000000003C0C4
:1049300007E006E00E700E700C301C3818183FFCB3
:104940003FFC700E600EE007000000000000000059
:1049500000000000000000000000000000003FF028
:104960003838381C381C38383FF03FF8381C380CC1
:10497000380C381C3FF83FE0000000000000000049
:1049800000000000000000000000000000E007FC44
:104990001E043800380030007000700070003000D5
:1049A00038003C001F9C07FC0000000000000000D5
:1049B00000000000000000000000000000003FF0C8
:1049C0003078301C300C300E300E300E300E300E81
:1049D000301C30383FF03FC00000000000000000F5
:1049E00000000000000000000000000000001FF8B0
:1049F00018001800180018001FF81FF818001800F9
:104A0000180018001FF81FF8000000000000000048
:104A100000000000000000000000000000001FF87F
:104A200018001800180018001FF81FF818001800C8
:104A30001800180018001800000000000000000016
:104A400000000000000000000000000000F007FC73
:104A50001E04380030007000700070FC700C700C88
:104A6000300C380C1F1C07FC000000000000000088
:104A70000000000000000000000000000000300CFA
:104A8000300C300C300C300C3FFC3FFC300C300C48
:104A9000300C300C300C300C000000000000000026
:104AA00000000000000000000000000000003FFCCB
:104AB00001800180018001800180018001800180EE
:104AC000018001803FFC3FFC00000000000000006E
:104AD00000000000000000000000000000001FF0C7
:104AE0000030003000300030003000300030003046
:104AF000003000701DE01FC000000000000000003A
:104B00000000000000000000000000000000381C51
:104B1000387038E039C03B803F003F003B8039C0EF
:104B200038E038703838381C000000000000000001
:104B300000000000000000000000000000001C0059
:104B40001C001C001C001C001C001C001C001C0085
:104B50001C001C001FFC1FFC0000000000000000E7
:104B60000000000000000000000000000000381CF1
:104B70007C3C6C3E6E6E666E66CE63C663866186F6
:104B8000600660066006600600000000000000008D
:104B900000000000000000000000000000003C0CCD
:104BA0003C0C3E0C360C330C338C318C31CC30EC5D
:104BB000306C307C303C301C0000000000000000F5
:104BC00000000000000000000000000001C00FF81D
:104BD0001C3C381C700E700E60066006700E700E65
:104BE000700C381C1E780FE0000000000000000070
:104BF00000000000000000000000000000003FF086
:104C0000383C381C380C380C381C38783FE03800F9
:104C100038003800380038000000000000000000B4
:104C200000000000000000000000000001C00FF8BC
:104C30001C3C381C700E700E60066006700E700E04
:104C4000700C381C1E780FE0018001C000FF003C92
:104C500000000000000000000000000000003FF025
:104C6000383838183818383838F03FC038E03870DD
:104C700038383838381C380E0000000000000000BA
:104C800000000000000000000000000001E00FF83C
:104C90003800380038003C001F8003F00078001C0A
:104CA000001C001C38783FE00000000000000000FD
:104CB00000000000000000000000000000007FFE77
:104CC00001800180018001800180018001800180DC
:104CD00001800180018001800000000000000000D0
:104CE0000000000000000000000000000000300C88
:104CF000300C300C300C300C300C300C300C300CD4
:104D0000300C381C1C380FF00000000000000000C0
:104D10000000000000000000000000000000E006AD
:104D2000700E700E381C381C1C181C380C300E709D
:104D3000066007E003C003C00000000000000000A0
:104D400000000000000000000000000000006006FD
:104D50006006600660066186638673C673CE766CF5
:104D6000366C3C3C3C3C381C00000000000000005D
:104D70000000000000000000000000000000301CE7
:104D800038181C380E7007E003C003C007E00E702F
:104D90001C381838381C700E00000000000000009D
:104DA0000000000000000000000000000000700E85
:104DB000700C381C1C380E70066007E003C00180C0
:104DC00001800180018001800000000000000000DF
:104DD00000000000000000000000000000003FFC98
:104DE000001C0038007000E001C0038007000E00C6
:104DF0000C0018003FFC3FFC000000000000000019
:104E00000000000000000000000007F007F00600AE
:104E10000600060006000600060006000600060062
:104E2000060006000600060006000600060007F061
:104E300000000000000000000000000018001C003E
:104E40000C000600070003000380018001C000C0C1
:104E500000600070003000380018000C00000000F6
:104E6000000000000000000000000FE00FE0006004
:104E70000060006000600060006000600060006032
:104E800000600060006000600060006000600FE093
:104E9000000000000000000000000000000003C04F
:104EA00006C006600C301818301C0000000000001E
:104EB00000000000000000000000000000000000F2
:104EC00000000000000000000000000000000000E2
:104ED00000000000000000000000000000000000D2
:104EE0000000000000000000000000000000FFFFC4
:104EF0000000000000000000000000001E00038011
:104F000000000000000000000000000000000000A1
:104F10000000000000000000000000000000000091
:104F20000000000000000000000000000000000081
:104F3000000000001FF01038001C001C0FFC1C1C9F
:104F4000381C381C3CFC1FDC000000000000000086
:104F500000000000000000000000000038003800E1
:104F6000380038003BF83E1C3C1C380C380C380C20
:104F7000380C381C3C781FE00000000000000000E6
:104F80000000000000000000000000000000000021
:104F90000000000007F80E001C0038003800380040
:104FA00038001C000F1807F8000000000000000087
:104FB000000000000000000000000000001C001CB9
:104FC000001C001C0FFC1C1C381C301C301C301C2E
:104FD000301C383C1CFC0F9C00000000000000004E
:104FE00000000000000000000000000000000000C1
:104FF000000000000FF01C38381C300C3FFC300063
:10500000300038001E0C07FC00000000000000000B
:1050100000000000000000000000003C01FE0380D2
:105020000300030003007FFC7FFC03000300030078
:105030000300030003000300000000000000000064
:105040000000000000000000000000000000000060
:10505000000000000FFE1C383818381818381FF0F0
:105060003B8030003FF01FFC300E700E381C1FF8E4
:1050700000000000000000000000000038003800C0
:10508000380038003BF83E383C1C381C381C381CB3
:10509000381C381C381C381C0000000000000000C0
:1050A00000000000000000000000018003C003C0F9
:1050B000000000001FC001C001C001C001C001C04C
:1050C00001C001C001C03FFC000000000000000062
:1050D00000000000000000000000002000700070D0
:1050E000000000003FF00070007000700070007061
:1050F00000700070007000700070007020E03FC011
:10510000000000000000000000000000180018006F
:1051100018001800183C187018E01B801F001B8036
:1051200019E018701838181C00000000000000007A
:105130000000000000000000000000001FC001C0CF
:1051400001C001C001C001C001C001C001C001C057
:1051500001C001C001C03FFC0000000000000000D1
:10516000000000000000000000000000000000003F
:10517000000000006F3C79EE71CE718E718E718EE1
:10518000718E718E718E718E000000000000000023
:10519000000000000000000000000000000000000F
:1051A000000000003BF83E383C1C381C381C381C02
:1051B000381C381C381C381C00000000000000009F
:1051C00000000000000000000000000000000000DF
:1051D000000000000FF01C3C381C700E700E700EAA
:1051E000700C381C1E780FE000000000000000006A
:1051F00000000000000000000000000000000000AF
:10520000000000003BF83E1C3C1C380C380C380CED
:10521000380C381C3C783FE0380038003800380043
:10522000000000000000000000000000000000007E
:10523000000000000FFC1C1C381C301C301C301CF3
:10524000301C383C1CFC0F9C001C001C001C001C6B
:10525000000000000000000000000000000000004E
:105260000000000019F81F1C1C0C180E1800180074
:1052700018001800180018000000000000000000CE
:10528000000000000000000000000000000000001E
:10529000000000000FF81C0018001E000FC001F8ED
:1052A0000018001818381FF000000000000000006F
:1052B00000000000000000000000000000000600E8
:1052C000060006007FFC0600060006000600060039
:1052D00006000700078401FC000000000000000039
:1052E00000000000000000000000000000000000BE
:1052F00000000000381C381C381C381C381C381CB6
:10530000381C383C1CFC0FDC0000000000000000D2
:10531000000000000000000000000000000000008D
:1053200000000000700C381C38181C380C300E704F
:10533000066007E003C003C000000000000000009A
:10534000000000000000000000000000000000005D
:1053500000000000600660066186738E73CC33CC5B
:10536000366C366C3C3C3C3800000000000000000D
:10537000000000000000000000000000000000002D
:1053800000000000381C1C380E7007E003C003C08A
:1053900007E00E701C38381E0000000000000000FE
:1053A00000000000000000000000000000000000FD
:1053B00000000000700C381C38181C380C300E70BF
:1053C000066007E003C003C0038007000E007C00F6
:1053D00000000000000000000000000000000000CD
:1053E000000000001FF80038007000E001C00380DA
:1053F00007000C001FFC3FFC000000000000000044
:1054000000000000000000000000007801F80380A8
:10541000038003800380038003003F003E000300FD
:1054200003800380038003800380038001C000F8B1
:1054300000000000000001800180018001800180E7
:105440000180018001800180018001800180018054
:105450000180018001800180018001800180018044
:10546000000000000000000000001E001F800180FE
:1054700001C001C001C001C000C000FC007C00C030
:1054800001C001C001C001C001C001C003801F00F4
:10549000000000000000000000000000000000000C
:1054A00000000000000000001C003F0671CE60FC00
:1054B00000000000000000000000000000000000EC
:1054C00000000000000000000000000000000000DC
:1054D00000000000000000000000000000000000CC
:1054E00000000000000000000000000000000000BC
:1054F00000000000000000000000000000000000AC
:10550000000000000000000000000000000000009B
:10551000000000000000000000000000000000008B
:10552000000000000000000000000000000000007B
:1055300000000000003C00003C00003C00003C007B
:10554000003C00003C00003C00003C00003C00002F
:105550003C00003C00003C00003C00003C0000001F
:1055600000000000003C00007E00003C0000000045
:10557000000000000000000000000000000000002B
:10558000000000000000000000000000000000001B
:105590000000000003C3E003C3E003C3C003C3C0B3
:1055A00003C3C003C3C003C1C0000000000000006B
:1055B00000000000000000000000000000000000EB
:1055C00000000000000000000000000000000000DB
:1055D00000000000000000000000000000000000CB
:1055E00000000000000000000000000000000000BB
:1055F0000000000000000000000001E0E001C0E049
:1056000001C0E001C0E03FFFFE3FFFFE03C1C00359
:1056100081C00381C00381C07FFFFC7FFFFC078343
:1056200080070380070380070380070780000000CE
:10563000000000000000000000000000000000006A
:10564000000000000000000000000000000000005A
:1056500000000700000F00000E0001FFF007FFF040
:105660001F0E001E1E001E1C001E1C000FDC00076B
:10567000FC0000FF80003FF00038F8003878007828
:105680003C0070783071F83FFFE01FFF0000E00041
:1056900000E00000E000000000000000000000004A
:1056A00000000000000000000000000000000000FA
:1056B000000000000F800F3FE01E78703C7070709B
:1056C0007070E07071C03FE3801FC700000E0000E3
:1056D0001C0000780000F0F001E7FC03CF0E078EFD
:1056E0000E0F0E0E1E0E0E3C07BC7003F8000000DD
:1056F00000000000000000000000000000000000AA
:105700000000000000000000000000000000000099
:105710000000000000000001FF0007FF800F03C031
:105720000F03C00F03C00F0780079F0003FE000395
:10573000F0000FF83C3E7C3C3C1F3C780FF87807AB
:10574000F87C01F03E03F81FFFFC07FE1F0000007D
:105750000000000000000000000000000000000049
:105760000000000000000000000000000000000039
:1057700000000000003E00003C00003C00003C0037
:10578000003C00003C00003C000000000000000065
:105790000000000000000000000000000000000009
:1057A00000000000000000000000000000000000F9
:1057B00000000000000000000000000000000000E9
:1057C00000000000000000000000000000000000D9
:1057D000000000800001C0000780000F00001E00D4
:1057E000003C0000780000F00000E00001E0000153
:1057F000E00001C00003C00003C00001C00001E0E0
:105800000001E00000F00000F000007800003C0023
:10581000001E00000F000007C00001C000000000D3
:105820000000000000000000000000000000000078
:105830000000000003C00001E00000F000007C0058
:10584000003E00001E00000F0000078000078000DF
:1058500003800003C00003C00003C00003C00003B6
:1058600080000780000780000F00001E00003C0041
:1058700000780000F00001E000038000000000005C
:105880000000000000000000000000000000000018
:1058900000000000001C00001C000018000F18F0A1
:1058A00007DBE0007F0000FF0007DBE00E18700060
:1058B0001800001C00001C00000000000000000098
:1058C00000000000000000000000000000000000D8
:1058D00000000000000000000000000000000000C8
:1058E00000000000000000000000000000000000B8
:1058F00000000000000000000000000000000000A8
:10590000000000003C00003C00003C00003C0000A7
:105910003C00003C003FFFFC3FFFFC003C00003C23
:1059200000003C00003C00003C00000000000000C3
:105930000000000000000000000000000000000067
:105940000000000000000000000000000000000057
:105950000000000000000000000000000000000047
:105960000000000000000000000000000000000037
:105970000000000000000000000000000000000027
:1059800000007C00007E00007E00003E00001E0043
:10599000003C0000F80007E00004000000000000E8
:1059A00000000000000000000000000000000000F7
:1059B00000000000000000000000000000000000E7
:1059C00000000000000000000000000000000000D7
:1059D000000000000003FFE003FFE0000000000003
:1059E00000000000000000000000000000000000B7
:1059F00000000000000000000000000000000000A7
:105A00000000000000000000000000000000000096
:105A10000000000000000000000000000000000086
:105A20000000000000000000000000000000000076
:105A30000000000000000000000000000000000066
:105A400000007C0000FE0000FE00007E0000000060
:105A50000000000000000000000000000000000046
:105A60000000000000000000000000000000000036
:105A7000000000000000780000F00000E00001E0FD
:105A80000003C0000380000780000F00000E00002C
:105A90001E00003C0000380000700000F00000E034
:105AA0000001C00003C0000780000700000F0000D5
:105AB0001E00001C000000000000000000000000AC
:105AC00000000000000000000000000000000000D6
:105AD0000000000000000000000001FFC007FFE020
