:020000040800F2
:10000000981E002045010008B5190008B71900081E
:10001000BB190008BF190008C31900080000000040
:10002000000000000000000000000000C7190008E8
:10003000C919000800000000CB190008CD190008FC
:100040005F0100085F0100085F0100085F01000810
:100050005F0100085F0100085F0100085F01000800
:100060005F0100085F0100085F0100085F010008F0
:100070005F0100085F0100085F0100085F010008E0
:100080005F0100085F0100085F0100085F010008D0
:100090005F0100085F0100085F0100085F010008C0
:1000A0005F0100085F0100085F0100085F010008B0
:1000B0005F0100085F0100085F0100085F010008A0
:1000C0005F0100085F0100085F0100085F01000890
:1000D0005F0100085F0100085F0100085F01000880
:1000E0005F0100085F0100085F0100085F01000870
:1000F0005F0100085F0100085F0100085F01000860
:100100005F0100085F0100085F0100085F0100084F
:10011000FB1900085F0100085F0100085F0100088B
:100120005F0100085F0100085F0100085F0100082F
:10013000DFF80CD003F03AF800480047FF1500083C
:10014000981E00200648804706480047FEE7FEE765
:10015000FEE7FEE7FEE7FEE7FEE7FEE7FEE7FEE777
:1001600047020008310100080CB500200190009002
:100170006C48006840F480306A49086000BF6948F4
:10018000006800F4003000900198401C0190009835
:1001900018B90198B0F5A06FF1D16248006800F479
:1001A000003010B10120009001E000200090009884
:1001B000012843D15C48006840F010005A490860AB
:1001C0000846006820F0030008600846006840F018
:1001D0000200086053484068524948600846406839
:1001E00048600846406840F48060486008464068BF
:1001F00020F47C1048600846406840F4E8104860ED
:100200000846006840F08070086000BF45480068FC
:1002100000F000700028F9D04248406820F0030048
:10022000404948600846406840F00200486000BF0E
:100230003C48406800F00C000828F9D10CBD10B50E
:10024000FFF792FF10BD10B53648006840F001007E
:1002500034490860084640683449084031494860DC
:1002600008460068324908402E4908600846006880
:1002700020F4802008600846406820F4FE004860B2
:100280004FF41F008860FFF7DAFF4FF00060294944
:10029000086010BD10B5002100200022214B5B68D2
:1002A00003F00C0121B1042906D0082928D107E068
:1002B000214B224C236027E01F4B204C236023E07E
:1002C000184B5B6803F47010164B5B6803F48032C4
:1002D000022303EB904022B9194B4343174C236090
:1002E0000DE0104B5B6803F4003323B1144B434320
:1002F000124C236003E0104B4343104C236003E097
:100300000D4B0E4C236000BF00BF064B5B68C3F370
:1003100003130C4CE15C094B1B68CB40074C23607A
:1003200010BD000000100240002002400000FFF855
:10033000FFFFF6FE08ED00E000127A00000000204A
:1003400000093D000400002031490143314A116099
:10035000704770B5002100230F22C47804B32D4CE0
:10036000246804F4E064C4F5E064210AC1F10403E4
:10037000CA40447804FA03F1847814402143090107
:10038000254C0678A155047804F01F050124AC40E3
:1003900005786D11AD0005F1E025C5F8004109E0D3
:1003A000047804F01F050124AC401C4D067876113A
:1003B00045F8264070BD1A4A0A400243154B1B1FE0
:1003C0001A60704739B1134A121D12680243114B6B
:1003D0001B1D1A6006E00F4A121D126882430D4B66
:1003E0001B1D1A607047042808D14FF0E0210969ED
:1003F00041F004014FF0E022116107E04FF0E021ED
:10040000096921F004014FF0E022116170470000FA
:100410000000FA050CED00E000E400E080E100E0FF
:1004200080FFFF1F30B943F2DB028100A1F1C04120
:100430000A6005E043F2D2028100A1F1C0410A60E6
:100440006FF07042411C8900A1F1C0410A60810037
:10045000A1F1C041C1F80421704710280AD1182128
:100460004FF020421166402151664FF0FC319166F9
:10047000D16610E01821F74A116040214FF0204268
:10048000C2F884104FF0FC31F24A083211604FF08C
:100490002042C2F88C1070471820EE4920310860C5
:1004A00000200906C1F8A4004FF0FC30E9492831CA
:1004B0000860091D0860091D08607047D0E9011235
:1004C0001143C268114302691143426911438269B1
:1004D0001143C2691143026A1143426A1143826A9D
:1004E0001143C26A1143026B114302689200A2F1E8
:1004F000C0421160816808290BD101688900A1F10F
:10050000C041096841F0400201688900A1F1C04181
:100510000A60416B0968426B526841EA0211426B02
:10052000926841EA0221426B928941EA0241426BA0
:10053000128A41EA0251426B127D41EA0261426B2A
:10054000926911430268521C9200A2F1C0421160EC
:10055000C16AB1F5804F1BD1816B0968826B52680B
:1005600041EA0211826B926841EA0221826B128A8F
:1005700041EA0251826B127D41EA0261826B92690B
:10058000114302689200A2F1C042C2F8041107E0D0
:100590006FF0704201688900A1F1C041C1F80421E7
:1005A000704730B5002100220023446844F008045D
:1005B00085682C43C5682C4305692C43456944EA8A
:1005C0004524856944EA4531C4692468C5696D6874
:1005D00044EA0524C5692D8944EA0544C5692D7B93
:1005E00044EA0562046A2468056A6D6844EA0524E1
:1005F000056A2D8944EA0544056A2D7B44EA0563B2
:100600000468102C05D14FF020442166A266E366F1
:1006100008E0904C21604FF02044C4F888208D4CB5
:100620000C34236030BD016841F01001426841EA9A
:100630004221826841EA4231864A20321160C16813
:100640000968C268526841EA0221C268128941EA17
:100650000241C268127B41EA02617E4A283211607F
:10066000016909680269526841EA02210269128936
:1006700041EA02410269127B41EA0261754A2C3269
:100680001160416909684269526841EA0221426980
:10069000128941EA02414269127B41EA02614FF04C
:1006A0002042C2F8B0107047002101600221416071
:1006B00000218160C160016141618161C1610162AC
:1006C0004FF480514162490081620021C16201639F
:1006D0000F21426B1160426B5160FF21426B9160B0
:1006E0000F21426BD160426B1161426B516100215D
:1006F000426B91610F21826B1160826B5160FF210F
:10070000826B91600F21826BD160826B1161826B71
:1007100051610021826B91617047102101600021BD
:1007200041608160C160016141618161FC21C269F8
:100730001160C2695160C2699160C269D160026A88
:100740001160026A5160026A9160026AD16070476A
:100750000021016041608160FC21C2681160C268B3
:100760005160C2689160C268D1600269116002691B
:100770005160026991600269D16042691160426909
:100780005160426991604269D160704751B1820005
:10079000A2F1C042126842F001038200A2F1C042FD
:1007A000136009E08200A2F1C04212682A4B1A408D
:1007B0008300A3F1C0431A60704799B1102808D193
:1007C0004FF02042126E42F004024FF020431A66AE
:1007D0001DE0204A126842F004024FF02043C3F8A3
:1007E000802014E0102809D14FF02042126E1A4BDD
:1007F000DB1E1A404FF020431A6608E0154A1268C3
:10080000154BDB1E1A404FF02043C3F88020704781
:1008100048B110492031096841F004014FF02042ED
:10082000C2F8A01009E00B49203109680A4AD21E1B
:1008300011404FF02042C2F8A0107047B9B1102803
:100840000CD14FF02042126E42F040024FF0204394
:100850001A661FE0800000A0FEFF0F00724A1268B7
:1008600042F040024FF02043C3F8802012E01028ED
:1008700008D14FF02042126E6C4B1A404FF02043CB
:100880001A6607E0684A1268684B1A404FF0204326
:10089000C3F88020704701460020102903D14FF093
:1008A0002042506F02E0604A14321068704710B561
:1008B000F2B1102807D14FF020435B6E0B434FF08D
:1008C0002044636632E0B0F5807F08D1564B1B1D93
:1008D0001B680B434FF02044C4F8843026E0524B91
:1008E00024331B680B434FF02044C4F8A4301DE0B0
:1008F000102807D14FF020435B6E8B434FF020440C
:10090000636613E0B0F5807F08D1474B1B1D1B6861
:100910008B434FF02044C4F8843007E0424B24332B
:100920001B688B434FF02044C4F8A43010BD10B5B1
:10093000024600200023102A03D14FF02044636EAA
:1009400009E0B2F5807F03D1374C241D236802E013
:10095000354C2434236803EA01040CB1012000E083
:10096000002010BD102807D14FF02042526E8A435C
:100970004FF020435A6613E0B0F5807F08D12A4A31
:10098000121D12688A434FF02043C3F8842007E009
:10099000254A243212688A434FF02043C3F8A4202A
:1009A000704770B502460020002300240025102A5D
:1009B00003D14FF02046736E09E0B2F5807F03D17A
:1009C000194E361D336802E0174E2436336803EAA9
:1009D000010403EAD10514B10DB1012000E00020AB
:1009E00070BD102808D14FF02042526E22EAD10289
:1009F0004FF020435A6615E0B0F5807F09D10A4ACE
:100A0000121D126822EAD1024FF02043C3F884205D
:100A100008E0054A2432126822EAD1024FF020434E
:100A2000C3F8A42070470000800000A0BFFF0F00A3
:100A300010B50446CC48844208D10121042000F0BE
:100A40002DFB0021042000F029FB46E0C74884422A
:100A500008D10121082000F021FB0021082000F02E
:100A60001DFB3AE0C248844208D10121102000F069
:100A700015FB0021102000F011FB2EE0BD48844240
:100A800008D10121202000F009FB0021202000F0E6
:100A900005FB22E0B848844208D10121402000F043
:100AA000FDFA0021402000F0F9FA16E0B348844234
:100AB00008D10121802000F0F1FA0021802000F00F
:100AC000EDFA0AE0AE48844207D10121801500F01A
:100AD000E5FA0021A01500F0E1FA10BD10B50121E2
:100AE000084600F0DBFA0021012000F0D7FA10BD23
:100AF0002DE9F041024600250026002000230024B5
:100B0000002791F803C00CF00F0591F803C00CF01A
:100B1000100CBCF1000F03D091F802C04CEA05059F
:100B200091F800C0BCF1000F31D0146800202BE018
:100B30004FF0010C0CFA00F3B1F800C00CEA030608
:100B40009E4220D183004FF00F0C0CFA03F7BC43F8
:100B500005FA03FC4CEA040491F803C0BCF1280F29
:100B600006D14FF0010C0CFA00FCC2F814C00AE0E8
:100B700091F803C0BCF1480F05D14FF0010C0CFAFD
:100B800000FCC2F810C0401C0828D1D31460B1F892
:100B900000C0BCF1FF0F34DD546800202EE000F1EE
:100BA000080C4FF0010808FA0CF3B1F800C00CEA89
:100BB00003069E4221D183004FF00F0C0CFA03F77D
:100BC000BC4305FA03FC4CEA040491F803C0BCF1F1
:100BD000280F05D100F1080C08FA0CF8C2F81480AF
:100BE00091F803C0BCF1480F07D100F1080C4FF099
:100BF000010808FA0CF8C2F81080401C0828CED36F
:100C00005460BDE8F0814FF6FF71018002218170D0
:100C10000421C17070470246002093680B400BB15D
:100C2000012000E0002070470146886880B27047CC
:100C300002460020D3680B400BB1012000E00020E9
:100C400070470146C86880B27047016170474161D2
:100C500070470AB1016100E041617047C1607047AF
:100C60004FF480320A4382618161826182698269C4
:100C7000704702460020434B18684FF680731840B7
:100C800040EA021008433F4B186070473E49C86174
:100C90007047F0B50A46002300240021002500F02B
:100CA0000046B6F1004F02D1364EF16901E0354EF3
:100CB0007168C0F3034583B200F44016B6F5401FD7
:100CC00008D121F070612F4E766826F070662D4FA6
:100CD0007E6012E000F48016B6F5801F06D1032670
:100CE00006FA05F4A14341F0706106E0460D3601B5
:100CF00003FA06F6B14341F0706122B1460D3601A8
:100D000003FA06F6314300F00046B6F1004F02D177
:100D10001C4EF16101E01B4E7160F0BD30B5002248
:100D20008B071C0F0F2303FA04F2164B08338C10A9
:100D300053F824309343134C08348D1044F8253075
:100D400023468C1053F824308C07240F00FA04F447
:100D500023430C4C08348D1044F8253030BD0A492B
:100D6000DC3108607047000000080140000C0140C1
:100D7000001001400014014000180140001C014017
:100D8000002001400000014000002042DF480068D0
:100D900040F00100DD49086008464068DC49084031
:100DA000DA49486008460068DA490840D7490860CF
:100DB0000846006820F4802008600846406820F457
:100DC000FE0048604FF41F0088607047CF490968F3
:100DD00021F48031CD4A11601146096821F4802147
:100DE0001160B0F5803F03D0B0F5802F0ED106E042
:100DF000C649096841F48031C44A116007E0C3491B
:100E0000096841F4A021C14A116000E000BF00BFA1
:100E1000704710B501460022002300204A11012A24
:100E200002D1BA4C236806E0022A02D1B74C236AE9
:100E300001E0B64C636A01F01F02012494401C409B
:100E40000CB1012000E0002010BD38B5002000905A
:100E50000024002500BF3120FFF7DBFF0546009886
:100E6000401C00900098B0F5A06F01D0002DF2D08A
:100E70003120FFF7CEFF08B1012400E00024204616
:100E800038BD01460020A14A106820F0F80040EA71
:100E9000C10010607047A0490860704702460020FA
:100EA0009A4B586820F47C1042EA01031843974B90
:100EB0005860704798490866704701460020934A79
:100EC000506820F003000843506070478F48406826
:100ED00000F00C007047014600208C4A506820F05A
:100EE000F00008435060704701460020874A506870
:100EF00020F4E06008435060704701460020834AB8
:100F0000506820F4605040EAC1005060704729B139
:100F10007E4A527A02437D4B5A7204E07B4A527AEF
:100F200082437A4B5A7270477B49D83108607047C8
:100F300001460020754A506820F440400843506044
:100F400070470021714A20321170704A82F82010D7
:100F5000012802D004280AD104E001216B4A203282
:100F6000117005E00521694A2032117000E000BFD0
:100F700000BF70476949086070476449096A0143C6
:100F8000624A11627047654944390860704730B55C
:100F900000210022002400235C4D6D6805F00C0147
:100FA00021B1042905D0082923D105E05C4D056055
:100FB00022E05B4D05601FE0544D6D6805F4701232
:100FC000524D6D6805F48034022505EB92421CB940
:100FD000544D554305600BE04C4D6D6805F40035EC
:100FE0001DB1504D5543056002E04D4D5543056020
:100FF00002E04B4D056000BF00BF444D6D6805F039
:10100000F0010909484D6B5C0568DD4045603F4DC6
:101010006D6805F4E061090A434D6B5C4568DD408D
:1010200085603A4D6D6805F46051C90A3E4D6B5CB0
:101030004568DD40C560354D6D6805F44041890B5C
:101040003A4D6B5CC568B5FBF3F5056130BD29B160
:101050002E4A526902432D4B5A6104E02B4A5269D1
:1010600082432A4B5A61704729B1284A9269024348
:10107000264B9A6104E0254A92698243234B9A6188
:10108000704729B1214AD2690243204BDA6104E05A
:101090001E4AD26982431D4BDA61704729B11B4A4F
:1010A000D2680243194BDA6004E0184AD2688243DE
:1010B000164BDA60704729B1144A12690243134B88
:1010C0001A6104E0114A12698243104B1A61704799
:1010D00012494039086070470F49C86470470B498E
:1010E000C87170470948406A40F0807007494862FB
:1010F000704701460020054A92680A400AB1012063
:1011000000E00020704701498872704700100240DB
:101110000000FFF8FFFFF6FE00004242800442425A
:1011200000127A0000093D00140000202400002075
:1011300010B50446FB48844209D101218803FFF71A
:10114000ADFF00214FF48040FFF7A8FF32E0F648E2
:10115000844209D101214804FFF7ADFF00214FF47B
:101160000030FFF7A8FF25E0F048844209D10121B3
:101170008804FFF7A0FF00214FF48020FFF79BFFBA
:1011800018E0EB48844209D10121C804FFF793FF1E
:1011900000214FF40020FFF78EFF0BE0E54884426A
:1011A00008D101210805FFF786FF00214FF48010C8
:1011B000FFF781FF10BD2DE9F04786B005460E46CA
:1011C0000024A24600BFA1460027B08900B100BF9D
:1011D0002F462C8A4CF6FF700440F08804432C8282
:1011E000AC894EF6F3100440B08831890843718908
:1011F00008430443AC81AC8A4FF6FF400440B089F9
:101200000443AC8201A8FFF7C2FEC648874202D160
:10121000DDF810A001E0DDF80CA0A88900F4004082
:1012200040B10AEBCA0000EB0A1031684900B0FB7C
:10123000F1F807E00AEBCA0000EB0A1031688900F8
:10124000B0FBF1F86420B8FBF0F004012009642140
:1012500001FB1089A88900F4004040B1322000EB66
:10126000C900B0FBF1F000F00700044308E03220B1
:1012700000EB09106421B0FBF1F000F00F00044313
:101280002C8106B0BDE8F0874FF4165101600021B3
:101290008180C18001810C214181002181817047C1
:1012A00010B502460020108A4FF2FF0318400B8849
:1012B0004C8823438C882343CC88234318431082D3
:1012C00010BD0021018041808180C180704721B123
:1012D000828942F40052828104E082894DF6FF73D4
:1012E0001A4082817047F0B503460024002600258D
:1012F000002040F66A17B94200D100BF1846C1F37A
:10130000421401F01F06012707FA06F5012C01D14E
:101310000C3004E0022C01D1103000E014301AB17E
:1013200007682F43076002E00768AF430760F0BD1E
:101330001AB1838A0B43838202E0838A8B438382C0
:101340007047028A4FF6F0731A400282028A0A43FB
:101350000282704782894FF2FF731A40828182892C
:101360000A438281704721B1828942F00202828160
:1013700004E082894FF6FD731A4082817047028A29
:101380004FF6DF731A400282028A0A4302827047D4
:1013900021B1028A42F48042028204E0028A4BF6C2
:1013A000FF731A4002827047C1F3080282807047BF
:1013B00001468888C0F308007047818941F0010127
:1013C00081817047028BD2B20283028B42EA0122F2
:1013D00002837047028B02F47F420283028B0A432E
:1013E0000283704721B1828A42F02002828204E0A7
:1013F000828A4FF6DF731A408282704721B1828A57
:1014000042F01002828204E0828A4FF6EF731A40A3
:101410008282704721B1828A42F00802828204E00F
:10142000828A4FF6F7731A408282704721B182890F
:1014300042F40042828103E08289C2F30E0282817B
:10144000704721B1828A42F40062828204E0828A7B
:101450004FF2FF731A4082827047828A4FF6FB7305
:101460001A408282828A0A438282704721B1828A2C
:1014700042F00202828204E0828A4FF6FD731A4033
:101480008282704702460020B1F5007F00D100BF84
:1014900013880B400BB1012000E00020704701F4DD
:1014A0000072B2F5007F00D100BFCA4302807047CE
:1014B00070B50246002400230025002040F66A167D
:1014C000B14200D100BFC1F3421501F01F03012654
:1014D00006FA03F3012D02D19689334006E0022D6E
:1014E00002D1168A334001E0968A33400C1201265D
:1014F00006FA04F41688344013B10CB1012000E060
:10150000002070BD10B50022002340F66A14A142ED
:1015100000D100BF0A1201249440A3B2DC4304802E
:1015200010BD000000380140004400400048004069
:10153000004C00400050004070B5044601F09EFC95
:10154000C5882B46A0220021084601F037FA01F099
:1015500095FC0025224629460A2001F030FC70BD8A
:1015600010B5BCB0044600F03CFB28B98FA228217E
:10157000084601F024FC0BE092A22821142001F07F
:101580001EFC97A23C21052001F019FC00BFFEE7DC
:101590000121A2A000F0DEFA012808D1A2A0FFF7E5
:1015A000CBFF642000F097FAA3A0FFF7C5FF01214D
:1015B000A3A000F0CFFAC82000F08DFA0121A3A06B
:1015C00000F0C8FA0121A4A000F0C4FA0121A6A0ED
:1015D00000F0C0FA2246A9A132A801F039FE01218B
:1015E00032A800F0B7FA2246A8A1684601F030FE02
:1015F0006A463C21142001F0E2FB3CB010BD8AB0E9
:101600002022A64901A801F045FD00F02DFA01F0C5
:1016100057FC00F0B5FEA2A21421282001F0CFFB58
:1016200001A8FFF79DFFC0E0A2488068002824D1F0
:101630001021A148FFF7EFFAF8B9A0A23C2114202D
:1016400001F0BDFB0121A0A000F084FA4FF47A70F4
:1016500000F041FA01219FA000F07CFAF0231A4625
:101660005021002001F0AAF99DA23C21142001F094
:10167000A6FB4FF4FA608F4988608E480068002806
:1016800079D110218C48FFF7C6FA002873D00021C9
:101690004FF6E07001F0F5FB1423F02250210020FA
:1016A00001F08CF991A25021052001F088FB09A8D6
:1016B00001F0E2FC0546BDF824202946914800F0DF
:1016C00003FB84B2C82C51DA002C4FD000214FF616
:1016D000E07001F0D6FB8CA1284601F010FD88B91E
:1016E00020208C4908608CA000F070FA1423F022AE
:1016F0006421002001F062F98BA26421052001F031
:101700005EFB31E08EA1284601F0F9FC90B9202063
:101710008049091F08608DA000F058FA1423F022B8
:101720006421002001F04AF98CA26421052001F017
:1017300046FB19E0C823F0227821002001F03EF991
:1017400000214FF4784001F09CFB8BA2782105200A
:1017500001F035FB00214FF6E07001F092FB694A81
:101760008C21052001F02BFB01F056FC4FF4FA70A0
:101770005049086000BF4F484068B0B910214E483A
:10178000FFF749FA88B1804803780078401C7E4A08
:10179000107001AA7DA1864801F05AFD844800F02E
:1017A00015FA41F28830434948603DE748433035F7
:1017B000206D6F64756C6520646574656374656421
:1017C000210000004E6F2048433035206D6F647556
:1017D0006C652064657465637465642100000000B5
:1017E000506C6561736520636865636B2074686520
:1017F00020686172647761726520636F6E6E6563E5
:1018000074696F6E20616E642072657365742074F4
:1018100068652073797374656D2E000041542B52F6
:10182000455345540D0A00003120656E74657220E1
:101830006572726F7200000031206572726F720003
:1018400041542B4F52474C0D0A00000041542B4984
:101850004E49540D0A00000041542B434C41535350
:101860003D300D0A0000000041542B494E514D3DC2
:10187000312C392C34380D0A0000000041542B4E15
:10188000414D453D25730D0A000000004465766911
:101890006365206E616D653A25730000743500083C
:1018A0004843303520426C7565546F6F746820442E
:1018B000656D6F0068000020000801407761697461
:1018C00020636F6E6E00000041542B494E510D0A8B
:1018D0000000000041542B494E51430D0A00000006
:1018E00073746F702057616974000000426C7565F5
:1018F000746F6F746820636F6E6E656374656421C6
:10190000000000009406002041542B4C4544313D1A
:101910004F4E0000140C01402B4C4544313A4F4EC1
:101920000D0A4F4B0D0A00007265636569766520EC
:10193000636D643A2041542B4C4544313D4F4E0079
:1019400041542B4C4544313D4F4646002B4C4544B9
:10195000313A4F46460D0A4F4B0D0A0072656365DA
:1019600069766520636D643A2041542B4C454431BF
:101970003D4F46460000000072656365697665204C
:10198000646174613A000000280000203C25733E29
:101990002073656E64206461746120746573742CB7
:1019A00074657374646174613D25640D0A00000000
:1019B00094020020704700BFFEE700BFFEE700BFB3
:1019C000FEE700BFFEE770477047704710B500F0B4
:1019D00079F800F08EF800240CE0204850F824003C
:1019E00030B11E4850F82400401E1C4941F8240024
:1019F000601CC4B2032CF0DB10BD10B518480068A1
:101A0000B0F57A7F08DD2020164908600120091D05
:101A100008600220091F086011480068022808DADF
:101A200020201049091D08600120091F08600220BC
:101A300008600B480068B0F57A7F02DD0020084995
:101A4000086007480068022804DA05480068401C5E
:101A50000349086001F0EFFA10BD000068000020A3
:101A60002C000020100C014030B5254800684FF4D0
:101A70007A72B0FBF2F1B1F1807F01D301201DE059
:101A800021F07F40401E4FF0E022506150170F229E
:101A9000002807DA13071D0E1A4B00F00F04241F4D
:101AA0001D5503E013071C0E174B1C5400BF0020EC
:101AB0004FF0E022906107201061002008B100BFC4
:101AC000FEE730BD1148006820B110480068401E94
:101AD0000E49086070470D49086000BF0B4909684E
:101AE0000029FBD1704701460948006808600020C2
:101AF000704707480068401C0549086070470000AF
:101B00000000002018ED00E000E400E030000020BC
:101B10003400002008B501210420FFF7A5FA1020A9
:101B2000ADF8000004208DF8030003208DF80200BA
:101B30006946FE48FEF7DCFF2020ADF800001020CB
:101B40008DF8030003208DF802006946F748FEF780
:101B5000CFFF08BD2DE9F84305460C4605272AE0CE
:101B60002021F248FFF771F80A20FFF7B4FF294659
:101B7000EF4801F043FA00261BE0684601F07CFACA
:101B80008046BDF8000000280EDDEAA1404601F0C5
:101B900093FA30B1012C01D101F03EFA0020BDE8EA
:101BA000F88301F039FA02E06420FFF794FF701C1B
:101BB000C6B2142EE1DB3800A7F10101CFB2CFD1BC
:101BC000012C01D101F028FA0120E8E710B5044604
:101BD0002021D648FFF73BF82146D54801F00EFA00
:101BE00010BD10B5FFF796FF01F0A1F9002416E033
:101BF00004EBC40101EB0412CF4901EB4200CFA179
:101C000001F026FB04EBC40101EB0412CA49FA31CE
:101C100001EB4200C9A101F01BFB601CC4B2052C02
:101C2000E6DB0020C4492C3908700121C4A0FFF76D
:101C300091FF10BD0146002209B90020704722E043
:101C40000B78612B06DB0B78662B03DC0B78573B9C
:101C5000D8B214E00B78412B06DB0B78462B03DC63
:101C60000B78373BD8B20AE00B78302B06DB0B78C9
:101C7000392B03DC0B78303BD8B200E006E000EBF8
:101C80000212491C00BF08780028D9D100BF1046B5
:101C9000D4E72DE9F04105460E461446204601F0F2
:101CA00027FA87B20DB106B114B90020BDE8F08162
:101CB000BE4207D33A462146284601F037FA08B912
:101CC000E819F3E70020F1E7F0B503460C461546A6
:101CD000002221460BE00F781046521C1F54491C6D
:101CE00008780A2802D008780D2800D103E0087887
:101CF00008B1AA42EFDB00BF087838B108780A289B
:101D000004D008780D2801D00020F0BD00209854A0
:101D10001046FAE730B58DB004460D4620218348C1
:101D2000FEF793FF0A20FFF7D6FE45B1287830B1C1
:101D30002B46224684A1684601F08AFA0CE03CB1A9
:101D4000207828B1224683A1684601F081FA03E099
:101D50007BA1684601F07CFA00BF00BF6946744869
:101D600001F04CF90DB030BDFEB504460E462078AA
:101D700008B900BF20E000251BE0201D00EBC500D6
:101D80004068211D01EBC5018978CDE9001602905C
:101D9000211D31F8352005EBC50101EB051304F1D8
:101DA0002C0101EB430033466CA101F051FA681C91
:101DB000C5B22078A842E0DCFEBD2DE9F04F8FB01F
:101DC00004464FF00009CA46002167A0FFF7C2FE93
:101DD0000EA801F051F9804698F80000002873D051
:101DE00064A1404601F068F90028F8D000BF00BFA8
:101DF00000BF8EE008EB0900022202FB0A01BDF8D9
:101E0000382001A8FFF760FF87B2322F08DD3FB10D
:101E100001215AA0FFF79EFE01200FB0BDE8F08F10
:101E200009EB07001FFA80F90AF1010000F0FF0A30
:101E300050A2394601A8FFF72CFF0646002E68D0B5
:101E400025783A212046FFF78FFF4FF0000B10E076
:101E50000BEBCB0000EB0B1204F12C0000EB42016A
:101E600001A801F029F900B1C3E70BF1010000F06E
:101E7000FF0BAB45ECDD3046FFF7DCFE81B2201DE9
:101E800020F835103A21304601F028F906462EB9DF
:101E900001213AA0FFF75EFE0120BEE7711C0E464D
:101EA0000846FFF7C7FEC1B2201D00EBC5008170D8
:101EB0003A21304601F012F9064636B901212FA029
:101EC000FFF748FE0120A8E768E0711C0E460846AF
:101ED000FFF7B0FE211D01EBC5014860201D00EB9E
:101EE000C5004068211D01EBC50100908B78211DC4
:101EF00031F8352005EBC50101EB051C04F12C017F
:101F000001EB4C0020A101F0A3F92078401C2070C7
:101F100000BFBDF83800022101FB1A0048453FF719
:101F200069AF01F079F8012114A033E00008014005
:101F3000004C00404F4B0000A0000020200000009B
:101F400041540D0A0000000041542B257325730DE8
:101F50000A00000041542B25730D0A002558256303
:101F6000255825632558000041542B494E510D0A30
:101F7000000000002B494E513A00000041542B490B
:101F80004E51430D0A00000025583A25583A25586D
:101F900000000000FFF7DEFD00203EE701F03CF806
:101FA0000121AFF22800FFF7D5FD012035E72DE92B
:101FB000F041A8B006462C213046FFF7D5FE00BF01
:101FC00000BF002447E004EBC40000EB041106F15D
:101FD0002C0000EB41028FA101A801F039F900218A
:101FE00001A8FFF7B7FD27A801F046F807463878A3
:101FF00038B3AFF2C001384601F05EF808B3BDF85F
:102000009C2039461AA8FFF75FFE85B2322D03DD0A
:1020100015B100201AA9485582A229461AA8FFF72F
:1020200038FE8046B8F1000F11D004EBC40101EB7B
:10203000041206F5937101EB4200414601F06DF880
:1020400005E000F0E9FF012028B0BDE8F08100F0D4
:10205000E3FF601CC4B23078A042B4DC0020F3E798
:1020600030B599B00546287808B900BF74E000BFC4
:1020700000BF2A786DA1684601F0EAF800214FF40C
:10208000784000F0FEFEC823F0227821002000F006
:1020900095FC6A467821322000F091FE002458E039
:1020A000214667A001F0C4F804EBC40000EB041261
:1020B00005F12C0000EB42016DA001F0B9F804EB32
:1020C000C40000EB041205F5937000EB420171A00F
:1020D00001F0AEF800214FF6E07000F0D2FE22468B
:1020E00075A1684601F0B4F8C4EB04108C2202EB31
:1020F00080016A46052000F062FE04EBC40000EB9C
:10210000041105F12C0000EB410273A1684601F0B7
:102110009FF8C4EB0410A02202EB80016A46052060
:1021200000F04DFE04EBC40000EB041105F59370C4
:1021300000EB41026CA1684601F08AF8C4EB041080
:10214000B42202EB80016A46052000F038FE601CD4
:10215000C4B22878A042A3DC19B030BD10B59AB043
:1021600000246548FFF729FE6348FFF720FF624817
:10217000FFF776FF00BF46E004EBC40101EB041259
:102180005E4901EB42005EA100F096FF002838D0C6
:102190005DA001F04DF800214FF6E07000F071FEF7
:1021A0001423F0225021002000F008FC65A25021E9
:1021B000052000F004FE2C214F48FFF7D5FD04EB6D
:1021C000C40000EB04114C482C3000EB410264A128
:1021D00001A801F03DF8002101A8FFF7BBFC04EBCA
:1021E000C40000EB041144482C3000EB410260A114
:1021F00001A801F02DF8002101A8FFF7ABFC1AB0EF
:1022000010BD601CC4B23C480078A042B4DA012082
:10221000F5E7000041542B524E414D453F25730DCB
:102220000A0000002B524E414D453A002025642003
:1022300064657669636520666F756E642E000000C4
:102240003C3C2D484330352D494E464F2D3E3E20D7
:102250002F2A2A2A2A2A2A2A4465766963655B2559
:10226000645D2A2A2A2A2A2A2A2A2F0A0000000024
:102270003C3C2D484330352D494E464F2D3E3E20A7
:1022800044657669636520416464723A2025730A67
:10229000000000003C3C2D484330352D494E464F50
:1022A0002D3E3E20446576696365206E616D653A1A
:1022B0002025730A00000000202F2A2A2A2A2A2A11
:1022C0002A4465766963655B25645D2A2A2A2A2A81
:1022D0002A2A2A2F000000004465766963652041A0
:1022E0006464723A20257300446576696365206EE4
:1022F000616D653A20257300740000209A0100206A
:1023000048433035000000003C3C2D484330352D1B
:10231000494E464F2D3E3E20CBD1CBF7B5BDD4B66E
:10232000B3CC48433035C4A3BFE9A3ACBCB4BDAB08
:10233000BDF8D0D0C5E4B6D4C1ACBDD32E2E2E0A84
:1023400000000000466F756E642061204843303500
:10235000202C636F6E656374696E672E2E2E0000ED
:1023600041542B504149523D25732C32300D0A0007
:1023700041542B4C494E4B3D25730D0A0000000083
:1023800008B501210820FEF76FFE2020ADF80000FF
:1023900010208DF8030003208DF8020069460F48D5
:1023A000FEF7A6FB0120ADF8000069460B48FEF7DA
:1023B0009FFB0220ADF8000069460848FEF798FB35
:1023C00020210648FEF741FC01210448FEF73DFCB0
:1023D00002210248FEF739FC08BD0000000C014054
:1023E00001B502E00098401E009000980028F9D145
:1023F00008BD08B501216020FEF736FE03208DF8E8
:10240000020018208DF803004FF48040ADF8000062
:102410006946FE48FEF76CFB4FF40040ADF8000043
:102420006946FA48FEF764FB0120ADF800006946F2
:10243000F648FEF75DFB0220ADF800006946F34860
:10244000FEF756FB8020ADF800006946F048FEF725
:102450004FFB4FF48070ADF800006946EC48FEF782
:1024600047FB4FF40070ADF800006946E848FEF7FE
:102470003FFB4FF48060ADF800006946E448FEF78A
:1024800037FB4FF40060ADF800006946E048FEF706
:102490002FFB4FF48050ADF800006946DC48FEF792
:1024A00027FB4FF40050ADF800006946D848FEF70E
:1024B0001FFB4FF48040ADF800006946D448FEF79A
:1024C00017FB4FF40040ADF800006946D048FEF716
:1024D0000FFB4FF48070ADF800006946CB48FEF763
:1024E00007FB4FF40070ADF800006946C748FEF7DF
:1024F000FFFA4FF48060ADF800006946C348FEF76C
:10250000F7FA03208DF8020018208DF80300102040
:10251000ADF800006946BD48FEF7EAFA2020ADF8A4
:1025200000006946B948FEF7E3FA8020ADF80000E4
:102530006946B648FEF7DCFA4FF40060ADF80000DB
:102540006946B248FEF7D4FA10208DF80300032044
:102550008DF802000220ADF800006946AC48FEF795
:10256000C7FA10208DF8030003208DF802004FF405
:102570008050ADF800006946A448FEF7B9FA08BDDE
:1025800000B597B001210802FEF761FD012001901E
:10259000042003908006079000200290049005908C
:1025A00006900890099008200A9010200B900020B7
:1025B0000C900E900F9010904FF4805011900020CE
:1025C00012901390149001A81590169008A8FDF78A
:1025D00075FF01210020FEF7D9F817B000BD10B536
:1025E000CF2000F01BFE002000F01CFE812000F038
:1025F00019FE302000F016FEED2000F00FFE6420E2
:1026000000F010FE032000F00DFE122000F00AFE84
:10261000812000F007FEE82000F000FE852000F099
:1026200001FE102000F0FEFD782000F0FBFDCB2025
:1026300000F0F4FD392000F0F5FD2C2000F0F2FD53
:10264000002000F0EFFD342000F0ECFD022000F04F
:10265000E9FDF72000F0E2FD202000F0E3FDEA2094
:1026600000F0DCFD002000F0DDFD002000F0DAFDD0
:10267000B12000F0D3FD002000F0D4FD1B2000F0BD
:10268000D1FDB62000F0CAFD0A2000F0CBFDA2204B
:1026900000F0C8FDC02000F0C1FD352000F0C2FDF3
:1026A000C12000F0BBFD112000F0BCFDC52000F0F2
:1026B000B5FD452000F0B6FD452000F0B3FDC72074
:1026C00000F0ACFDA22000F0ADFDF22000F0A6FD70
:1026D000002000F0A7FD262000F0A0FD012000F062
:1026E000A1FDE02000F09AFD0F2000F09BFD2620C8
:1026F00000F098FD242000F095FD0B2000F092FDE5
:102700000E2000F08FFD092000F08CFD542000F019
:1027100089FDA82000F086FD462000F083FD0C20F6
:1027200000F080FD172000F07DFD092000F07AFD0B
:102730000F2000F077FD072000F074FD002000F06E
:1027400071FDE12000F06AFD002000F06BFD192012
:1027500000F068FD1B2000F065FD042000F062FD24
:10276000102000F05FFD072000F05CFD2A2000F043
:1027700059FD472000F056FD392000F053FD03209D
:1027800000F050FD062000F04DFD062000F04AFD4F
:10279000302000F047FD382000F044FD0F2000F00D
:1027A00041FD362000F03AFDC82000F03BFD2A2014
:1027B00000F034FD002000F035FD002000F032FD77
:1027C000002000F02FFDEF2000F02CFD2B2000F06A
:1027D00025FD002000F026FD002000F023FD012053
:1027E00000F020FD3F2000F01DFD3A2000F016FD16
:1027F000552000F017FD112000F010FD0548FFF7EF
:10280000EFFD292000F00AFD10BD0000001401407A
:1028100000180140FCBF020010B50446072C00DD83
:1028200010BDFE480470204604EBD0714910A4EBA3
:10283000410139B9F020FA4908804FF4A070F949F4
:10284000088006E04FF4A070F5490880F020F549B3
:102850000880362000F0E2FC082141EA441000F034
:10286000E1FC2A2000F0DAFC002000F0DBFC002074
:1028700000F0D8FCEA490988491EC1F3072000F09E
:10288000D1FCE7490978491EC8B200F0CBFC2B20E7
:1028900000F0C4FC002000F0C5FC002000F0C2FCE9
:1028A000E0490988491EC1F3072000F0BBFCDD495F
:1028B0000978491EC8B200F0B5FC2C2000F0AEFC2F
:1028C00000BFADE710B50221D748FEF7C0F940F6CA
:1028D000FF20FFF785FD0221D348FEF7B6F940F649
:1028E000FF20FFF77DFD10BD10B504462CB14FF45D
:1028F0008051CE48FEF7ABF904E04FF48051CB484D
:10290000FEF7A3F910BD10B5FFF773FDFFF738FE12
:102910000120FFF7E9FFFFF7D5FFFFF760FEBF4893
:102920000078FFF779FF10BD2DE9F04104460D4610
:1029300016461F462A2000F071FC201200F072FC9F
:10294000E0B200F06FFCA119491EC1F30F2000F0A6
:1029500069FCA119491EC8B200F064FC2B2000F0EC
:102960005DFC281200F05EFCE8B200F05BFCE919A7
:10297000491EC1F30F2000F055FCE919491EC8B2E9
:1029800000F050FCBDE8F08170B504460D4601230F
:102990001A4629462046FFF7C7FF70BD70B50446AA
:1029A0000D4600262C2000F039FC00BF03E028462D
:1029B00000F038FC761CA642F9D370BD2DE9F04139
:1029C00006460F4614461D462B46224639463046DB
:1029D000FFF7AAFF04FB05F095490988FFF7DEFF22
:1029E000BDE8F08170B505460C468D4800888542EB
:1029F0000CDA8C480088844208DA21462846FFF722
:102A0000C3FF8C4801880120FFF7C8FF70BD70B577
:102A10000024002500262E2000F000FC00F0F8FB2A
:102A2000044600F0F5FB044600F0F2FB064600F019
:102A3000EFFB0546E012C002A91240EA411040EA4D
:102A4000E62070BD70B504460D4629462046FFF7C6
:102A50009BFFFFF7DCFF0646304670BD2DE9FF4FB8
:102A600083B081464FF0000AD3460598A0EB0905D4
:102A700004990698461ACDF8049004980090002D09
:102A800001DD012705E00DB9002702E04FF0FF3717
:102A90006D42002E02DD4FF0010806E016B94FF03E
:102AA000000802E04FF0FF387642B54201DD2C46C7
:102AB00000E034460020029019E0DDE90010FFF745
:102AC00091FFAA44B344A24505DDAAEB040A01988C
:102AD000384480B20190A34505DDABEB040B0098B0
:102AE000404480B200900298401C80B20290611C69
:102AF00002988842E1DD07B0BDE8F08F2DE9F04192
:102B000004460D4616461F46DDF81880B8F1000F42
:102B10000CD03B46324629462046FFF705FF06FB10
:102B200007F044490988FFF739FF27E0A019401E44
:102B300082B22B4629462046FFF790FFE819401E37
:102B400083B2A019401E82B2E819401E81B220460D
:102B5000FFF784FFE819401E83B22246294620462B
:102B6000FFF77CFFE919491E8BB2A119491E8AB2F1
:102B7000A119491E88B22946FFF770FFBDE8F08110
:102B80002DE9F05F05460E4691469B4600240FFA5C
:102B900089F70320A0EB49000FFA80FA97E0BBF118
:102BA000000F50D0A0464BE006EB080291B22A1964
:102BB00090B2FFF717FF06EB080291B22A1B90B202
:102BC000FFF710FF321991B2A5EB080290B2FFF7A0
:102BD00009FF321B91B2A5EB080290B2FFF702FF8A
:102BE000A6EB080291B22A1B90B2FFF7FBFEA6EB00
:102BF000080291B22A1990B2FFF7F4FE321B91B28B
:102C000005EB080290B2FFF7EDFE321991B205EB29
:102C1000080290B2FFF7E6FE0EE000003C00002044
:102C2000380000203A000020001801400014014044
:102C3000460000204400002008F101000FFA80F84F
:102C4000B845B1DD2FE0F21991B22A1990B2FFF721
:102C5000C9FEF21991B22A1B90B2FFF7C3FE3219D6
:102C600091B2EA1B90B2FFF7BDFE321B91B2EA1B94
:102C700090B2FFF7B7FEF21B91B22A1B90B2FFF79A
:102C8000B1FEF21B91B22A1990B2FFF7ABFE321BD4
:102C900091B2EA1990B2FFF7A5FE321991B2EA1982
:102CA00090B2FFF79FFE601C04B2BAF1000F05DA84
:102CB000A000801D50440FFA80FA07E0E01B80005E
:102CC0000A3050440FFA80FA781E07B200BFBC42A7
:102CD0007FF765AFBDE8F09F2DE9F05F804689463C
:102CE0001646A6F120001FFA80FA814909688988F2
:102CF0007F4A1268D28801FB02F0C11700EB5171C4
:102D0000C1F3C7077A48006800680AFB070B7848D8
:102D10000068C38876480068828849464046FFF7C5
:102D200003FE2C2000F07AFA002416E0002510E0C3
:102D30001BF8040080212941084020B16D4800881B
:102D400000F070FA03E06C48008800F06BFA681C31
:102D5000C5B2082DECDB601CC4B2BC42E6DBBDE8AA
:102D6000F09F70B504460D46002624E030466049C9
:102D700009688988084461490988884205DD002678
:102D80005B480068C088204484B2204658490968DE
:102D9000C98808445A490988884201DD0026002470
:102DA0002A7821463046FFF797FF6D1C504800688F
:102DB0008088304486B228780028D7D170BD70B59D
:102DC00005460E46144624E0284649490968898884
:102DD00008444A490988884205DD002544480068BE
:102DE000C088304486B2304641490968C9880844E1
:102DF00043490988884201DD0025002622783146B2
:102E00002846FFF769FF641C394800688088284419
:102E100085B220780028D7D170BD70B505460E4622
:102E2000144624E0304632490968C98808443449C8
:102E30000988884205DD00262D48006880882844DE
:102E400085B228462A490968898808442B49098897
:102E5000884201DD00250026227831462846FFF70A
:102E60003BFF641C22480068C088304486B220784A
:102E70000028D7D170BD1E49086070471C48006803
:102E800070471C4A10801C4A11807047194A1288EA
:102E90000280194A12880A807047164908807047D4
:102EA00015490880704770B50446FFF7E7FFC588ED
:102EB0002B461248028821460020FFF77FFD70BD97
:102EC00010B5FFF720FD0620FFF7A6FC0D48FFF721
:102ED000D2FF00214FF47840FFF7D3FF0848038862
:102EE0000648028800210846FFF768FD10BD000073
:102EF0004000002044000020460000203800002050
:102F00003A0000204800002008B54FF4E060FDF7CB
:102F10001BFA34208DF8000001208DF801008DF897
:102F200002008DF803006846FDF713FA08BD00B5EE
:102F300085B00121C804FEF7A4F801211020FEF796
:102F400093F84FF48060ADF8100018208DF813004E
:102F500003208DF8120004A94A48FDF7C9FD4FF47B
:102F60000060ADF8100004208DF8130004A9454856
:102F7000FDF7BEFD4FF4164000900020ADF80400B0
:102F8000ADF80600ADF80800ADF80C000C20ADF867
:102F90000A0069463C48FEF70EF9FFF7B5FF01222B
:102FA00040F225513848FEF79EF901213648FEF7D8
:102FB0008EF940213448FEF772FA05B000BD70B5B5
:102FC00004460D4629462046FEF7EEF900BF802153
:102FD0002046FEF757FA0028F9D070BD2DE9F041E0
:102FE00007460D461646002400BF295D3846FFF708
:102FF000E6FF641CB442F8D3BDE8F08170B5064624
:103000000C46002500BF615D3046FFF7D8FF6D1C00
:10301000605D0028F7D170BD40F2014000211B4ADD
:10302000118005E00022411E89B20846184B5A540F
:103030000028F7D1704710B514480088B0F5806FAC
:1030400012DA40F225511048FEF732FA98B10E48D4
:10305000FEF7AEF90E490D4A128888540B480088D5
:10306000401C0A49088006E040F225510648FEF758
:1030700049FAFFF7D1FF10BD0146044800880880D7
:103080000348704700100140004C004060000020E1
:10309000940A002040EA01039B0703D009E008C915
:1030A000121F08C0042AFAD203E011F8013B00F80D
:1030B000013B521EF9D2704730B505462A460B46F1
:1030C00012F8010B13F8014B08B1A042F8D01CB163
:1030D000002802D06D1CF1E7284630BDCAB2401E60
:1030E00010F8011F8A4202D00029F9D10020704750
:1030F000421C10F8011B0029FBD1801A704710B543
:10310000002200E0521C835C8C5CA34201D1002BA6
:10311000F8D1D8B2E1B2401A10BD034611F8012B24
:1031200000F8012B002AF9D11846704730B5054642
:103130000020034600E05B1C934205D2EC5CC85CB7
:10314000201A01D1002CF6D130BD2DE9F05F0546E3
:10315000002092469B4688460646814640241BE056
:10316000284641464746224600F041F853465A4613
:10317000C01A914110D311461846224600F028F893
:103180002D1A67EB01084F4622460120002100F06E
:103190001FF817EB00094E41201EA4F10104DFDCEB
:1031A000484631462A464346BDE8F09F064C074D47
:1031B00006E0E06840F0010394E807009847103407
:1031C000AC42F6D3FCF7B8FFF470000814710008A5
:1031D000202A04DB203A00FA02F1002070479140D7
:1031E000C2F1200320FA03F3194390407047202ACC
:1031F00004DB203A21FA02F00021704721FA02F3A1
:10320000D040C2F1200291400843194670470000A7
:103210000148008870470000000002604FF0C04184
:103220000880704701490880704700000000026074
:103230000FB4054B10B503A9044A029800F02CF80E
:1032400010BC5DF814FB000063350008640000202A
:103250000FB4084B10B504A902AA039800F01CF89B
:10326000044602A9002000F077F9204610BC5DF862
:1032700014FB00005935000802E008C8121F08C1FD
:10328000002AFAD170477047002001E001C1121FE7
:10329000002AFBD1704700002DE9FF4F8DB09B46FF
:1032A0000F460446002606E025280BD05A460F9903
:1032B0009047641C761C20780028F5D111B0304668
:1032C000BDE8F08F0025A8460122984900E005439B
:1032D00014F8013F203B02FA03F00842F7D12078AE
:1032E0002E2817D114F8010F45F004052A280ED016
:1032F0006FF02F022078A0F1300109290AD808EBDD
:10330000880102EB410100EB0108641CF2E757F869
:10331000048B641C20786C280DD004DC4C2812D05F
:103320006A2811D104E074280DD07A280CD10AE063
:1033300045F4001507E0617845F48015814202D11B
:10334000641C05F58015641C2278692A45D008DCC8
:10335000002AB3D0582A69D0632A10D0642A08D131
:103360003BE0702A67D0732A13D0752A5CD0782A84
:103370005CD010465A460F999047761CD3E017F858
:10338000040B8DF8000000208DF80100E9460120B3
:1033900003E057F8049B4FF0FF3069074FF000053A
:1033A00001D40AE06D1C45450DDA8542FADB19F8B7
:1033B00005100029F6D106E06D1C8542FCDB19F8EA
:1033C00005100029F8D12E4404E019F8010B5A46E3
:1033D0000F9990476D1EF8D2A5E00A200021CDE993
:1033E0000801C5F3025002280DD001CFC117031EFA
:1033F00071F100030DDA4FF0000CD0EB0C006CEB18
:1034000001012D2308E0FF1D27F00707F7E802015F
:10341000EDE72B0504D52B238DF8283001233BE065
:10342000EB0739D02023F7E70A2000E01020002125
:10343000CDE9080107E01020002145F00405CDE9A1
:1034400008014FF00808C5F3025002280FD001CF41
:1034500000214FF0000A2B071FD5702A0DD0DDE99F
:1034600008C38CF0100C5CEA030C0CD015E0FF1DB7
:1034700027F00707F7E80201EBE740228DF8282044
:103480004FF0010A0BE050EA010306D030238DF81B
:1034900028308DF8292002239A46582A04D024A2E5
:1034A0000DF120090B9209E026A2F9E7DDE90823D6
:1034B000FFF74BFE0B9B9B5C09F8013D50EA0102B4
:1034C000F4D1ADEB090020300890680701D44FF02B
:1034D00001080899884502DDA8EB010000E0002002
:1034E0008046002506E00AA85A46405D0F9990479D
:1034F0006D1C761C5545F6DB04E030205A460F99CA
:103500009047761CB8F10001A8F10108F5DC05E050
:1035100019F8010B5A460F999047761C0899481ED6
:1035200008900029F4DC641CC5E6000009280100AD
:103530003031323334353637383961626364656629
:1035400000000000303132333435363738394142EB
:1035500043444546000000000A68531C0B6010708D
:10356000704738B504468DF8000069460320ABBEAD
:10357000204638BD484330355F534C415645000026
:10358000000000000000000000000000000000003B
:10359000000000000000000000000000000000002B
:1035A0000000000000181818181818080008180063
:1035B000000000000034242424000000000000006B
:1035C00000000000000016247F2424247E24240010
:1035D0000000000000083E6848681C1612127C10AB
:1035E000100000000061D296740810162949C60028
:1035F0000000000000003C646438724ACE467F0040
:10360000000000000018181818000000000000005A
:10361000000000000004081810303030301010187E
:103620000C04000000201008080C0404040C081806
:103630001020000000080A341C6A08000000000086
:1036400000000000000000001818187F181818006B
:103650000000000000000000000000000018180832
:1036600030000000000000000000003C00000000EE
:10367000000000000000000000000000001818001A
:1036800000000000000206040C0808101020204072
:103690000000000000003C6642475B7342663C004D
:1036A00000000000000018784808080808087E009C
:1036B0000000000000003C460606040810207E00C2
:1036C0000000000000007C0606043C0202067C00AC
:1036D0000000000000000C1C14246444FF040400DB
:1036E0000000000000007E6060607E0202067C0038
:1036F0000000000000001E306048764242623C003C
:103700000000000000007E0206040C0818103000C3
:103710000000000000003C6242361C6642423C0051
:103720000000000000003C664242661A0204780075
:103730000000000000000000181800000018180029
:103740000000000000000000181800000018180811
:10375000300000000000000004183060100C06006B
:10376000000000000000000000007E007E0000005D
:103770000000000000000000301804060C102000BB
:103780000000000000301C06060618100010100093
:1037900000000000001C224141DDB5A5A5AF94C08A
:1037A000403C00000000181C342426627E43C10007
:1037B0000000000000007C4642467C4242427C0001
:1037C0000000000000001E204040404040603E00DD
:1037D0000000000000007C4642434343424678001C
:1037E0000000000000007E6060607E6060607E001F
:1037F0000000000000007E6060607E60606060002D
:103800000000000000001E604040CE4242623E00C8
:10381000000000000000424242427E42424242001A
:103820000000000000007E181818181818187E00F4
:103830000000000000007C04040404040444780038
:103840000000000000004244485070584C444200C0
:1038500000000000000020202020202020203E002A
:103860000000000000006266675F5B5BC1C1C100D1
:10387000000000000000626272525A4A4E46460042
:103880000000000000003C6243C3C3C343623C002D
:103890000000000000007C46424246784040400064
:1038A0000000000000003C6243C3C3C343623C18F5
:1038B0000F00000000007C6662667C6C646662003B
:1038C0000000000000003E6040601C0602027C0018
:1038D0000000000000007F181818181818181800A9
:1038E00000000000000042424242424242623C006C
:1038F000000000000000C14342622624341C18006E
:10390000000000000000C1C141495B5B76666600B3
:1039100000000000000043663418181C2466C30031
:10392000000000000000C14266341C18181818007E
:103930000000000000007E02040C181020607E00D1
:1039400000000000001C10101010101010101010BB
:10395000101C000000402020101008080C04060273
:1039600000000000003C0C0C0C0C0C0C0C0C0C0CA3
:103970000C3C00000000181C246200000000000045
:103980000000000000000000000000000000000037
:1039900000FF0000002010000000000000000000F8
:1039A00000000000000000003C06023E42467A0093
:1039B00000000000004040405C62424242427C0005
:1039C00000000000000000001E20604060203E005B
:1039D00000000000000202023E62424242663A00DB
:1039E00000000000000000003C62427E40603E009B
:1039F00000000000000F1810107E101010101000B2
:103A000000000000000000003F66426658403E4350
:103A1000423C0000004040405C6242424242420060
:103A200000000000001818007808080808087E0048
:103A30000000000000040C007C04040404040404DE
:103A40000C78000000606060626C787068646200EE
:103A500000000000007808080808080808087E0030
:103A60000000000000000000764B4B4B4B4B4B001E
:103A700000000000000000005C624242424242003E
:103A800000000000000000003C62424342623C0033
:103A900000000000000000005C62424242427C40A4
:103AA00040400000000000003E62424242663A028E
:103AB00002020000000000006E726360606060003F
:103AC00000000000000000003E20203C06027C00B8
:103AD0000000000000001010FE10101010101E005A
:103AE00000000000000000004242424242663A00EC
:103AF0000000000000000000434266243418180053
:103B00000000000000000000C1C15B5A5E66660054
:103B1000000000000000000062261C181C26620045
:103B2000000000000000000043426624341C181806
:103B300030E00000000000007E060C1810207E001F
:103B400000000000000E181010103070101010103F
:103B5000180E0000080808080808080808080808DF
:103B6000080800000030180808080C0E08080808AB
:103B700018300000000000000000714B060000003B
:103B80000000000000000000000000000000000035
:103B90000000000000000000000000000000000025
:103BA0000000000000000000000000000000000015
:103BB0000000000000000000000000000380018001
:103BC00001800180018001800180018001800180ED
:103BD0000000000003C003C000000000000000005F
:103BE0000000000000000000000000000E700E70D9
:103BF0000E700C300000000000000000000000000B
:103C000000000000000000000000000000000000B4
:103C10000000000000000000000000000000061886
:103C2000063806307FFE0C300C300C300C307FFE36
:103C30000C601C60186018600000000000000000AC
:103C40000000000000000000000000C000C00FF8ED
:103C50003CC831C031803D801F8003F001F8031C57
:103C6000030C031C3FF83FE00700060000000000C3
:103C7000000000000000000000001C007E0E630C2D
:103C8000631863307E6000C001800300077C0EE68D
:103C90001CC618C630C6607C000000000000000092
:103CA0000000000000000000000000000FE01CF019
:103CB000387038701C601FC00F003F8C71CC60ECF6
:103CC000607C70383CFC1FCE00000000000000004B
:103CD00000000000000000000000000003C00180A0
:103CE00001800180000000000000000000000000D2
:103CF00000000000000000000000000000000000C4
:103D000000000000000000000000003000E001C0E2
:103D1000018003000700060006000E000E000E00E2
:103D20000E00060007000300038001C000E0003021
:103D3000000000000000000000000C0006000380EE
:103D4000018001C000E00060006000700070007041
:103D50000060006000E000C00180038006000C00ED
:103D60000000000000000000000000000180118839
:103D70001DB803C007E03DBC0188018000000000C1
:103D80000000000000000000000000000000000033
:103D90000000000000000000000000000000000023
:103DA0000000018001800180018001807FFE018090
:103DB0000180018001800000000000000000000080
:103DC00000000000000000000000000000000000F3
:103DD00000000000000000000000000000000000E3
:103DE000000003C003C001C001C003801F00000029
:103DF00000000000000000000000000000000000C3
:103E00000000000000000000000000000FF00000B3
:103E100000000000000000000000000000000000A2
:103E20000000000000000000000000000000000092
:103E30000000000000000000000000000000000082
:103E4000000003C003C003C0000000000000000029
:103E50000000000000000000000000000018003812
:103E60000030006000E000C001C0018003000300DA
:103E700006000E000C001C001800300000000000BE
:103E800000000000000000000000000001800FF0B2
:103E90001C38381C301C707E70EE738E7E0E7C0CCD
:103EA000300C381C1E780FE00000000000000000FD
:103EB000000000000000000000000000000007C03B
:103EC0001FC039C001C001C001C001C001C001C094
:103ED00001C001C03FFC3FFC0000000000000000EA
:103EE00000000000000000000000000003801FF040
:103EF00018380038001800380038007001E00380DE
:103F000007001C003FFC3FFC000000000000000018
:103F100000000000000000000000000007801FF00B
:103F2000003800380038003007E007F00038001C87
:103F3000001C001820F83FE0000000000000000016
:103F4000000000000000000000000000000000F081
:103F500001B0033007300E301C30383070307FFE37
:103F60007FFE003000300030000000000000000044
:103F700000000000000000000000000000001FF82A
:103F800018001800180018001FE000F8001C001CA2
:103F9000001C003800F01FC00000000000000000FE
:103FA000000000000000000000000000000003F816
:103FB0000F001C001800300037F83C3C300C300C6F
:103FC000380C381C1E380FF0000000000000000004
:103FD00000000000000000000000000000003FFCA6
:103FE000001C001800380070006000E001C0018073
:103FF0000380070006000E00000000000000000023
:1040000000000000000000000000000003C01FF8D6
:10401000381C381C381C1C380FF007F01C78381C72
:10402000300C381C3C380FF000000000000000008D
:1040300000000000000000000000000003801FF0EE
:104040003838301C701C700C380C1FFC0FCC001C56
:10405000001800701FE01F8000000000000000003A
:104060000000000000000000000000000000000050
:104070000000000003C003C0018000000000000039
:10408000000003C003C003C00000000000000000E7
:104090000000000000000000000000000000000020
:1040A0000000000003C003C0018000000000000009
:1040B000000003C003C001C001C003800F00000066
:1040C00000000000000000000000000000000000F0
:1040D0000000003800F001C007001E0038000E008C
:1040E000078001C0007000300000000000000000E8
:1040F00000000000000000000000000000000000C0
:1041000000000000000000003FFC000000003FFC39
:104110003FFC000000000000000000000000000064
:10412000000000000000000000000000000000008F
:1041300000001C000F00038001E00078001C0070EC
:1041400001E003800E000C000000000000000000F1
:104150000000000000000000000000000FC000F0A0
:10416000003800380038003803F0038003000300F3
:104170000000000007800780000000000000000031
:104180000000000000000000000000E007F80C0C38
:1041900018063006700363F36633C673CC63CC62D3
:1041A000CC66CCE6C7FCE0006000700038101FF061
:1041B000000000000000000000000000000003C03C
:1041C00007E006E00E700E700C301C3818183FFC2B
:1041D0003FFC700E600EE0070000000000000000D1
:1041E00000000000000000000000000000003FF0A0
:1041F0003838381C381C38383FF03FF8381C380C39
:10420000380C381C3FF83FE00000000000000000C0
:1042100000000000000000000000000000E007FCBB
:104220001E0438003800300070007000700030004C
:1042300038003C001F9C07FC00000000000000004C
:1042400000000000000000000000000000003FF03F
:104250003078301C300C300E300E300E300E300EF8
:10426000301C30383FF03FC000000000000000006C
:1042700000000000000000000000000000001FF827
:1042800018001800180018001FF81FF81800180070
:10429000180018001FF81FF80000000000000000C0
:1042A00000000000000000000000000000001FF8F7
:1042B00018001800180018001FF81FF81800180040
:1042C000180018001800180000000000000000008E
:1042D00000000000000000000000000000F007FCEB
:1042E0001E04380030007000700070FC700C700C00
:1042F000300C380C1F1C07FC000000000000000000
:104300000000000000000000000000000000300C71
:10431000300C300C300C300C3FFC3FFC300C300CBF
:10432000300C300C300C300C00000000000000009D
:1043300000000000000000000000000000003FFC42
:104340000180018001800180018001800180018065
:10435000018001803FFC3FFC0000000000000000E5
:1043600000000000000000000000000000001FF03E
:1043700000300030003000300030003000300030BD
:10438000003000701DE01FC00000000000000000B1
:104390000000000000000000000000000000381CC9
:1043A000387038E039C03B803F003F003B8039C067
:1043B00038E038703838381C000000000000000079
:1043C00000000000000000000000000000001C00D1
:1043D0001C001C001C001C001C001C001C001C00FD
:1043E0001C001C001FFC1FFC00000000000000005F
:1043F0000000000000000000000000000000381C69
:104400007C3C6C3E6E6E666E66CE63C6638661866D
:104410006006600660066006000000000000000004
:1044200000000000000000000000000000003C0C44
:104430003C0C3E0C360C330C338C318C31CC30ECD4
:10444000306C307C303C301C00000000000000006C
:1044500000000000000000000000000001C00FF894
:104460001C3C381C700E700E60066006700E700EDC
:10447000700C381C1E780FE00000000000000000E7
:1044800000000000000000000000000000003FF0FD
:10449000383C381C380C380C381C38783FE0380071
:1044A000380038003800380000000000000000002C
:1044B00000000000000000000000000001C00FF834
:1044C0001C3C381C700E700E60066006700E700E7C
:1044D000700C381C1E780FE0018001C000FF003C0A
:1044E00000000000000000000000000000003FF09D
:1044F000383838183818383838F03FC038E0387055
:1045000038383838381C380E000000000000000031
:1045100000000000000000000000000001E00FF8B3
:104520003800380038003C001F8003F00078001C81
:10453000001C001C38783FE0000000000000000074
:1045400000000000000000000000000000007FFEEE
:104550000180018001800180018001800180018053
:104560000180018001800180000000000000000047
:104570000000000000000000000000000000300CFF
:10458000300C300C300C300C300C300C300C300C4B
:10459000300C381C1C380FF0000000000000000038
:1045A0000000000000000000000000000000E00625
:1045B000700E700E381C381C1C181C380C300E7015
:1045C000066007E003C003C0000000000000000018
:1045D0000000000000000000000000000000600675
:1045E0006006600660066186638673C673CE766C6D
:1045F000366C3C3C3C3C381C0000000000000000D5
:104600000000000000000000000000000000301C5E
:1046100038181C380E7007E003C003C007E00E70A6
:104620001C381838381C700E000000000000000014
:104630000000000000000000000000000000700EFC
:10464000700C381C1C380E70066007E003C0018037
:104650000180018001800180000000000000000056
:1046600000000000000000000000000000003FFC0F
:10467000001C0038007000E001C0038007000E003D
:104680000C0018003FFC3FFC000000000000000090
:104690000000000000000000000007F007F0060026
:1046A00006000600060006000600060006000600DA
:1046B000060006000600060006000600060007F0D9
:1046C00000000000000000000000000018001C00B6
:1046D0000C000600070003000380018001C000C039
:1046E00000600070003000380018000C000000006E
:1046F000000000000000000000000FE00FE000607C
:1047000000600060006000600060006000600060A9
:1047100000600060006000600060006000600FE00A
:10472000000000000000000000000000000003C0C6
:1047300006C006600C301818301C00000000000095
:104740000000000000000000000000000000000069
:104750000000000000000000000000000000000059
:104760000000000000000000000000000000000049
:104770000000000000000000000000000000FFFF3B
:104780000000000000000000000000001E00038088
:104790000000000000000000000000000000000019
:1047A0000000000000000000000000000000000009
:1047B00000000000000000000000000000000000F9
:1047C000000000001FF01038001C001C0FFC1C1C17
:1047D000381C381C3CFC1FDC0000000000000000FE
:1047E0000000000000000000000000003800380059
:1047F000380038003BF83E1C3C1C380C380C380C98
:10480000380C381C3C781FE000000000000000005D
:104810000000000000000000000000000000000098
:104820000000000007F80E001C00380038003800B7
:1048300038001C000F1807F80000000000000000FE
:10484000000000000000000000000000001C001C30
:10485000001C001C0FFC1C1C381C301C301C301CA5
:10486000301C383C1CFC0F9C0000000000000000C5
:104870000000000000000000000000000000000038
:10488000000000000FF01C38381C300C3FFC3000DA
:10489000300038001E0C07FC000000000000000083
:1048A00000000000000000000000003C01FE03804A
:1048B0000300030003007FFC7FFC030003000300F0
:1048C00003000300030003000000000000000000DC
:1048D00000000000000000000000000000000000D8
:1048E000000000000FFE1C383818381818381FF068
:1048F0003B8030003FF01FFC300E700E381C1FF85C
:104900000000000000000000000000003800380037
:10491000380038003BF83E383C1C381C381C381C2A
:10492000381C381C381C381C000000000000000037
:1049300000000000000000000000018003C003C070
:10494000000000001FC001C001C001C001C001C0C3
:1049500001C001C001C03FFC0000000000000000D9
:104960000000000000000000000000200070007047
:10497000000000003FF000700070007000700070D8
:1049800000700070007000700070007020E03FC088
:1049900000000000000000000000000018001800E7
:1049A00018001800183C187018E01B801F001B80AE
:1049B00019E018701838181C0000000000000000F2
:1049C0000000000000000000000000001FC001C047
:1049D00001C001C001C001C001C001C001C001C0CF
:1049E00001C001C001C03FFC000000000000000049
:1049F00000000000000000000000000000000000B7
:104A0000000000006F3C79EE71CE718E718E718E58
:104A1000718E718E718E718E00000000000000009A
:104A20000000000000000000000000000000000086
:104A3000000000003BF83E383C1C381C381C381C79
:104A4000381C381C381C381C000000000000000016
:104A50000000000000000000000000000000000056
:104A6000000000000FF01C3C381C700E700E700E21
:104A7000700C381C1E780FE00000000000000000E1
:104A80000000000000000000000000000000000026
:104A9000000000003BF83E1C3C1C380C380C380C65
:104AA000380C381C3C783FE03800380038003800BB
:104AB00000000000000000000000000000000000F6
:104AC000000000000FFC1C1C381C301C301C301C6B
:104AD000301C383C1CFC0F9C001C001C001C001CE3
:104AE00000000000000000000000000000000000C6
:104AF0000000000019F81F1C1C0C180E18001800EC
:104B00001800180018001800000000000000000045
:104B10000000000000000000000000000000000095
:104B2000000000000FF81C0018001E000FC001F864
:104B30000018001818381FF00000000000000000E6
:104B4000000000000000000000000000000006005F
:104B5000060006007FFC06000600060006000600B0
:104B600006000700078401FC0000000000000000B0
:104B70000000000000000000000000000000000035
:104B800000000000381C381C381C381C381C381C2D
:104B9000381C383C1CFC0FDC00000000000000004A
:104BA0000000000000000000000000000000000005
:104BB00000000000700C381C38181C380C300E70C7
:104BC000066007E003C003C0000000000000000012
:104BD00000000000000000000000000000000000D5
:104BE00000000000600660066186738E73CC33CCD3
:104BF000366C366C3C3C3C38000000000000000085
:104C000000000000000000000000000000000000A4
:104C100000000000381C1C380E7007E003C003C001
:104C200007E00E701C38381E000000000000000075
:104C30000000000000000000000000000000000074
:104C400000000000700C381C38181C380C300E7036
:104C5000066007E003C003C0038007000E007C006D
:104C60000000000000000000000000000000000044
:104C7000000000001FF80038007000E001C0038051
:104C800007000C001FFC3FFC0000000000000000BB
:104C900000000000000000000000007801F8038020
:104CA000038003800380038003003F003E00030075
:104CB00003800380038003800380038001C000F829
:104CC000000000000000018001800180018001805F
:104CD00001800180018001800180018001800180CC
:104CE00001800180018001800180018001800180BC
:104CF000000000000000000000001E001F80018076
:104D000001C001C001C001C000C000FC007C00C0A7
:104D100001C001C001C001C001C001C003801F006B
:104D20000000000000000000000000000000000083
:104D300000000000000000001C003F0671CE60FC77
:104D40000000000000000000000000000000000063
:104D50000000000000000000000000000000000053
:104D60000000000000000000000000000000000043
:104D70000000000000000000000000000000000033
:104D80000000000000000000000000000000000023
:104D90000000000000000000000000000000000013
:104DA0000000000000000000000000000000000003
:104DB00000000000000000000000000000000000F3
:104DC00000000000003C00003C00003C00003C00F3
:104DD000003C00003C00003C00003C00003C0000A7
:104DE0003C00003C00003C00003C00003C00000097
:104DF00000000000003C00007E00003C00000000BD
:104E000000000000000000000000000000000000A2
:104E10000000000000000000000000000000000092
:104E20000000000003C3E003C3E003C3C003C3C02A
:104E300003C3C003C3C003C1C000000000000000E2
:104E40000000000000000000000000000000000062
:104E50000000000000000000000000000000000052
:104E60000000000000000000000000000000000042
:104E70000000000000000000000000000000000032
:104E80000000000000000000000001E0E001C0E0C0
:104E900001C0E001C0E03FFFFE3FFFFE03C1C003D1
:104EA00081C00381C00381C07FFFFC7FFFFC0783BB
:104EB0008007038007038007038007078000000046
:104EC00000000000000000000000000000000000E2
:104ED00000000000000000000000000000000000D2
:104EE00000000700000F00000E0001FFF007FFF0B8
:104EF0001F0E001E1E001E1C001E1C000FDC0007E3
:104F0000FC0000FF80003FF00038F800387800789F
:104F10003C0070783071F83FFFE01FFF0000E000B8
:104F200000E00000E00000000000000000000000C1
:104F30000000000000000000000000000000000071
:104F4000000000000F800F3FE01E78703C70707012
:104F50007070E07071C03FE3801FC700000E00005A
:104F60001C0000780000F0F001E7FC03CF0E078E74
:104F70000E0F0E0E1E0E0E3C07BC7003F800000054
:104F80000000000000000000000000000000000021
:104F90000000000000000000000000000000000011
:104FA0000000000000000001FF0007FF800F03C0A9
:104FB0000F03C00F03C00F0780079F0003FE00030D
:104FC000F0000FF83C3E7C3C3C1F3C780FF8780723
:104FD000F87C01F03E03F81FFFFC07FE1F000000F5
:104FE00000000000000000000000000000000000C1
:104FF00000000000000000000000000000000000B1
:1050000000000000003E00003C00003C00003C00AE
:10501000003C00003C00003C0000000000000000DC
:105020000000000000000000000000000000000080
:105030000000000000000000000000000000000070
:105040000000000000000000000000000000000060
:105050000000000000000000000000000000000050
:10506000000000800001C0000780000F00001E004B
:10507000003C0000780000F00000E00001E00001CA
:10508000E00001C00003C00003C00001C00001E057
:105090000001E00000F00000F000007800003C009B
:1050A000001E00000F000007C00001C0000000004B
:1050B00000000000000000000000000000000000F0
:1050C0000000000003C00001E00000F000007C00D0
:1050D000003E00001E00000F000007800007800057
:1050E00003800003C00003C00003C00003C000032E
:1050F00080000780000780000F00001E00003C00B9
:1051000000780000F00001E00003800000000000D3
:10511000000000000000000000000000000000008F
:1051200000000000001C00001C000018000F18F018
:1051300007DBE0007F0000FF0007DBE00E187000D7
:105140001800001C00001C0000000000000000000F
:10515000000000000000000000000000000000004F
:10516000000000000000000000000000000000003F
:10517000000000000000000000000000000000002F
:10518000000000000000000000000000000000001F
:10519000000000003C00003C00003C00003C00001F
:1051A0003C00003C003FFFFC3FFFFC003C00003C9B
:1051B00000003C00003C00003C000000000000003B
:1051C00000000000000000000000000000000000DF
:1051D00000000000000000000000000000000000CF
:1051E00000000000000000000000000000000000BF
:1051F00000000000000000000000000000000000AF
:10520000000000000000000000000000000000009E
:1052100000007C00007E00007E00003E00001E00BA
:10522000003C0000F80007E000040000000000005F
:10523000000000000000000000000000000000006E
:10524000000000000000000000000000000000005E
:10525000000000000000000000000000000000004E
:10526000000000000003FFE003FFE000000000007A
:10527000000000000000000000000000000000002E
:10528000000000000000000000000000000000001E
:10529000000000000000000000000000000000000E
:1052A00000000000000000000000000000000000FE
:1052B00000000000000000000000000000000000EE
:1052C00000000000000000000000000000000000DE
:1052D00000007C0000FE0000FE00007E00000000D8
:1052E00000000000000000000000000000000000BE
:1052F00000000000000000000000000000000000AE
:10530000000000000000780000F00000E00001E074
:105310000003C0000380000780000F00000E0000A3
:105320001E00003C0000380000700000F00000E0AB
:105330000001C00003C0000780000700000F00004C
:105340001E00001C00000000000000000000000023
:10535000000000000000000000000000000000004D
:105360000000000000000000000001FFC007FFE097
:105370000F00F01E00781E003C3C00FC3C07FC3C8B
:105380001FBC3C7C1C3DF03C3FC03C3F003C1E0031
:10539000381E00780F80F007FFE001FF800000005A
:1053A00000000000000000000000000000000000FD
:1053B00000000000000000000000000000000000ED
:1053C00000000000000000000000007E0003FE005E
:1053D0001FDE000E1E00001E00001E00001E00004A
:1053E0001E00001E00001E00001E00001E00001E09
:1053F00000001E00001E000FFFF80FFFF800000065
:10540000000000000000000000000000000000009C
:10541000000000000000000000000000000000008C
:105420000000000000000000000003FF800FFFE00C
:105430000E01F00000F00000F00000F00000F000AD
:1054400001E00003C0000F80003E00007C0001F07E
:105450000003C0000F80001FFFFC1FFFFC000000C6
:10546000000000000000000000000000000000003C
:10547000000000000000000000000000000000002C
:10548000000000000000000000000FFF800FFFE0A0
:105490000001E00000F00000F00001E00003C001A6
:1054A000FF0001FFC00003F000007800007800005A
:1054B000780000780001F00FFFC00FFF000000002F
:1054C00000000000000000000000000000000000DC
:1054D00000000000000000000000000000000000CC
:1054E00000000000000000000000000FC0001FC00E
:1054F000003FC0007BC000F3C001E3C003C3C0078E
:1055000083C00F03C01C03C03803C07FFFFE7FFFB2
:10551000FE0003C00003C00003C00003C000000081
:10552000000000000000000000000000000000007B
:10553000000000000000000000000000000000006B
:10554000000000000000000000000FFFE00FFFE07F
:105550000F00000F00000F00000F00000F00000FF1
:10556000FF800FFFE00000F00000780000780000EE
:10557000780000F00003E00FFFC00FFE0000000005
:10558000000000000000000000000000000000001B
:10559000000000000000000000000000000000000B
:1055A00000000000000000000000003FF001FFF0DC
:1055B00003E0000780000F00001E00001E1F001FF8
:1055C000FFE01FC1F81E00781E003C1E003C1E00BC
:1055D0003C0F00780F80F807FFE001FF800000001B
:1055E00000000000000000000000000000000000BB
:1055F00000000000000000000000000000000000AB
:10560000000000000000000000001FFFFC1FFFFC66
:105610000000780000F00000E00001E00003C0009E
:105620000780000F00000F00001E00003C00007803
:105630000000F00001F00001E00003C000000000E5
:10564000000000000000000000000000000000005A
:10565000000000000000000000000000000000004A
:105660000000000000000000000003FFE00FE3F076
:105670000F00781E00781E00780F00F007E3E001AD
:10568000FF8001FF8007E7E00F00F81E00781E0092
:105690003C1E007C1F00F80FFFF003FFC00000005D
:1056A00000000000000000000000000000000000FA
:1056B00000000000000000000000000000000000EA
:1056C0000000000000000000000003FF800FC7E0A2
:1056D0001E00F01E00783C00783C00783C00381E2C
:1056E00000780FEFF807FFB800007800007800009E
:1056F000F00001E0000FC00FFF000FF000000000FD
:105700000000000000000000000000000000000099
:105710000000000000000000000000000000000089
:105720000000000000000000000000000000000079
:10573000000000000000007E00007E00007E0000EF
:105740001800000000000000000000000000000041
:1057500000003C00007E00007E00003E00000000D3
:105760000000000000000000000000000000000039
:105770000000000000000000000000000000000029
:105780000000000000000000000000000000000019
:10579000000000000000007E00007E00007E00008F
:1057A00018000000000000000000000000000000E1
:1057B00000003E00007E00007F00001F00001E0071
:1057C000001E0000FC0007F00004000000000000C4
:1057D00000000000000000000000000000000000C9
:1057E00000000000000000000000000000000000B9
:1057F0000000400001E00007C0001F00007E000123
:10580000F80003E0000F80000F800003E00000F8C4
:1058100000003E00000F800003E00000E0000000F8
:105820000000000000000000000000000000000078
:105830000000000000000000000000000000000068
:105840000000000000000000000000000000000058
:105850000000000000000000000000000000001F29
:10586000FFF80000000000000000001FFFF81FFF0D
:10587000F800000000000000000000000000000030
:105880000000000000000000000000000000000018
:105890000000000000000000000000000000000008
:1058A00000000000000000000000000000000000F8
:1058B00000000007800003E00000F800003E000048
:1058C0000F800003E00000F80001F00007C0001F97
:1058D00000007C0001F00007C00003000000000091
:1058E00000000000000000000000000000000000B8
:1058F00000000000000000000000000000000000A8
:105900000000000001C00001FE00007F800007C011
:105910000001E00000F00000F00001F00003E000F2
:105920007FC0007E0000700000700000700000006A
:105930000000000000F80000F80000F8000000007F
:105940000000000000000000000000000000000057
:105950000000000000000000000000000000000047
:1059600000000000001F8000FFF003C07807801CCB
:105970000E000E1C000E3C000F383FC778FFC770AA
:10598000E3C771C3C7F3C387E3C387E3878EE387A6
:105990008EE3CF8EE3FFFC71F9F070000070000021
:1059A0003800003C00000F01C007FFC000000000ED
:1059B00000000000000000000000000000000000E7
:1059C00000000000000000000000007E00007F00DA
:1059D00000FF0000E78001E78003C3C003C3C007E6
:1059E00081E00781E00F00F00F00F81FFFF81FFFB4
:1059F000FC3C003C3C001E78001EF0000F00000044
:105A00000000000000000000000000000000000096
:105A10000000000000000000000000000000000086
:105A2000000000000000000000001FFFC01FFFF08A
:105A30001E00F01E00781E00781E00F01E01F01FF0
:105A4000FFC01FFFE01E01F81E00781E003C1E0074
:105A50003C1E00781E00F81FFFE01FFF0000000042
:105A60000000000000000000000000000000000036
:105A70000000000000000000000000000000000026
:105A80000000000000000000000000FFF803FFF825
:105A900007C0000F00001E00001E00003C00003C7C
:105AA00000003C00003C00003C00003E00001E00E6
:105AB000000F00000FC00803FFF800FFF80000000F
:105AC00000000000000000000000000000000000D6
:105AD00000000000000000000000000000000000C6
